:100000000C9478020C94A0020C94A0020C94A00210
:100010000C94A0020C94A0020C94A0020C94A002D8
:100020000C94A0020C94A0020C94A0020C94A002C8
:100030000C94A0020C94A0020C94A0020C94A002B8
:100040000C947F0F0C94A0020C94EF0F0C94C90F2A
:100050000C94A0020C94A0020C94A0020C94A00298
:100060000C94A0020C94A0024E414E494E495459A2
:10007000494E46CDCCCC3D0AD7233C17B7D1387773
:10008000CC2B329595E6241FB14F0A000020410089
:1000900000C84200401C4620BCBE4CCA1B0E5AAED3
:1000A000C59D742C005E003C3D003C003E3D003E82
:1000B00000213D003D3D00786E6F72006E6F720052
:1000C0006E616E6400786F72006F7200616E640022
:1000D0006E6F74003B006678007374657000746F17
:1000E00000646F00666F72007768696C6500656C0C
:1000F0007365007468656E00696600657865630005
:1001000070726F6700656E6400626567696E003DBE
:1001100000290028002D002B002F002A00000000DD
:100120000000240027002A0000000000250028000D
:100130002B00040404040404040402020202020268
:10014000030303030303010204081020408001029B
:10015000040810200102040810200000000800021A
:1001600001000003040700000000000000005265C9
:100170006164792E004652454552414D3A200000B7
:1001800000002020202020201B5B313B37326D2DCA
:100190004D6963726F44504C205465726D696E6195
:1001A0006C204D6963726F636F6D7075746572203A
:1001B00053797374656D20302E352E38322D464DAF
:1001C000432028632920416C616E204B7562696170
:1001D0006B2D1B5B306D0020202020202020202054
:1001E000202020202020202020202020202020200F
:1001F00020202020202020202020202020202020FF
:1002000020202020202020202020202020202020EE
:1002100020200020202020202020202020202020FE
:1002200020202020202020202020202020202020CE
:10023000202020202020202020201B5B343B313038
:100240006D68747470733A2F2F4D6963726F4450E8
:100250004C2E43462F1B5B306D0020202020202099
:10026000202020202020202020202020207C5F7C97
:100270005F7C5F7C5F7C5F5F5F7C5F7C207C5F5F1F
:100280005F7C5F5F5F5F7C207C5F5F7C20207C5FAA
:100290005F5F5F5F7C002020202020202020202026
:1002A0002020202020202020207C207C207C207CDE
:1002B000207C20205F7C20205F7C202E207C202042
:1002C0007C20207C7C2020205F5F7C20207C5F5F66
:1002D000200020202020202020202020202020203E
:1002E00020202020207C20202020207C5F7C5F5F3D
:1002F0005F205F5F5F205F5F5F7C202020207C208D
:100300007C20205F20207C20207C202020002020BA
:1003100020202020202020202020202020202020DD
:1003200020205F5F5F5F5F205F2020202020202053
:100330002020202020205F5F5F5F2020205F5F5F04
:100340005F5F205F5F20202020002062797465734A
:100350002E1B5B306D002070726F673A20002062A8
:10036000797465732E0020737461636B3A20001BEF
:100370005B313B33316D4572726F723A001B5B31FA
:100380003B33326D4F6B2E004D6963726F44504C9E
:1003900020436F6D70696C6174696F6E3A20001B49
:1003A0005B313B33316D5468652063616C63756C00
:1003B0006174656420737461636B20666F7220746E
:1003C00068652070726F6772616D20697320626961
:1003D00067676572207468656E20746865203634BE
:1003E00020627974657320616C6C6F7765641B5B48
:1003F000306D004D6963726F44504C2056697274C1
:1004000075616C204D616368696E65204C61756E25
:100410006368696E673A00526573756C743A2000C0
:100420001B5B313B33316D4572726F7220537461C7
:10043000636B207265616368656420302E1B5B30DE
:100440006D001B5B313B33316D4572726F723A2028
:10045000696E707574206C656E676874203E20004C
:100460005055534856200020090A0D002E303132D5
:1004700033343536373839005F61626364656667E7
:1004800068696A6B6C706D6E6F7072737475767775
:1004900078797A4142434445464748494A4B4C5053
:1004A0004D4E4F5052535455565758595A30313279
:1004B00033343536373839005F61626364656667A7
:1004C00068696A6B6C706D6E6F7072737475767735
:1004D00078797A4142434445464748494A4B4C5013
:1004E0004D4E4F5052535455565758595A0021109B
:1004F00011241FBECFEFD8E0DEBFCDBF13E0A0E0D8
:10050000B1E0ECE5F5E402C005900D92A230B10730
:10051000D9F724E0A2E0B3E001C01D92AD35B207E7
:10052000E1F712E0C8E7D2E004C02197FE010E9483
:10053000B41FC737D107C9F70E9456100C94AC22DC
:100540000C940000DC012D913C9111972130310574
:1005500041F41396ED91FC916081718182819381C8
:1005600008950E94B6020E94BD1C0895DC012D91E1
:100570003C9111972130310529F40E94A2020E947A
:10058000551F08951396ED91FC91608171818281D0
:100590009381089520912B0430912C04281739075A
:1005A00020F490932C0480932B04089580913D04B3
:1005B000853088F4E82FF0E0EE0FFF1FED5CFB4F75
:1005C0002091310430913204318320838F5F8093F6
:1005D0003D0481E0089580E00895AF92BF92CF92EC
:1005E000DF92EF92FF920F931F93CF93DF936C01F3
:1005F0007B018B01040F151FEB015E01AE18BF08D4
:10060000C017D10759F06991D601ED91FC91019085
:10061000F081E02DC6010995892B79F7C501DF919D
:10062000CF911F910F91FF90EF90DF90CF90BF90EF
:10063000AF900895CF93DF93EC010E94A202CE0108
:10064000DF91CF910895FC01538D448D252F30E02B
:10065000842F90E0821B930B541710F0CF960895CF
:1006600001970895FC01918D828D981761F0A28DFC
:10067000AE0FBF2FB11D5D968C91928D9F5F9F73C2
:10068000928F90E008958FEF9FEF0895FC01918D78
:10069000828D981731F0828DE80FF11D858D90E0E5
:1006A00008958FEF9FEF0895FC01918D228D892F82
:1006B00090E0805C9F4F821B91098F73992708956A
:1006C0008EE893E00E94540321E0892B09F420E096
:1006D000822F089580E090E0892B29F00E9460032A
:1006E00081110C9400000895FC01A48DA80FB92F6E
:1006F000B11DA35ABF4F2C91848D90E001968F734A
:100700009927848FA689B7892C93A089B1898C9168
:10071000837080648C93938D848D981306C00288B7
:10072000F389E02D80818F7D80830895EF92FF9281
:100730000F931F93CF93DF93EC0181E0888F9B8D04
:100740008C8D98131AC0E889F989808185FF15C0BE
:100750009FB7F894EE89FF896083E889F9898081E1
:100760008370806480839FBF81E090E0DF91CF91B0
:100770001F910F91FF90EF900895F62E0B8D10E0D2
:100780000F5F1F4F0F731127E02E8C8D8E110CC041
:100790000FB607FCFACFE889F989808185FFF5CF8C
:1007A000CE010E947403F1CFEB8DEC0FFD2FF11DF4
:1007B000E35AFF4FF0829FB7F8940B8FEA89FB89C9
:1007C00080818062CFCF0F931F93CF93DF938C01F3
:1007D000D0E0C0E0F801EC0FFD1F6491662341F00A
:1007E0008EE893E00E949603892B11F02196F2CFB8
:1007F000CE01DF91CF911F910F910895CF93DF9399
:10080000EC01888D8823B9F0AA89BB89E889F98928
:100810008C9185FD03C0808186FD0DC00FB607FC5D
:10082000F7CF8C9185FFF2CF808185FFEDCFCE0190
:100830000E947403E9CFDF91CF910895CF93DF93A6
:10084000FC01CA010197DB01A80FB91F2C91B0E090
:10085000A0E032813A171B0641F038F0C381D48101
:10086000CA0FDB1F18821196F4CF1182108222303A
:1008700009F44EC038F4222369F12130B1F1DF913F
:10088000CF910895283009F45EC0293071F12330EA
:10089000B1F7A381B481CB01840F951FEC0122979E
:1008A00028812C93A381B4812197288111962C93C0
:1008B000A381B4810497EC01888112968C93CA01BC
:1008C00005970380F481E02D680F791FDB012C91DF
:1008D0002383D5CFCA0102970380F481E02D680FEE
:1008E000791FEB0128812083CACFC381D481DB012A
:1008F000A40FB51F12978C918883CA0103970380B8
:10090000F481E02D680F791FDB012C912183B7CF93
:10091000A381B481CB01840F951FEC01229728811C
:100920002C93A381B4810397EC01888111968C9359
:10093000CA0104970380F481E02D680F791FDB0161
:100940002C9122839CCFA381B481CB01840F951F6E
:10095000EC01229728812C93A381B48121972881CF
:1009600011962C93A381B4810497EC01888112968F
:100970008C93CA010597A381B481680F791FEB019D
:10098000288113962C9321E030E03183208377CFA8
:10099000CF93DF9300D0CDB7DEB7209157043091CD
:1009A00058042115310511F42DE534E0CE010196EE
:1009B000821B930B0F900F90DF91CF9108950F93AF
:1009C0001F93CF93DF93EC010E94A2020E945C1F51
:1009D00070E0AB014A5B5E4FFA01A491CB018E5CE3
:1009E0009E4FFC0124912223A1F030E0220F331FFF
:1009F000F901E25EFE4F05911491F901E85DFE4FA9
:100A0000259134912FB7F894F8013081A32BA0835E
:100A10002FBF665A7E4FFB016491FA014491FC019D
:100A200094919923B9F0662339F0633019F1C0F439
:100A3000613031F1623041F1E92FF0E0EE0FFF1F3C
:100A4000E85DFE4FA591B4918FB7F8949C91492B26
:100A50004C938FBFCE01DF91CF911F910F910895DD
:100A60006730A9F06830C9F0643031F780918000B8
:100A70008F7D03C0809180008F7780938000DCCFD2
:100A800084B58F7784BDD8CF84B58F7DFBCF80911F
:100A9000B0008F778093B000CFCF8091B0008F7D72
:100AA000F9CFFC0101900020E9F73197AF01481B15
:100AB000590BBC018EE893E00C94ED028F929F924B
:100AC000AF92BF920F931F93CF93DF93CDB7DEB753
:100AD000A1970FB6F894DEBF0FBECDBF19A242306A
:100AE00008F44AE08E010F5D1F4F842E912CB12C2B
:100AF000A12CA50194010E94031EE62FB901CA0191
:100B0000EA30F4F4E05DD801EE938D01232B242B21
:100B1000252B79F790E080E0109719F0CD010E9425
:100B20005105A1960FB6F894DEBF0FBECDBFDF9181
:100B3000CF911F910F91BF90AF909F908F9008958C
:100B4000E95CE1CF009711F00C94510590E080E052
:100B500008958AE691E00C945105CF93DF930E94AB
:100B6000E303EC010E94A9058C0F9D1FDF91CF913B
:100B70000895CF93DF930E945105EC010E94A905CF
:100B80008C0F9D1FDF91CF9108958DE691E00E941B
:100B9000B90580913D04882319F0815080933D046C
:100BA000089589E791E00E94B90580913D0488236A
:100BB00019F0815080933D04E0913D04F0E0EE0F88
:100BC000FF1FED5CFB4F80819181909332048093F5
:100BD00031040895CF92DF92EF92FF92CF93DF938B
:100BE00097FF1BC06B017C016DE28EE893E00E94D1
:100BF0009603EC0166277727CB016C197D098E09D6
:100C00009F094AE00E945E058C0F9D1FDF91CF91E6
:100C1000FF90EF90DF90CF9008954AE0DF91CF9161
:100C2000FF90EF90DF90CF900C945E05BC01990F80
:100C3000880B990B0C94EA0587E891E00E94A205C5
:100C40008DEB91E00E94A2050E94C8040E94160646
:100C50008FE891E00C94A205CF93DF930E941606D3
:100C6000EC010E94A9058C0F9D1FDF91CF91089583
:100C7000BC0190E080E04AE00C945E058F929F9268
:100C8000AF92BF92CF92DF92EF92FF92CF93DF931A
:100C90006B017C01AC019B010E94901F882371F0C5
:100CA00089E991E0DF91CF91FF90EF90DF90CF90B5
:100CB000BF90AF909F908F900C94510546015701C3
:100CC000E894B7F82FEF3FEF4FE75FE7C501B401B6
:100CD0000E94901F81110DC02FEF3FEF4FE75FE79C
:100CE000C501B4010E94B61C18161CF48DE991E0F0
:100CF000D9CF2FEF3FEF4FE75FE4C701B6010E9466
:100D00008B1F18161CF481EA91E0CCCF2FEF3FEF38
:100D10004FE75FECC701B6010E94B61C87FDF3CF19
:100D200020E030E0A901C701B6010E94B61CD0E066
:100D3000C0E087FF0AC06DE28EE893E00E94960350
:100D4000EC01F7FAF094F7F8F0942AE037ED43EA73
:100D50005BE3C701B6010E94771E4B015C010E9454
:100D60005C1F6B017C010E94BB1C9B01AC01C50197
:100D7000B4010E94761E4B015C014AE0C701B60136
:100D80000E945E05C80FD91F6EE28EE893E00E94B4
:100D90009603C80FD91F20E030E040E251E4C501BE
:100DA000B4010E941C1D4B015C010E945C1F6B0181
:100DB000CB010E943806C80FD91FB60190E080E031
:100DC0000E94BB1C9B01AC01C501B4010E94761EB0
:100DD00020E030E040E251E40E941C1D0E945C1FB4
:100DE000CB010E9438068C0F9D1FDF91CF91FF90A1
:100DF000EF90DF90CF90BF90AF909F908F9008952D
:100E0000CF93DF930E943806EC010E94A9058C0F56
:100E10009D1FDF91CF910895EF92FF920F931F9343
:100E2000CF93DF93CDB7DEB7C059D1090FB6F89491
:100E3000DEBF0FBECDBFF82EE92E1F9282E08F934A
:100E400085EA91E09F938F938E010F5F1F4F1F9351
:100E50000F930E940B20EF92FF921F930F93005865
:100E60001F4F1F930F930E940B20C8010E94A205E1
:100E70000FB6F894DEBF0FBECDBFC057DF4F0FB621
:100E8000F894DEBF0FBECDBFDF91CF911F910F91C0
:100E9000FF90EF9008958F929F92AF92BF92CF9262
:100EA000DF92EF92FF920F931F93CF93DF937C011A
:100EB0006B015A01E9018CEA91E00E94A205C5018B
:100EC0000E943806AC16BD0608F086C0D7018D9189
:100ED0009C910197A1F580EB91E00E94A20508E0AA
:100EE00010E0C8010E940C07E601CA0DDB1D902E20
:100EF0000830110509F04AC0D7011296BC90BA9487
:100F00004E018B0C911CB7FC9A94CE018C199D0953
:100F1000B7FC5AC0C4018C1B9D0BF701A381B4819F
:100F2000A80FB91F2C9129930380F481E02DE80FBD
:100F3000F91F808190E00E940C07BA94E6CF84EB01
:100F400091E00E94A205D7011396ED91FC9180815A
:100F50009181A281B38110E000E08F3F9105A1054E
:100F6000B10509F00CF4BDCF01E010E00097E1E01D
:100F7000AE07B1050CF4B5CF02E010E00097A10573
:100F8000B1400CF4AECF03E010E0ABCF892D092CBB
:100F9000000C990BF701A381B481A80FB91F2C9104
:100FA00029930380F481E02DE80FF91F808190E000
:100FB0000E940C079A94FFEF9F12E8CF2FEFA21A1E
:100FC000B20AC501800F911F5C01AFEFAA1ABA0ADD
:100FD000C80ED91EF6010083C501DF91CF911F9184
:100FE0000F91FF90EF90DF90CF90BF90AF909F90C8
:100FF0008F900895CF92DF92EF92FF920F931F93FD
:10100000CF93DF9300D0CDB7DEB78C016B011A828E
:1010100019827C018FEFE81AF80AC8010E94DD1DD1
:101020008930F1F4C7010E94DD1D89837801E3E076
:10103000EE0EF11CC80102960E94DD1D8A83898193
:101040009A81F60191838083C7010F900F90DF9101
:10105000CF911F910F91FF90EF90DF90CF90089567
:10106000F60111821082F0CF1F93CF93DF93182FD8
:10107000EB01CB010E94951C9C0190E0E92FF0E070
:10108000E217F30738F4EC0FFD1FE491E11739F094
:101090009F5FF4CF80E0DF91CF911F91089581E0B1
:1010A000FACFEF92FF920F931F93CF93DF938C01B0
:1010B0007A01EC01C60FD71FF80101900020E9F773
:1010C0003197E01BF10BCE01801B910B8E179F0710
:1010D00068F4B70189910E9434088111EDCFDF9146
:1010E000CF911F910F91FF90EF90089581E0F7CF7E
:1010F0002F923F924F925F926F927F928F929F9228
:10110000AF92BF92CF92DF92EF92FF920F931F9315
:10111000CF93DF93CDB7DEB762970FB6F894DEBFFB
:101120000FBECDBF8C01CE0101967C0180902F04B3
:1011300090903004C0903104D0903204F4010190BA
:101140000020E9F73197E819F909CE16DF0608F40F
:1011500063C068EB71E0C8010E94E61FE1E0F0E0C7
:10116000D8015096FC93EE931F97F80187859089DC
:10117000892BE1F2B80180E494E00E94E61FD801D7
:1011800051968D919C915297909352048093510463
:101190001F968D919C919093500480934F048CEFF7
:1011A00091E00E94A205C8010E94A2058CEB91E08B
:1011B0000E94A205F801878590890E9416068FEB90
:1011C00091E00E94A205D80151968D919C910E94B8
:1011D000160686EC91E00E94A20580913104909160
:1011E00032040E94000762960FB6F894DEBF0FBE6D
:1011F000CDBFDF91CF911F910F91FF90EF90DF90C6
:10120000CF90BF90AF909F908F907F906F905F90A6
:101210004F903F902F900895188AD4010D90002090
:10122000E9F7CD01019788199909C816D90608F080
:101230006AC06091310470913204F7012FE011927D
:101240002A95E9F741E050E0461B570B4C0D5D1D18
:10125000680D791DC7010E94FC1F86E091E09A8B02
:10126000898B712C612CB12CA12CA989BA892D9064
:101270003D90BA8BA98BF70101900020E9F73197D7
:101280002F014E185F08C1010E94951C481659068F
:1012900009F069C020E0822F90E08415950508F0E0
:1012A00056C0F101E80FF91FE4918E0D9F1DDC017E
:1012B0008C918E1358C02F5FEECFA114B10409F0AA
:1012C000BDC0B889B13029F4D0923204C092310443
:1012D0004CCF90E080E00E942C06E8896E2F70E0F1
:1012E00090E080E04AE00E945E050E94A905E2E0ED
:1012F000F0E0D8015096FC93EE931F975296DC9243
:10130000CE92519732CF2889213051F490933204F4
:1013100080933104D80152969C938E93519725CF98
:101320006CE671E0C8010E94E61F82E090E0F801DF
:10133000908B8787F40101900020E9F73197E81935
:10134000F909D8015296FC93EE9351970ECFBFEF57
:10135000AB1ABB0AF801D28AC18A708A6786B701C4
:10136000C8010E94E61FBFEF6B1A7B0AE9E26E1606
:10137000710409F07ACF8981712C882329F068EBF8
:1013800074E00E943408782EF70101900020E9F7FC
:101390003197EE19FF09329740F048E754E061E0D9
:1013A00070E0C7010E9451087822772091F0FFEF8A
:1013B000AF1ABF0AB701C8010E94E61FD8015296B2
:1013C000DC92CE925197E4E0F0E05096FC93EE93DD
:1013D0001F974CE654E070E060E0C7010E9451089E
:1013E000882391F0FFEFAF1ABF0AB701C8010E942E
:1013F000E61FD8015296DC92CE925197E3E0F0E0DE
:101400005096FC93EE931F9747E654E070E060E03F
:10141000C7010E945108882309F44FCFFFEFAF1A8C
:10142000BF0AB701C8010E94E61FD8015296DC929C
:10143000CE92519750961C921E921F97A88AFFEF4A
:10144000CF1ADF0AEACE0F931F93CF93DF938C015D
:10145000EB0169E0CE010E94E51D88E090E00E946A
:101460000C07602FCE0101960E94E51DC801992747
:101470000E940C07612FCE0102960E94E51D812F6C
:1014800090E00E940C078CEF91E00E94B905CE011C
:101490000396DF91CF911F910F910895CF92DF9224
:1014A000EF92FF920F931F93CF93DF937C016B0119
:1014B000C0915304D091540410E000E0209759F0FB
:1014C000B701CE010E94DD1F892B91F18E010D889D
:1014D000DE89C02DF3CF87E190E00E940019EC0176
:1014E000009731F1B7010E94E61F1E8A1D8AD88A33
:1014F000CF868CEC91E00E94A205CE010E941606D8
:1015000086ED91E00E94A205CE010E94A2058DED1C
:1015100091E00E94A20580915304909154040E948E
:101520002C060115110571F4D0935404C093530493
:10153000CE01DF91CF911F910F91FF90EF90DF903F
:10154000CF900895F801D68BC58BF2CF6F927F9222
:101550008F929F92AF92BF92CF92DF92EF92FF92C3
:101560000F931F93CF93DF93CDB7DEB7CC54D10940
:101570000FB6F894DEBF0FBECDBF7C01E3E19E2E17
:101580008E01065C1F4FF801292D11922A95E9F76B
:10159000AA24A394B12C2B96BFAEAEAE2B97C80154
:1015A0000E9478082B968EAD9FAD2B9783309105C6
:1015B00009F40FC18930910509F4FEC1049709F0BF
:1015C0007CC00E94D60247E0C42ED12C882309F4A7
:1015D00076C06E0137E2C30ED11CF601292D11929F
:1015E0002A95E9F7BFAAAEAAC6010E9478088EA97B
:1015F0009FA9099709F0D8C00E94C505F70170801E
:101600000E94D602882381F0CE014496FC011192FB
:101610009A94E9F7BCA2ABA20E9478088BA19CA186
:101620000A9711F50E94D105F701B0808B2D9181A9
:101630000E94CA02C6010E9478088EA99FA90A9733
:10164000E1F5C0905504D0905604C114D10409F4BA
:101650004DC0B801C6010E94DD1F892B09F446C0A8
:10166000F601C588D688F1CF0E94D10563E1662EC8
:101670009E012F5F3F4F590188248394912CC7010D
:101680000E94A80E0E94D602882371F2F501262D31
:1016900011922A95E9F7998A888AC5010E947808EB
:1016A000888999898A30910509F4BCCF889719F403
:1016B0000E94C505E4CF0E94D105D12CC12CC601E2
:1016C000C45BDF4F0FB6F894DEBF0FBECDBFDF9116
:1016D000CF911F910F91FF90EF90DF90CF90BF902F
:1016E000AF909F908F907F906F900895B718F601FC
:1016F0008189B816B1F02D968EAD9FAD2D97909340
:101700005204809351042B968EAD9FAD2B979093EE
:10171000500480934F04B80180E494E00E94E61FD7
:10172000CCCFC114D10439F3B11006C0F7018081C8
:10173000918101969183808300913E0410913F0432
:101740007801FFEFEF1AFF0A67E1C8010E94E51D6B
:10175000F0923F04E0923E0469E0C7010E94E51D5B
:1017600088E090E00E940C076C2DC80102960E9450
:10177000E51DC60199270E940C076D2DC80103962F
:101780000E94E51D8D2D90E00E940C078CEF91E0EA
:101790000E94B9050C5F1F4F10933F0400933E0455
:1017A00084E0C82ED12C8BCF0E94D105C090530469
:1017B000D0905404C114D10409F415C1B801C60174
:1017C0000E94DD1F892B09F414C1F601C588D68853
:1017D000F1CF6AEE71E0C8010E94ED1FF80101909F
:1017E0000020E9F73197E01BF10B9E012F5F3F4F7F
:1017F00069018E179F0708F481C04AE050E070E04D
:1018000060E0C8010E94751B4B015C010E94C80486
:101810000E9416068CEF91E00E94A2058CEE91E0EA
:101820000E94A205C8010E94A20586EE91E00E94D6
:10183000A20580913E0490913F040E940007F701A9
:101840008081918101969183808300913E04109163
:101850003F047801FFEFEF1AFF0A60E0C8010E9421
:10186000E51DF0923F04E0923E04712C2FEF8216AA
:101870009104A104B10499F094F077247394811435
:10188000910431E0A306B10454F033E0732E8114C7
:101890009104A10481E0B80614F422E0722E89823A
:1018A0009A82AB82BC820E5F1F4F672DC7010E94D8
:1018B000E51D872D90E00E940C07760148019FEFFF
:1018C000891A990AF701B1907F016B2DC8010E9416
:1018D000E51D8B2D90E00E940C0784018E2D8C1944
:1018E000781660F78CEF91E00E94B90590923F0462
:1018F00080923E0493E0C92ED12CE1CE70E060E0EE
:10190000C8010E94251A4B015C010E94C8040E9474
:1019100016068CEF91E00E94A20585EF91E00E94EF
:10192000A205C8010E94A20586EE91E00E94A205D0
:1019300080913E0490913F040E940007F70180814E
:10194000918101969183808300913E0410913F0420
:101950007801FFEFEF1AFF0A60E0C8010E94E51D61
:10196000F0923F04E0923E0489829A82AB82BC826C
:1019700068E0C7010E94E51D88E090E00E940C0726
:10198000780122E0E20EF11C0A5F1F4FF601B190D0
:101990006F016B2DC7010E94E51D8B2D90E00E9409
:1019A0000C07FFEFEF1AFF0A0E151F0579F78CEFF2
:1019B00091E00E94B905F0CEC7010E94A80E6C010B
:1019C000892B09F47ACEF701808191810E94CA02A5
:1019D000C8010E9478082B968EAD9FAD2B970A9771
:1019E00009F06BCE6CCE61E070E0C8010E944E0A37
:1019F0006C010E94C8040E9416068CEF91E00E94C0
:101A0000A20580E694E00E94E303C8010E94A205BB
:101A100086EE91E00E94A20580913E0490913F04E1
:101A20000E940007F7018081918101969183808354
:101A300080913E0490913F048C010F5F1F4F61E045
:101A40000E94E51D10933F0400933E04B801C601B7
:101A50000E94230A90933F0480933E0455E0C52ED4
:101A6000D12C2DCECF92DF92EF92FF920F931F9346
:101A7000CF93DF93CDB7DEB763970FB6F894DEBF91
:101A80000FBECDBF8C01CE0101966C0183E1F60142
:101A900011928A95E9F781E090E0998B888BC601D5
:101AA0000E947808888999898A319105C1F5C80111
:101AB0000E94A60A7C01892B09F457C0F801808195
:101AC00091810E94CA0200913E0410913F0469E096
:101AD000C8010E94E51D0F5F1F4F10933F04009344
:101AE0003E040E94C8040E9416068CEF91E00E94FA
:101AF000A2058EEF91E00E94B9050E94C505C701BD
:101B000063960FB6F894DEBF0FBECDBFDF91CF91C5
:101B10001F910F91FF90EF90DF90CF90089508975D
:101B200021F5C8010E94A60A7C01892BF1F0F80179
:101B3000808191810E94CA0200913E0410913F046D
:101B400068E0C8010E94E51D0F5F1F4F10933F041E
:101B500000933E040E94C8040E9416068CEF91E098
:101B60000E94A20582E092E0C6CF0E94D105C80182
:101B70000E94A60A7C01892B11F2F80180819181D3
:101B80000E94CA020E94D6028823A1F1C6010E94C7
:101B9000780888899989879751F5C8010E94A60A13
:101BA0007C01892B21F1F801808191810E94CA0278
:101BB000F8018081918101979183808300913E0497
:101BC00010913F0469E1C8010E94E51D0F5F1F4F9E
:101BD00010933F0400933E040E94C8040E9416061E
:101BE0008CEF91E00E94A20589E092E084CF0E94F0
:101BF000D10585CF87E0E82EF12C81CF8F929F927F
:101C0000AF92BF92CF92DF92EF92FF920F931F930A
:101C1000CF93DF93CDB7DEB763970FB6F894DEBFEF
:101C20000FBECDBF4C017B016A010E94D602882302
:101C300009F484C0C6010E94320D8C01892B09F47D
:101C400069C00E94C8040E9416068CEF91E00E94B1
:101C5000A20585E08816910409F473C086E192E03C
:101C60000E94A20586EE91E00E94A20580913E04AA
:101C700090913F040E940007F601808191810E94AB
:101C8000CA02F60180819181019791838083A0909F
:101C90003E04B0903F0467E0F5E08F16910409F42C
:101CA00066E0C5010E94E51D8FEFA81AB80AB09240
:101CB0003F04A0923E040E151F050CF078010E940F
:101CC000D60207E010E0882329F1CE01019623E136
:101CD000FC0111922A95E9F721E030E0398B288B3D
:101CE0000E947808888999890597029768F50E946B
:101CF000C505A601B701888999890E94FE0D8C014E
:101D0000892B41F0F601808191810E94CA020E1553
:101D10001F05E4F0C80163960FB6F894DEBF0FBE4E
:101D2000CDBFDF91CF911F910F91FF90EF90DF908A
:101D3000CF90BF90AF909F908F90089507E010E0F4
:101D400080CF8DE092E08CCF0E94D1058701E2CF59
:101D5000CF92DF92EF92FF920F931F93CF93DF9377
:101D6000CDB7DEB763970FB6F894DEBF0FBECDBF19
:101D70007C010E94D602882309F442C0C7010E9458
:101D8000320D8C01892B61F1F701808191810E94D4
:101D9000CA020E94D60297E0C92ED12C8823E9F10D
:101DA000CE01019623E1FC0111922A95E9F721E089
:101DB00030E0398B288B0E947808888999890597AB
:101DC000029708F08FC00E94C505A701B801888955
:101DD00099890E94FE0D6C01892BA9F410E000E0A6
:101DE000C80163960FB6F894DEBF0FBECDBFDF917A
:101DF000CF911F910F91FF90EF90DF90CF900895BA
:101E000007E010E0C1CFF701808191810E94CA02F2
:101E1000C016D1060CF086016801F701808191811E
:101E20000E94CA020E94D602882309F464C0CE012F
:101E3000019623E1FC0111922A95E9F721E030E0B7
:101E4000398B288B0E94780888899989079702978F
:101E500008F04EC00E94C505C7010E94A80E8C0163
:101E6000892B09F4BDCF0E94C8040E9416068CEF8E
:101E700091E00E94A205888999890797B1F181E2D2
:101E800092E00E94A20586EE91E00E94A205809158
:101E90003E0490913F040E940007F70180819181E8
:101EA0000E94CA02F701808191810197918380830A
:101EB000E0903E04F0903F048889998965E0079797
:101EC00009F464E0C7010E94E51DFFEFEF1AFF0A65
:101ED000F0923F04E0923E040C151D050CF06801E1
:101EE00086017ECF0E94D10597CF8DE192E0C9CFC8
:101EF0000E94D105F5CF87E0C82ED12CF1CF1F92DB
:101F00000F920FB60F9211242F933F938F939F93AD
:101F1000AF93BF9380918A0390918B03A0918C0320
:101F2000B0918D033091890323E0230F2D3758F5AD
:101F30000196A11DB11D2093890380938A0390937C
:101F40008B03A0938C03B0938D03809185039091B4
:101F50008603A0918703B09188030196A11DB11D4E
:101F60008093850390938603A0938703B09388039F
:101F7000BF91AF919F918F913F912F910F900FBE85
:101F80000F901F90189526E8230F0296A11DB11DF2
:101F9000D2CF1F920F920FB60F9211242F933F931F
:101FA0004F935F936F937F938F939F93AF93BF9361
:101FB000EF93FF938EE893E00E947403FF91EF91FB
:101FC000BF91AF919F918F917F916F915F914F9151
:101FD0003F912F910F900FBE0F901F9018951F9259
:101FE0000F920FB60F9211242F938F939F93EF931D
:101FF000FF93E0919E03F0919F038081E091A40301
:10200000F091A50382FD1BC090818091A7038F5F93
:102010008F732091A803821741F0E091A703F0E0AD
:10202000E257FC4F958F8093A703FF91EF919F910B
:102030008F912F910F900FBE0F901F901895808158
:10204000F4CFEEE8F3E01382128288EE93E0A0E092
:10205000B0E084839583A683B7838CE591E0918378
:10206000808385EC90E09587848784EC90E0978767
:10207000868780EC90E0918B808B81EC90E0938B55
:10208000828B82EC90E0958B848B86EC90E0978B32
:10209000868B118E128E138E148EEBE2F4E082E0AA
:1020A00090E0948B838B11A610A60895CF93DF93B5
:1020B000CDB7DEB7C754D1090FB6F894DEBF0FBE57
:1020C000CDBF789484B5826084BD84B5816084BDC1
:1020D00085B5826085BD85B5816085BD80916E00C6
:1020E000816080936E0010928100809181008260F7
:1020F0008093810080918100816080938100809134
:1021000080008160809380008091B1008460809322
:10211000B1008091B00081608093B00080917A001E
:10212000846080937A0080917A00826080937A0044
:1021300080917A00816080937A0080917A00806833
:1021400080937A001092C100E0919E03F0919F036A
:1021500082E08083E0919A03F0919B031082E091EA
:102160009C03F0919D038FEC80831092A603E09175
:10217000A203F091A30386E08083E091A003F09195
:10218000A103808180618083E091A003F091A1038D
:10219000808188608083E091A003F091A103808119
:1021A00080688083E091A003F091A10380818F7DFE
:1021B00080838EE093E00E94AD0582ED92E00E9464
:1021C000AD0586E992E00E94AD058AE592E00E94A5
:1021D000AD0583E192E00E94AD0587ED91E00E949C
:1021E000AD0582E891E00E94AD0581E891E00E9492
:1021F000AD0580E891E00E94AD058FE791E00E9477
:10220000AD0585E791E00E94E3038AE292E00E9437
:10221000A2050E94C8040E942C0684E991E00E9455
:10222000A2058EE691E00E94AD050E941C0687E1A2
:1022300090E00E9400197C0181E0D70151968C93B7
:1022400051972AE133E054963C932E93539752963C
:102250008C9362E372E0C7010E94E61F009155046F
:1022600010915604F0E0E0E00115110521F0F801AD
:1022700005891689F9CF309709F5F0925604E09256
:10228000550487E190E00E9400197C0181E0F7018C
:10229000818B2FED34E0348B238B828B68E372E0EB
:1022A000C7010E94E61FE0915504F0915604309753
:1022B00041F08F010588F689E02DF9CFF68AE58A8D
:1022C000E0CF0115110509F0E1C1F0925604E0924A
:1022D0005504FE0131961F019E01265E3F4F269652
:1022E0003FAF2EAF26978EE893E00E945403892BD0
:1022F00009F475C78EE893E00E943203182F80918D
:102300008303909184038038910508F4C5C120911E
:102310008203211171C70E94A90582E494E00E9402
:10232000E30380E890E00E94000784E991E00E94C6
:10233000A20581E080938203612F8EE893E00E94E2
:1023400096031A3021F01D3071F60E94A905E09124
:102350008303F0918403EE5FFC4F1082809182032F
:10236000811146C26CE671E080E494E00E94E61FB1
:10237000109252041092510401E010E010935004A6
:1023800000934F0482E093E09093300480932F04F5
:10239000109232041092310410923D0410922C04D9
:1023A00010922B0410922E0410922D0482E090E0E3
:1023B00090933F0480933E041FA61EA660E00E94F7
:1023C000E51D83E090E090933F0480933E0460E03D
:1023D0000E94E51D84E090E090933F0480933E04CA
:1023E00060E00E94E51D85E090E090933F048093BB
:1023F0003E048AEB92E00E94A20582E093E00E94F4
:10240000B90583EF93E00E94AD050E94D6028823B0
:1024100009F46BC193E1F92E2696EEADFFAD269738
:102420002F2D11922A95E9F71AA709A7CE014A96EE
:102430000E94780889A59AA5049709F04EC1D10198
:102440001D92FA94E9F7198B088BC1010E94780854
:10245000888999890B9709F040C10E94C505CE0172
:102460008E960E94A80E8C010097A9F161E070E0A1
:10247000049711F070E060E0CE014A960E944E0A87
:102480007C010E94C8040E9416068CEF91E00E9415
:10249000A2058EE392E00E94A20586EE91E00E94E2
:1024A000A205C7010E942C0680913E0490913F0432
:1024B0006C01BFEFCB1ADB0A66E10E94E51DD092EA
:1024C0003F04C0923E04B601C7010E94230A9093C4
:1024D0003F0480933E0480912D0490912E04813816
:1024E000910520F08FE993E00E94E30384E492E0F9
:1024F0000E94B90588E893E00E94E30301151105E5
:1025000009F4F6C080914F0490915004019709F0AE
:10251000EFC08DE793E00E94E3030115110539F048
:1025200080914F0490915004019709F4E4C080E633
:1025300092E00E94A20580915104909152040E9461
:1025400016068AE692E00E94A20580E494E00E94CA
:10255000A20583E792E00E94A20580914F0490912A
:1025600050040E94160684E991E00E94A205012B06
:1025700009F43EC180914F0490915004019709F0F5
:1025800037C182E090E00E94DD1D23968FAF239734
:1025900083E090E00E94DD1D24968FAF249761E0D8
:1025A00070E024968EAD9FAD24970E94BA1F6C01F7
:1025B0001CAE1DAE1EAE1FAE18AE19AE1AAE1BAECF
:1025C0001BAA1CAA1DAA84E08DAB9E01245C3F4F70
:1025D0003FAB2EAB1EA61FA618AA88ABCE01C8968D
:1025E0009AAB89AB22961FAE1EAE229785E0882E4D
:1025F000912CF12CE12C0E94C8040E9416068CEF4D
:1026000091E00E94A2058FEA92E00E94A205C40117
:102610000E94380684010F5F1F4FC4010E94DD1D18
:1026200028968FAF289787EB92E00E94A205289604
:10263000EFAD2897AE2EB12CC5010E940C078CEF90
:1026400091E00E94A2052896FFAD2897F83108F086
:1026500042C1F501E25DFC4E0C94B41F0514411516
:102660006B146B14FA168917F61770186B146B1429
:102670006B146B146B146B146B146B146B146B1462
:102680006B146B146B146B148E15D315D8015696FE
:10269000FC92EE9255971DCE1F3779F41816190645
:1026A00034F06FE78EE893E00E9496031CCE01970A
:1026B00090938403809383033FCE20918203211162
:1026C0003BCE9C012F5F3F4F3093840320938303C5
:1026D0008E5F9C4FDC011C932FCE0E94D105CE0152
:1026E0008E960E94A80E8C01F6CE07E010E0F3CE85
:1026F0008FE693E010CF00913E0410913F046AE111
:10270000C8010E94E51D0F5F1F4F10933F04009307
:102710003E0420912B0430912C0445E0429FC001DF
:10272000439F900D112490932C0480932B0486E6F4
:1027300093E00E94E30380912B0490912C040E946B
:1027400038068EE593E00E94E30386E593E00E945D
:10275000E30380913E0490913F0403970E94380662
:102760008AE493E00E94AD0560912B0482E090E042
:102770000E94E51D87E792E00E94B90502E010E0A3
:1027800080913E0490913F0408171907C0F4C801D6
:102790000E94DD1D90E00E940C0785E792E00E94F8
:1027A000A205C8010E9438068CE892E00E94A205AA
:1027B0008CE691E00E94B9050F5F1F4FE1CF8EE8D4
:1027C00092E00E94A20580913E0490913F040E94F5
:1027D000380685E992E00E94B9058CE992E00E94F2
:1027E000B905C8CEF7FE0FC080E294E00E94AD05A7
:1027F0000E94A9050E941C06109284031092830374
:102800001092820370CD4801F6CE540122E0A20E50
:10281000B11CC8010E94DD1D782E81EC92E00E945F
:10282000A205872D90E00E9416068CEF91E00E9491
:10283000A205C5010E9438068BEC92E00E94A20519
:1028400090E080E00EA91FA92DA92817190639F0DC
:1028500030F0F801E80FF91F10820196F3CF1CAA9F
:102860001BAA32E0731609F4C2C0371508F462C01F
:10287000772009F4A0C081E0781609F4A6C0EEA97B
:10288000FFA960817181828193810E943E0685E764
:1028900092E00E94A205C5010E9438068DEC92E0EC
:1028A0000E94A2058BA99CA9EEA9FFA9019709F096
:1028B000E1C060817181828193810E943E062496ED
:1028C0002EAD3FAD2497A701B601CE01C3960E945D
:1028D0004B077C0185010E94A9050130F1E01F072B
:1028E00030F428962FAD28972A3109F07BCF87E165
:1028F00094E00E94E30324968EAD9FAD24978E153D
:102900009F0530F0A701B601CE01C3960E941E04B8
:10291000EEA9FFA960817181828193812BA93CA9D5
:102920002130310509F058C40E943E06C6010E94BC
:102930009C195ECF98E0791609F474C0A9E07A1664
:1029400039F1B3E07B129BCFC5010E94DD1DF80178
:1029500080830EA91FA9C40103960E94DD1DD80122
:1029600011968C930EA91FA9C40104960E94DD1D27
:10297000F80182835401F6E0AF0EB11C0EA91FA925
:10298000C40105960E94DD1DD80113968C9377CF64
:10299000C5010E94DD1DF80180835401F4E0AF0EF3
:1029A000B11C0EA91FA9C40103960E94DD1DD80108
:1029B00011968C9364CFB3E08B0E911CC5010E94DD
:1029C000DD1DF801808354015ACFC5010E94DD1D31
:1029D000D8018C935401B4E0AB0EB11C0EA91FA911
:1029E000C40103960E94DD1DF801818348CFC50113
:1029F0000E94DD1DD8018C930EA91FA9C401039666
:102A00000E94DD1DF80181835401F5E0AF0EB11C79
:102A10000EA91FA9C40104960E94DD1DD8011296BB
:102A20008C932DCFC5010E94DD1DF80180830EA976
:102A30001FA9C40103960E94DD1DD80111968C9335
:102A40000EA91FA9C40104960E94DD1DF80182830E
:102A50005401F6E0AF0EB11C0EA91FA9C4010596E2
:102A60000E94DD1DD80113968C9381E090E09CAB11
:102A70008BAB05CF60817181828193810E94EA05D1
:102A80001ECFBE01605C7F4FC8010E94FA078C0117
:102A90002296EEADFFAD2297878590899CAB8BABDC
:102AA000AEA9BFA981898C93EEA9FFA92296AEADEC
:102AB000BFAD229752968C9181832296EEADFFADE9
:102AC0002297AEA9BFA9838912968C93AEA9BFA9FC
:102AD000848913968C9383ED92E00E94A2058BA9C2
:102AE0009CA9EEA9FFA9019791F46081718182816F
:102AF00093810E943E0624962EAD3FAD2497A701F8
:102B0000B601CE01C3960E944B077C01E4CE6081E2
:102B10007181828193810E94EA05EDCFBE01605CE4
:102B20007F4FC8010E94FA078C012496AEACBFAC5F
:102B30002497AE14BF0438F0A701B601CE01C396A6
:102B40000E941E047C01AEA9BFA92296EEADFFAD86
:102B500022978C91818B11968C911197828B129672
:102B60008C911297838B13968C91848B8BA99CA943
:102B7000908B87878AED92E00E94A20522968EAD07
:102B80009FAD22970E94160682EE92E00E94A20557
:102B90002296EEADFFAD229761897289838994896F
:102BA0000E94EA05B4C11A8219825401B2E0AB0E48
:102BB000B11CC8010E94DD1D10E000E0893079F4ED
:102BC000C5010E94DD1D89835401E4E0AE0EB11CF5
:102BD000C40103960E94DD1D8A8309811A8186EE55
:102BE00092E00E94A205C8010E94160624966EACCF
:102BF0007FAC249784E12696AEADBFAD26971D929B
:102C00008A95E9F787E1F10111928A95E9F784E065
:102C10008B8388878D878A8B8F8B2AE130E02C0FFE
:102C20003D1F3D832C838EE190E08C0F9D1F9A8782
:102C30008987A2E2B0E0AC0FBD1FBF87AE87E6E296
:102C4000F0E0EC0FFD1FFC8BEB8B2AE230E02C0F49
:102C50003D1F398F288FD80151968C91815027962E
:102C60008FAF27972101E5E08E02400C511C112403
:102C7000912C812C2796FFAD2797F7FD1DC06E1470
:102C80007F0478F025E0289DC001299D900D112436
:102C9000A701B601D201A81BB90BCD010E941E04E9
:102CA0007C012796BFAD2797B1502796BFAF2797D6
:102CB000EFEF8E1A9E0ADECFD80152968C91529772
:102CC000882361F051968C915197823009F467C046
:102CD000C0F4882379F1813009F45BC08CEF91E076
:102CE0000E94A2058BA99CA9EEA9FFA9019709F052
:102CF0007AC060817181828193810E943E06930136
:102D0000E2CD843009F460C008F452C0853031F758
:102D10005396ED91FC918E010B5E1F4F9E01205F3B
:102D20003F4FAE01455F5F4FBE016A5F7F4FC101FC
:102D3000099504C05396ED91FC910995009771F2A5
:102D4000FC01208131813CAB2BAB22812DAB4EA904
:102D50005FA9A381B4812C91DA012C934EA95FA9BC
:102D6000A381B48111962C91FA0121834EA95FA908
:102D7000FC01A381B48112962C91DA0112962C9356
:102D80002EA93FA9A381B48113968C91F901838365
:102D9000A5CF5396ED91FC91C1010995CFCF5396E4
:102DA000ED91FC91BE016A5F7F4FC1010995C6CFCD
:102DB0005396ED91FC91AE01455F5F4FBE016A5F96
:102DC0007F4FC1010995BACF5396ED91FC919E01B9
:102DD000205F3F4FAE01455F5F4FBE016A5F7F4F8F
:102DE000C1010995ABCF60817181828193810E947D
:102DF000EA0585CF2496AEACBFAC2497AE14BF04D1
:102E000088F0A701B601CE01C3960E941E047C0182
:102E1000A816B90638F0AC01B601CE018E960E9414
:102E20001E047C01E9A9FAA96081718182819381E4
:102E30002EA53FA521303105B9F50E943E068EEE44
:102E400092E00E94A2058BA99CA9EEA9FFA9019777
:102E500071F560817181828193810E943E0682EFCB
:102E600092E00E94A2058BA99CA98EA89FA8019719
:102E700021F08EA59FA5019709F5CE018E960E949F
:102E8000A2022B013C01CE01C3960E94A2029B012B
:102E9000AC01C301B2010E94771E21E030E03CABDF
:102EA0002BABD4016C9312C10E94EA05C8CF60819C
:102EB0007181828193810E94EA05D1CFCE018E96E5
:102EC0000E94B6022B013C01CE01C3960E94B602BD
:102ED000460E571E681E791E1CAA1BAAF4014082CA
:102EE000EEA9FFA95182EEA9FFA96282EEA9FFA96E
:102EF0007382EEA9FFA960817181828193812BA9E0
:102F00003CA92130310509F04BCE0E943E069501C7
:102F1000F6CD2496AEACBFAC2497AE14BF0488F0B7
:102F2000A701B601CE01C3960E941E047C01A8161B
:102F3000B90638F0AC01B601CE018E960E941E048F
:102F40007C01E9A9FAA960817181828193812EA512
:102F50003FA52130310589F50E943E0686EF92E0BB
:102F60000E94A2058BA99CA9EEA9FFA9019741F592
:102F700060817181828193810E943E0682EF92E09E
:102F80000E94A2058BA99CA98EA89FA8019721F059
:102F90008EA59FA50197D9F4CE018E960E94A2021C
:102FA0002B013C01CE01C3960E94A2029B01AC0101
:102FB000C301B2010E94761E70CF0E94EA05CECFF7
:102FC00060817181828193810E94EA05D7CFCE0111
:102FD0008E960E94B6022B013C01CE01C3960E9440
:102FE000B602461A570A680A790A76CF2496AEAC1A
:102FF000BFAC2497AE14BF0488F0A701B601CE0180
:10300000C3960E941E047C01A816B90638F0AC01D4
:10301000B601CE018E960E941E047C01E9A9FAA990
:1030200060817181828193812EA53FA52130310578
:1030300089F50E943E068AEF92E00E94A2058BA9C4
:103040009CA9EEA9FFA9019741F560817181828158
:1030500093810E943E0682EF92E00E94A2058BA916
:103060009CA98EA89FA8019721F08EA59FA50197E6
:10307000D9F4CE018E960E94A2022B013C01CE0112
:10308000C3960E94A2029B01AC01C301B2010E943F
:103090001C1D03CF0E94EA05CECF60817181828121
:1030A00093810E94EA05D7CFCE018E960E94B60288
:1030B0002B013C01CE01C3960E94B602A3019201EE
:1030C0000E94F31D1CAA1BAAF4016083EEA9FFA9AC
:1030D0007183EEA9FFA98283EEA9FFA9938309CF8B
:1030E0002496AEACBFAC2497AE14BF0488F0A70101
:1030F000B601CE01C3960E941E047C01A816B90633
:1031000038F0AC01B601CE018E960E941E047C01FF
:10311000E9A9FAA960817181828193812EA53FA5D9
:103120002130310589F50E943E068EEF92E00E9423
:10313000A2058BA99CA9EEA9FFA9019741F5608181
:103140007181828193810E943E0682EF92E00E940B
:10315000A2058BA99CA98EA89FA8019721F08EA5F6
:103160009FA50197D9F4CE018E960E94A2022B0151
:103170003C01CE01C3960E94A2029B01AC01C30197
:10318000B2010E94E31E89CE0E94EA05CECF608183
:103190007181828193810E94EA05D7CFCE018E96FC
:1031A0000E94B6022B013C01CE01C3960E94B602DA
:1031B0009B01AC01C301B2010E94951F1CAA1BAA6E
:1031C000F4012083EEA9FFA93183EEA9FFA9428370
:1031D000EEA9FFA953838DCE0E94EA05A7CB80E01C
:1031E00090E0892B09F478C80E946003882309F4D1
:1031F00073C80E94000070C81F3709F09DC84ECAEE
:103200000F931F93CF93DF938230910510F482E0E8
:1032100090E0E0915904F0915A0430E020E0B0E0F1
:10322000A0E0309799F42115310509F44AC0281B14
:10323000390B24303105D8F58A819B8161157105E0
:1032400089F1FB0193838283FE0111C0408151818A
:103250000281138148175907E0F04817590799F47C
:10326000109761F012960C93129713961C93329656
:10327000CF01DF91CF911F910F91089500935904D1
:1032800010935A04F4CF2115310551F0421753071A
:1032900038F0A901DB019A01BD01DF01F801C1CFBE
:1032A000EF01F9CF90935A0480935904CDCFFE01DA
:1032B000E20FF31F819391932250310939832883C0
:1032C000D7CF2091570430915804232B41F42091FB
:1032D0000201309103013093580420935704209148
:1032E0000001309101012115310541F42DB73EB7A0
:1032F0004091040150910501241B350BE0915704C6
:10330000F0915804E217F307A0F42E1B3F0B281787
:10331000390778F0AC014E5F5F4F2417350748F04E
:103320004E0F5F1F5093580440935704819391931D
:103330009FCFF0E0E0E09CCFCF93DF930097E9F0E0
:10334000FC01329713821282A0915904B0915A0461
:10335000ED0130E020E01097A1F420813181820F4F
:10336000931F20915704309158042817390709F00A
:1033700061C0F0935804E0935704DF91CF91089512
:10338000EA01CE17DF07E8F54A815B819E0141150E
:103390005105B1F7E901FB83EA8349915991C40FC3
:1033A000D51FEC17FD0761F4808191810296840F8F
:1033B000951FE90199838883828193819B838A8306
:1033C000F0E0E0E012968D919C9113970097B9F58B
:1033D0002D913C911197CD010296820F931F209160
:1033E0005704309158042817390739F6309751F5AA
:1033F00010925A0410925904B0935804A0935704A1
:10340000BCCFD383C28340815181840F951FC817DD
:10341000D90761F44E5F5F4F88819981480F591F2A
:10342000518340838A819B81938382832115310557
:1034300009F0B0CFF0935A04E09359049ECFFD01F8
:10344000DC01C0CF13821282D7CFB0E0A0E0EBE264
:10345000FAE10C94361E5C017B016115710519F0CF
:10346000DB018D939C9385010F5F1F4FF501D08188
:103470008D2F90E00E948C1C6C01892BB9F5DD32F8
:10348000B9F50F5F1F4FD5011196DC91C1E05801CE
:10349000F1E0AF1AB10843E050E060E770E0C50129
:1034A0000E949E1C892B69F5680182E0C80ED11C20
:1034B00045E050E06BE670E0C6010E949E1C892B3F
:1034C00021F4680197E0C90ED11CE114F10419F050
:1034D000D701CD92DC9260E070E080E89FEFC111EF
:1034E000FFC060E070E080E89FE7FAC05801BBCF02
:1034F000DB3229F485010E5F1F4FF501D181C0E059
:10350000C6CF43E050E068E670E0C5010E949E1C13
:10351000892BE9F0F80110E000E020E030E0A9019B
:103520005F01B0ED8B2E8D0E89E08815C8F19C2EC1
:10353000689491F88C2F8870C2FF16C0811102C068
:103540000F5F1F4F3196D501DC91C92DE9CFE114F2
:10355000F10429F00E5F1F4FF7011183008360E033
:1035600070E080EC9FE7BCC0882311F00150110986
:10357000A5E0B0E00E94251E9B01AC01220F331F85
:10358000441F551F280D311D411D511D283999E932
:103590003907490799E15907A8F2C6609C2ED2CF96
:1035A000AEEF8A1206C0C3FD3CC09C2E689493F80F
:1035B000C9CFDF7DD534A9F580818D3239F4C06162
:1035C000DF011296818162E070E006C0DF018B327C
:1035D000C1F3119661E070E080535D01A61AB70A4D
:1035E0008A30F8F4E0E8CE16ECE0DE065CF4B601D2
:1035F000660F771F660F771FC60ED71ECC0CDD1C1B
:10360000C80ED11C5D01FFEFAF1ABF0A8C91805329
:103610008A30A8F1C4FF03C0D194C194D1080C0D25
:103620001D1DC1FF09C0E114F10431F081E0A81AA9
:10363000B108D701AD92BC92CA01B9010E94BB1C6E
:10364000C370C33009F490584B015C0120E030E0B6
:10365000A9010E94B61C882309F440C0CFE9D0E03C
:1036600017FF05C0119501951109C7E8D0E06E015B
:10367000B8E1CB1AD10880E2E82EF12C0FC0D501B9
:10368000B1CFFE0125913591459154910E191F0935
:10369000C501B4010E941C1D4B015C01D501C40190
:1036A0000E151F0574F72497F594E794CC16DD06E4
:1036B000A9F78A2F880F8B2F881F8F3F49F020E0B2
:1036C00030E0A901C501B4010E94B61C811106C0F9
:1036D00082E290E090935C0480935B04C501B401A6
:1036E000CDB7DEB7ECE00C94521EB0E0A0E0EBE703
:1036F000FBE10C94311E5C016B017A0161157105CF
:1037000019F0FB0191838083E114F10451F0C701AA
:103710000297839730F040E030E020E090E072C004
:103720005E01E5012196F5011081812F90E00E9454
:103730008C1C892BA9F71D3201F52196F501118109
:1037400001E0E114F10409F4DAC0F0E1EF16F1044C
:1037500009F082C0103359F488818F7D883509F0D3
:1037600076C0198122960260F0E1EF2EF12C812CB7
:10377000912CA12C88E0B82E8CC01B3221F4E501DD
:103780002296F501118100E0DCCFEAE0EE16F104AB
:1037900009F4BBC0F0E1EF16F10409F06DC0E7CF0A
:1037A00078E0E72EF12C812C912CA12C60E1B62E33
:1037B00070C03FE9310F3A3128F439EA332E80C026
:1037C00021E09AC0302F3170C114D10431F022238E
:1037D00009F12197F601D183C08327FF21C060E062
:1037E00070E080E090E8311104C06FEF7FEF8FEF61
:1037F0009FE722E230E030935C0420935B04462F85
:10380000372F282F642F732F822FCDB7DEB7E1E13A
:103810000C944D1E01FF04C02297F601D183C08392
:10382000332341F090958095709561957F4F8F4F30
:103830009F4FE5CF97FFE3CF82E290E090935C0447
:1038400080935B046FEF7FEF8FEF9FE7D8CF10E39C
:10385000E114F10409F4A4CF28E0E216F10409F41C
:10386000A2CF0CF092CF812C912CA12CE0E4BE2EA3
:1038700082E0E816F10469F060E070E080E090E832
:1038800097010F2C000C440B550B0E94031E49019D
:103890005A0120E060E070E0CB0127010F2C000C02
:1038A00066087708FE0150ED352E310E39E03315EC
:1038B00040F43FEB310F3A3108F07BCF49EC342E26
:1038C000310E3E141F040CF07DCF27FD15C0861667
:1038D0009706A806B90678F0A30192010E94F31D8D
:1038E000630D711D811D911D61307105810520E8F9
:1038F000920708F465CF2FEF21961081D3CF1033B4
:1039000009F42ACF2AE0E22EF12C9CEC892E982C87
:10391000A82C9CE0B92EBDCF91110C94891D80324A
:1039200019F089508550C8F70895FC0105900020D2
:10393000E9F7809590958E0F9F1F0895FB01DC019C
:103940004150504088F08D9181341CF08B350CF43F
:10395000805E659161341CF06B350CF4605E861BF3
:10396000611171F3990B0895881BFCCF0E94F81C1C
:1039700008F481E00895E89409C097FB3EF490951F
:103980008095709561957F4F8F4F9F4F9923A9F038
:10399000F92F96E9BB279395F695879577956795C7
:1039A000B795F111F8CFFAF4BB0F11F460FF1BC00B
:1039B0006F5F7F4F8F4F9F4F16C0882311F096E99E
:1039C00011C0772321F09EE8872F762F05C066234C
:1039D00071F096E8862F70E060E02AF09A95660F05
:1039E000771F881FDAF7880F9695879597F90895BE
:1039F000990F0008550FAA0BE0E8FEEF1616170600
:103A0000E807F907C0F012161306E407F50798F067
:103A1000621B730B840B950B39F40A2661F0232B80
:103A2000242B252B21F408950A2609F4A140A695FC
:103A30008FEF811D811D08950E942F1D0C94A31DE1
:103A40000E94951D38F00E949C1D20F0952311F0D6
:103A50000C948C1D0C94921D11240C94D71D0E9463
:103A6000B41D70F3959FC1F3950F50E0551F629FF1
:103A7000F001729FBB27F00DB11D639FAA27F00DC7
:103A8000B11DAA1F649F6627B00DA11D661F829FEE
:103A90002227B00DA11D621F739FB00DA11D621FD3
:103AA000839FA00D611D221F749F3327A00D611DF0
:103AB000231F849F600D211D822F762F6A2F1124D2
:103AC0009F5750409AF0F1F088234AF0EE0FFF1F05
:103AD000BB1F661F771F881F91505040A9F79E3F5C
:103AE000510580F00C948C1D0C94D71D5F3FE4F3BE
:103AF000983ED4F3869577956795B795F795E795B2
:103B00009F5FC1F7FE2B880F911D9695879597F9BA
:103B1000089599278827089597F99F6780E870E0AE
:103B200060E008959FEF80EC089500240A94161633
:103B3000170618060906089500240A94121613069B
:103B4000140605060895092E0394000C11F4882329
:103B500052F0BB0F40F4BF2B11F460FF04C06F5F45
:103B60007F4F8F4F9F4F089557FD9058440F551F1B
:103B700059F05F3F71F04795880F97FB991F61F0EF
:103B80009F3F79F087950895121613061406551F66
:103B9000F2CF4695F1DF08C0161617061806991FD2
:103BA000F1CF86957105610508940895E894BB27C7
:103BB00066277727CB0197F90895F999FECF92BD33
:103BC00081BDF89A992780B50895262FF999FECFDF
:103BD0001FBA92BD81BD20BD0FB6F894FA9AF99A2A
:103BE0000FBE01960895DB018F939F930E94251EBF
:103BF000BF91AF91A29F800D911DA39F900DB29F89
:103C0000900D11240895A1E21A2EAA1BBB1BFD01E1
:103C10000DC0AA1FBB1FEE1FFF1FA217B307E407AB
:103C2000F50720F0A21BB30BE40BF50B661F771F03
:103C3000881F991F1A9469F76095709580959095E3
:103C40009B01AC01BD01CF0108950E94671EA59F95
:103C5000900DB49F900DA49F800D911D1124089587
:103C60002F923F924F925F926F927F928F929F928C
:103C7000AF92BF92CF92DF92EF92FF920F931F937A
:103C8000CF93DF93CDB7DEB7CA1BDB0B0FB6F8942B
:103C9000DEBF0FBECDBF09942A88398848885F846B
:103CA0006E847D848C849B84AA84B984C884DF80DC
:103CB000EE80FD800C811B81AA81B981CE0FD11DC0
:103CC0000FB6F894DEBF0FBECDBFED010895A29FE1
:103CD000B001B39FC001A39F700D811D1124911DE0
:103CE000B29F700D811D1124911D08955058BB275E
:103CF000AA270E948E1E0C94A31D0E94951D38F0C9
:103D00000E949C1D20F039F49F3F19F426F40C9476
:103D1000921D0EF4E095E7FB0C948C1DE92F0E9498
:103D2000B41D58F3BA17620773078407950720F08C
:103D300079F4A6F50C94D61D0EF4E0950B2EBA2F4F
:103D4000A02D0B01B90190010C01CA01A0011124A1
:103D5000FF27591B99F0593F50F4503E68F11A164D
:103D6000F040A22F232F342F4427585FF3CF4695DE
:103D700037952795A795F0405395C9F77EF41F1600
:103D8000BA0B620B730B840BBAF09150A1F0FF0FCA
:103D9000BB1F661F771F881FC2F70EC0BA0F621FB6
:103DA000731F841F48F4879577956795B795F795A6
:103DB0009E3F08F0B0CF9395880F08F09927EE0F3B
:103DC0009795879508950E94F71E0C94A31D0E9455
:103DD0009C1D58F00E94951D40F029F45F3F29F08A
:103DE0000C948C1D51110C94D71D0C94921D0E94A3
:103DF000B41D68F39923B1F3552391F3951B550B2B
:103E0000BB27AA2762177307840738F09F5F5F4FAD
:103E1000220F331F441FAA1FA9F335D00E2E3AF0EC
:103E2000E0E832D091505040E695001CCAF72BD004
:103E3000FE2F29D0660F771F881FBB1F2617370755
:103E40004807AB07B0E809F0BB0B802DBF01FF2787
:103E500093585F4F3AF09E3F510578F00C948C1DBB
:103E60000C94D71D5F3FE4F3983ED4F38695779585
:103E70006795B795F7959F5FC9F7880F911D969540
:103E8000879597F90895E1E0660F771F881FBB1F9C
:103E9000621773078407BA0720F0621B730B840B49
:103EA000BA0BEE1F88F7E09508950E945C1F689496
:103EB000B1110C94D71D08950E94BC1D88F09F5726
:103EC00098F0B92F9927B751B0F0E1F0660F771F3E
:103ED000881F991F1AF0BA95C9F714C0B13091F034
:103EE0000E94D61DB1E008950C94D61D672F782F3F
:103EF0008827B85F39F0B93FCCF3869577956795F9
:103F0000B395D9F73EF490958095709561957F4F64
:103F10008F4F9F4F08950E94F81C08F48FEF08956B
:103F20000E94F81C880B990B0895052E97FB1EF430
:103F300000940E94AC1F57FD07D00E94031E07FC8F
:103F400003D04EF40C94AC1F5095409530952195BC
:103F50003F4F4F4F5F4F08959095809570956195B5
:103F60007F4F8F4F9F4F0895EE0FFF1F0590F491E5
:103F7000E02D09940F931F93CF93DF93869F8001C9
:103F8000879F100D969F100D1124C8010E940019E3
:103F9000EC01009729F0A80170E060E00E94D61FB4
:103FA000CE01DF91CF911F910F910895DC0101C0E7
:103FB0006D9341505040E0F70895FB01DC018D9175
:103FC000019080190110D9F3990B0895FB01DC01D0
:103FD00001900D920020E1F70895DC015D915523D9
:103FE00031F0FB01019005160110E1F7B9F780955A
:103FF00090958A0F9B1F0895FB01DC0141505040B2
:1040000048F001900D920020C9F701C01D92415067
:104010005040E0F70895AEE0B0E0E1E1F0E20C944A
:104020003E1E0D891E8986E08C831A8309838FEFDB
:104030009FE79E838D83AE01475E5F4F6F89788DCA
:10404000CE0101960E942E202F813885020F131F6A
:10405000F80110822E96E4E00C945A1EABE0B0E01A
:10406000E4E3F0E20C94301E7C013B018A01FC0188
:1040700017821682838181FFC8C1CE0101965C013F
:10408000F7019381F30193FD859193FF81913F01A6
:10409000882309F453C1853239F493FD859193FF48
:1040A00081913F01853229F4B70190E00E941E22E0
:1040B000E7CF912C212C312CFFE1F31538F08B3216
:1040C00011F190F4803209F1833229F137FC3CC0C0
:1040D00020ED280F2A3050F536FE20C08AE0989E49
:1040E000200D1124922E06C08D3291F0803371F78D
:1040F000689430F8F30193FD859193FF81913F011E
:104100008111DACF21C0689431F8689432F8F2CF87
:10411000689433F8EFCF689434F8ECCFEAE02E9E41
:10412000200D1124222E689435F8E4CF8E3229F424
:1041300036FC04C1689436F8DDCF8C3619F46894E7
:1041400037F8D8CF8836B1F2982F9F7D95549330A9
:10415000E0F08336A1F18337C1F1833509F063C004
:104160002801F2E04F0E511CF801C080D180692D6A
:1041700070E036FC02C06FEF7FEFC6010E9408229C
:104180004C01689437F882010AC00C5F1F4FFFE3AF
:10419000F98388248394912C6501E89437F833FEE1
:1041A0002DC0522C8114910471F5552009F468CF6B
:1041B000B70180E290E00E941E225A94F6CFF801E7
:1041C000808189830E5F1F4FE4CF2801F2E04F0EFC
:1041D000511CF801C080D180692D70E036FC02C00E
:1041E0006FEF7FEFC6010E9413224C018201D5CFF1
:1041F000B70180E290E00E941E222A94281419043C
:1042000009F0B0F7CECFF60137FC859137FE8191EA
:104210006F01B70190E00E941E2251105A94F1E004
:104220008F1A9108BFCF843619F0893609F077C00C
:10423000F80137FE6BC060817181828193810C5FD0
:104240001F4FF32DFF763F2E97FF09C09095809565
:10425000709561957F4F8F4F9F4F689437F82AE094
:1042600030E0A5010E944E22C82ECA188C2C432C87
:1042700036FE0CC0E89440F8C91440F434FE05C082
:1042800032FC03C0F32DFE7E4F2E892C44FE95C0D8
:10429000FE01EC0DF11D8081803309F087C0242DD3
:1042A000297E422E842D8870582E43FC95C040FEF6
:1042B0008FC09C2C821418F42C0C922C981844FE5D
:1042C00091C0B70180E390E00E941E2242FE09C027
:1042D00088E790E041FE02C088E590E0B7010E94C7
:1042E0001E22C91408F48AC0CA94D12C9FEFC91A9F
:1042F000D90ACA0CDB1CF60182916F01B70190E06C
:104300000E941E22AC14BD04B1F74FCF60817181B1
:10431000072E000C880B990B0E5F1F4F92CFD32CEA
:10432000E894D4F82AE030E0853739F1232D297F4D
:10433000D22E8F3601F148F48835A9F0F701868135
:1043400097812B96E2E10C944C1E803749F0883718
:10435000A9F7D4FE02C06894D2F820E130E00DC085
:104360006894D4F8F6CF34FE03C0822F8660D82E2E
:1043700020E132E002C028E030E0F801D7FE0FC0B3
:1043800060817181828193810C5F1F4FA5010E9422
:104390004E22C82ECA183D2CE89437F867CF6081AA
:1043A000718190E080E00E5F1F4FF0CF42FC02C0B1
:1043B000839478CF8394839475CF842D867809F481
:1043C00071CFF6CFB70180E290E00E941E22839465
:1043D0008214C0F3512C73CF522C5818821408F455
:1043E0006ECFF8CF842D867809F47BCF8BE241FE27
:1043F00080E247FC8DE2B70190E071CFB70180E326
:1044000090E00E941E229A946CCF8FEF9FEF99CF7D
:10441000FC010590615070400110D8F7809590958F
:104420008E0F9F1F0895FC01615070400190011094
:10443000D8F7809590958E0F9F1F08950F931F9327
:10444000CF93DF93182F092FEB018B8181FD09C0DA
:104450001FEF0FEF812F902FDF91CF911F910F91C1
:10446000089582FF14C02E813F818C819D81281781
:1044700039073CF4E881F981CF010196998388835B
:1044800010838E819F8101969F838E83E3CFE88581
:10449000F985812F0995892BA1F3DACFFA01AA2793
:1044A000283051F1203181F1E8946F936E7F6E5F77
:1044B0007F4F8F4F9F4FAF4FB1E03ED0B4E03CD025
:1044C000670F781F891F9A1FA11D680F791F8A1F08
:1044D000911DA11D6A0F711D811D911DA11D20D06F
:1044E00009F468943F912AE0269F11243019305D29
:1044F0003193DEF6CF010895462F4770405D41931A
:10450000B3E00FD0C9F7F6CF462F4F70405D4A3366
:1045100018F0495D31FD4052419302D0A9F7EACF2E
:10452000B4E0A6959795879577956795BA95C9F75D
:1045300000976105710508959B01AC010A2E069450
:104540005795479537952795BA95C9F7620F731F09
:0C455000841F951FA01D0895F894FFCF54
:10455C0000005D0480001D011D011D011D011D01D8
:10456C001B01190117011501130111010F0109019B
:10457C0005010001FB00F800F300EE00E800E40088
:10458C00E100DE00D900D600D400D000CC00C90078
:10459C00C500C000BC00B700B400B100AF00AC0057
:1045AC00AA00A700A500A300000000009603ED02DE
:1045BC002303FE035403320346030D0A003E3E3E22
:1045CC003E20436F6D6D6974003C3C3C3C20526F47
:1045DC006C6C6261636B001B5B313B33336D002988
:1045EC003E3E3E201B5B306D006E616E00696E6658
:1045FC00006F76660025252E2564580053503A002E
:10460C0020442000204C2000454F46002028002943
:10461C0020636F6C3A0020706F733A004E4557560A
:10462C0041523A204000204465663A200020526FE7
:10463C006F743A20400020503A002E0050555348D9
:10464C00284C2920005055534828442920004E4F0F
:10465C0054004E454741544500504F57004D554C62
:10466C005449504C5900444956494445004144442E
:10467C00005355425452414354001B5B313B33327F
:10468C006D007072696E7400626C696E6B005354CD
:10469C004F5245001B5B313B33366D436F6D706978
:1046AC006C6174696F6E20494E463A1B5B306D002D
:1046BC0020636F6C756D6E3A2000206E6561723AE6
:1046CC0020270027203A0048657861646563696D8E
:1046DC00616C2050726F6772616D3A002C005369E7
:1046EC007A653A2000206279746573004D696372B3
:1046FC006F44504C2042797465636F64653A0020B6
:10470C00416464723A2000204F50436F64653A2034
:10471C0000204D61726B65723A20003B005055537E
:10472C004820005055534856200053544F524520B2
:10473C00400020563A00474F535542204000202B52
:10474C002000203D2000202D200020782000202F4C
:02475C0020003B
:00000001FF
