:100000000C940E020C9436020C9436020C943602B8
:100010000C9436020C9436020C9436020C94360280
:100020000C9436020C9436020C9436020C94360270
:100030000C9436020C9436020C9436020C94360260
:100040000C94FA0B0C9436020C946A0C0C94440C2D
:100050000C9436020C9436020C9436020C94360240
:100060000C9436020C94360207634236B79BD8A72D
:100070001A39685618AEBAAB558C1D3CB7CC5763CD
:10008000BD6DEDFD753EF6177231BF000000803F7B
:1000900008000000BE922449123EABAAAA2ABECD97
:1000A000CCCC4C3E00000080BEABAAAAAA3E000009
:1000B0000000BF000000803F000000000008417801
:1000C000D3BB4387D1133D190E3CC3BD4282AD2B38
:1000D0003E68EC8276BED98FE1A93E4C80EFFFBE30
:1000E00001C4FF7F3F00000000004E414E494E49D1
:1000F0005459494E46CDCCCC3D0AD7233C17B7D1F5
:100100003877CC2B329595E6241FB14F0A0000209A
:10011000410000C84200401C4620BCBE4CCA1B0E19
:100120005AAEC59D742C005E003C3D003C003E3D37
:10013000003E00213D003D3D00786E6F72006E6F05
:1001400072006E616E6400786F72006F7200616E93
:1001500064006E6F74003B00667800737465700015
:10016000746F00646F00666F72007768696C650079
:10017000656C7365007468656E0069660065786516
:10018000630070726F6700656E6400626567696E18
:10019000003D00290028002D002B002F002A000020
:1001A00052656164792E004652454552414D3A20D0
:1001B00000004D6963726F44504C205465726D6944
:1001C0006E616C20302E322E38342D502042792032
:1001D000416C616E204B756269616B0020202020AC
:1001E000202020202020202020202020202020200F
:1001F00020202020202020202020202020202020FF
:10020000202020200020202020202020202020200E
:1002100020202020202020202020202020687474EE
:1002200070733A2F2F7562696B2E746B2F007C5F91
:100230007C5F7C5F7C5F7C5F5F5F7C5F7C207C5F42
:100240005F5F7C5F5F5F5F7C207C5F5F7C20207CEA
:100250005F5F5F5F5F7C007C207C207C207C207C5B
:1002600020205F7C20205F7C202E207C20207C2092
:10027000207C7C2020205F5F7C20207C5F5F200032
:100280007C20202020207C5F7C5F5F5F205F5F5FA1
:10029000205F5F5F7C202020207C207C20205F204E
:1002A000207C20207C20202000205F5F5F5F5F207B
:1002B0005F202020202020202020202020205F5F81
:1002C0005F5F2020205F5F5F5F5F205F5F202020F7
:1002D00020002062797465733B002070726F673A6A
:1002E00020002062797465733B0020737461636B36
:1002F0003A20006572726F72004F6B3B004D69636C
:10030000726F44504C20436F6D70696C6174696FFB
:100310006E3A20005468652063616C63756C61748B
:10032000656420737461636B20666F722074686506
:100330002070726F6772616D2069732062696767F0
:100340006572207468656E2074686520363420629A
:100350007974657320616C6C6F77656400526573A6
:10036000756C743A20004572726F72205374616329
:100370006B20726561636865642030006572726F1E
:10038000723A20696E707574206C656E67687420AF
:100390003E200020090A0D002E303132333435362C
:1003A000373839005F6162636465666768696A6BE4
:1003B0006C706D6E6F7072737475767778797A4140
:1003C00042434445464748494A4B4C504D4E4F5096
:1003D00052535455565758595A30313233343536B2
:1003E000373839005F6162636465666768696A6BA4
:1003F0006C706D6E6F7072737475767778797A4100
:1004000042434445464748494A4B4C504D4E4F5055
:1004100052535455565758595A009C0C11241FBE1C
:10042000CFEFD8E0DEBFCDBF11E0A0E0B1E0ECED52
:10043000F9E302C005900D92A23AB107D9F722E084
:10044000A2EAB1E001C01D92AD3FB207E1F712E0B0
:10045000CEE0D2E004C02197FE010E94951CCD3071
:10046000D107C9F70E94D10C0C94EC1C0C9400002D
:10047000DC012D913C9111972130310541F4139607
:10048000ED91FC91608171818281938108950E9438
:100490004C020E9419180895DC012D913C9111978E
:1004A0002130310529F40E9438020E94B11A0895C2
:1004B0001396ED91FC916081718182819381089501
:1004C0008091DD02882319F081508093DD02089528
:1004D0008091DD02882319F081508093DD02E09144
:1004E000DD02F0E0EE0FFF1FED52FD4F80819181A4
:1004F0009093D2028093D10208952091CB02309143
:10050000CC022817390720F49093CC028093CB02B9
:1005100008958091DD02853088F4E82FF0E0EE0F39
:10052000FF1FED52FD4F2091D1023091D202318355
:1005300020838F5F8093DD0281E0089580E008953D
:10054000AF92BF92CF92DF92EF92FF920F931F93E1
:10055000CF93DF936C017B018B01040F151FEB011F
:100560005E01AE18BF08C017D10759F06991D601D6
:10057000ED91FC910190F081E02DC6010995892B48
:1005800079F7C501DF91CF911F910F91FF90EF9007
:10059000DF90CF90BF90AF900895FC01538D448DB4
:1005A000252F30E0842F90E0821B930B541710F01E
:1005B000CF96089501970895FC01918D828D98172B
:1005C00061F0A28DAE0FBF2FB11D5D968C91928D03
:1005D0009F5F9F73928F90E008958FEF9FEF089534
:1005E000FC01918D828D981731F0828DE80FF11DFD
:1005F000858D90E008958FEF9FEF0895FC01918D18
:10060000228D892F90E0805C9F4F821B91098F7310
:10061000992708958EE292E00E94FE0221E0892B44
:1006200009F420E0822F089580E090E0892B29F0E2
:100630000E940A0381110C9400000895FC01A48D0E
:10064000A80FB92FB11DA35ABF4F2C91848D90E0F4
:1006500001968F739927848FA689B7892C93A089D7
:10066000B1898C91837080648C93938D848D981361
:1006700006C00288F389E02D80818F7D80830895F4
:10068000EF92FF920F931F93CF93DF93EC0181E0E2
:10069000888F9B8D8C8D98131AC0E889F989808189
:1006A00085FF15C09FB7F894EE89FF896083E889BC
:1006B000F98980818370806480839FBF81E090E0AE
:1006C000DF91CF911F910F91FF90EF900895F62E3B
:1006D0000B8D10E00F5F1F4F0F731127E02E8C8DD5
:1006E0008E110CC00FB607FCFACFE889F98980811A
:1006F00085FFF5CFCE010E941E03F1CFEB8DEC0FED
:10070000FD2FF11DE35AFF4FF0829FB7F8940B8F36
:10071000EA89FB8980818062CFCF0F931F93CF93AB
:10072000DF938C01D0E0C0E0F801EC0FFD1F649175
:10073000662341F08EE292E00E944003892B11F083
:100740002196F2CFCE01DF91CF911F910F910895A5
:10075000CF93DF93EC01888D8823B9F0AA89BB89F8
:10076000E889F9898C9185FD03C0808186FD0DC0E3
:100770000FB607FCF7CF8C9185FFF2CF808185FF04
:10078000EDCFCE010E941E03E9CFDF91CF910895F6
:10079000CF93DF93FC01CA010197DB01A80FB91FBA
:1007A0002C91B0E0A0E032813A171B0641F038F0FE
:1007B000C381D481CA0FDB1F18821196F4CF118236
:1007C0001082223009F44EC038F4222369F121301E
:1007D000B1F1DF91CF910895283009F45EC029303E
:1007E00071F12330B1F7A381B481CB01840F951F40
:1007F000EC01229728812C93A381B4812197288131
:1008000011962C93A381B4810497EC0188811296F0
:100810008C93CA0105970380F481E02D680F791F3E
:10082000DB012C912383D5CFCA0102970380F48189
:10083000E02D680F791FEB0128812083CACFC38187
:10084000D481DB01A40FB51F12978C918883CA0154
:1008500003970380F481E02D680F791FDB012C9151
:100860002183B7CFA381B481CB01840F951FEC0105
:10087000229728812C93A381B4810397EC0188816E
:1008800011968C93CA0104970380F481E02D680FC0
:10089000791FDB012C9122839CCFA381B481CB01F2
:1008A000840F951FEC01229728812C93A381B4819A
:1008B0002197288111962C93A381B4810497EC0190
:1008C000888112968C93CA010597A381B481680F21
:1008D000791FEB01288113962C9321E030E03183BE
:1008E000208377CF0F931F93CF93DF93FC018081F9
:1008F0009181DB01A40FB51F0197B9F4928191504A
:100900008D01090F111D97FD1A95AD01461B570B5F
:1009100097FD46C098012A1B3B0BC381D481C20FAF
:10092000D31F88818D939150F0CFC381D4810881EA
:1009300019812A813B8190E080E00F3F110521055C
:10094000310571F06CF00115110581E028073105C2
:100950000CF10115110521053140FCF083E090E018
:10096000282FC381D481C20FD11D27FDDA9538818C
:100970003D932150B0F74F5F5F4F480F591FFB0168
:10098000E40FF51F8083CA010196DF91CF911F917B
:100990000F91089581E090E0E3CF82E090E0E0CF16
:1009A00088E090E0ECCFFC0101900020E9F731975E
:1009B000AF01481B590BBC018EE292E00C94A002DF
:1009C0008F929F92AF92BF920F931F93CF93DF931B
:1009D000CDB7DEB7A1970FB6F894DEBF0FBECDBF7F
:1009E00019A2423008F44AE08E010F5D1F4F842E99
:1009F000912CB12CA12CA50194010E945F19E62F26
:100A0000B901CA01EA30F4F4E05DD801EE938D013A
:100A1000232B242B252B79F790E080E0109719F0F9
:100A2000CD010E94D304A1960FB6F894DEBF0FBE8D
:100A3000CDBFDF91CF911F910F91BF90AF909F904D
:100A40008F900895E95CE1CF8AE691E00C94D3049D
:100A5000CF93DF930E948D03EC010E9424058C0F3D
:100A60009D1FDF91CF910895CF92DF92EF92FF9279
:100A7000CF93DF9397FF1BC06B017C016DE28EE289
:100A800092E00E944003EC0166277727CB016C19A6
:100A90007D098E099F094AE00E94E0048C0F9D1F8A
:100AA000DF91CF91FF90EF90DF90CF9008954AE0D3
:100AB000DF91CF91FF90EF90DF90CF900C94E00406
:100AC000CF93DF9300D0CDB7DEB78DE691E00E94E3
:100AD000D3048091F7029091F802009711F48DEF02
:100AE00092E0BE016F5F7F4F681B790B072E000CF1
:100AF000880B990B0E9434058FE691E00E94D30485
:100B00000F900F90DF91CF910895CF92DF92EF92E7
:100B1000FF920F931F93CF93DF9300D0CDB7DEB733
:100B20008C016B011A8219827C018FEFE81AF80A96
:100B3000C8010E9439198930F1F4C7010E9439199E
:100B400089837801E3E0EE0EF11CC80102960E9451
:100B500039198A8389819A81F60191838083C7013B
:100B60000F900F90DF91CF911F910F91FF90EF9019
:100B7000DF90CF900895F60111821082F0CF1F937D
:100B8000CF93DF93182FEB01CB010E94F1179C014B
:100B900090E0E92FF0E0E217F30738F4EC0FFD1FC7
:100BA000E491E11739F09F5FF4CF80E0DF91CF91BE
:100BB0001F91089581E0FACFEF92FF920F931F9358
:100BC000CF93DF938C017A01EC01C60FD71FF80198
:100BD00001900020E9F73197E01BF10BCE01801B5B
:100BE000910B8E179F0768F4B70189910E94BF058A
:100BF0008111EDCFDF91CF911F910F91FF90EF9079
:100C0000089581E0F7CF2F923F924F925F926F92BB
:100C10007F928F929F92AF92BF92CF92DF92EF928C
:100C2000FF920F931F93CF93DF93CDB7DEB76297F9
:100C30000FB6F894DEBF0FBECDBF8C01CE0101967A
:100C40007C018090CF029090D002C090D102D090D1
:100C5000D202F40101900020E9F73197E819F9096F
:100C6000CE16DF06E8F165E771E0C8010E94C71CF7
:100C7000E1E0F0E0D8015096FC93EE931F97D80185
:100C80001F968D919C91892BE1F2B80180EE92E044
:100C90000E94C71CF801818992899093F202809387
:100CA000F102878590899093F0028093EF0262961B
:100CB0000FB6F894DEBF0FBECDBFDF91CF911F916D
:100CC0000F91FF90EF90DF90CF90BF90AF909F90EB
:100CD0008F907F906F905F904F903F902F900895EE
:100CE000188AD4010D900020E9F7CD0101978819E9
:100CF0009909C816D90608F058C06091D1027091C0
:100D0000D202F7012FE011922A95E9F741E050E075
:100D1000461B570B4C0D5D1D680D791DC7010E94C8
:100D2000DD1C86E091E09A8B898B712C612CB12CB3
:100D3000A12CA989BA892D903D90BA8BA98BF70176
:100D400001900020E9F731972F014E185F08C1018B
:100D50000E94F1174816590609F05AC020E0822F68
:100D600090E08415950508F043C0F101E80FF91FE4
:100D7000E4918E0D9F1DDC018C918E1349C02F5F75
:100D8000EECFA114B10409F0AEC0B889B13029F496
:100D9000D092D202C092D10272CF82E090E0F801EC
:100DA000908B8787D28AC18A6ACFA889A13041F403
:100DB0009093D2028093D102F801928B818B5FCF06
:100DC0006CE671E0C8010E94C71CE2E0F0E0D801C7
:100DD0005096FC93EE931F97F40101900020E9F7E1
:100DE0003197E819F9095296FC93EE93519747CF42
:100DF000FFEFAF1ABF0AD8015296DC92CE925197FC
:100E000050967C926E921F97B701C8010E94C71C32
:100E1000BFEF6B1A7B0AE9E26E16710409F089CF05
:100E20008981712C882329F064EE73E00E94BF054C
:100E3000782EF70101900020E9F73197EE19FF09AC
:100E4000329740F044EA53E061E070E0C7010E944D
:100E5000DC057822772091F0FFEFAF1ABF0AB701C7
:100E6000C8010E94C71CD8015296DC92CE925197BD
:100E7000E4E0F0E05096FC93EE931F9748E953E0CE
:100E800070E060E0C7010E94DC05882391F0FFEF6D
:100E9000AF1ABF0AB701C8010E94C71CD8015296F9
:100EA000DC92CE925197E3E0F0E05096FC93EE9303
:100EB0001F9743E953E070E060E0C7010E94DC0542
:100EC000882309F45ECFFFEFAF1ABF0AB701C8014C
:100ED0000E94C71CD8015296DC92CE925197509630
:100EE0001C921E921F97A88A9FEFC91AD90AF9CEA1
:100EF0000F931F93CF93DF938C01EB0169E0CE0139
:100F00000E944119602FCE0101960E944119612F64
:100F1000CE0102960E944119CE010396DF91CF9136
:100F20001F910F910895CF92DF92EF92FF920F934E
:100F30001F93CF93DF937C016B01C091F302D0919B
:100F4000F40210E000E0209759F0B701CE010E94B2
:100F5000BE1C892BD1F08E010D88DE89C02DF3CF08
:100F600087E190E00E945C14EC01009771F0B701FA
:100F70000E94C71C1E8A1D8AD88ACF8601151105BA
:100F800071F4D093F402C093F302CE01DF91CF91BC
:100F90001F910F91FF90EF90DF90CF900895F8018F
:100FA000D68BC58BF2CF6F927F928F929F92AF922A
:100FB000BF92CF92DF92EF92FF920F931F93CF9346
:100FC000DF93CDB7DEB7CC54D1090FB6F894DEBFAE
:100FD0000FBECDBF8C01E3E19E2E7E012AE3E20E1F
:100FE000F11CF701292D11922A95E9F7AA24A3945F
:100FF000B12C2B96BFAEAEAE2B97C7010E94030655
:101000002B968EAD9FAD2B978330910509F4FFC0D1
:101010008930910509F4A2C1049709F07CC00E94AF
:10102000890247E0C42ED12C882309F476C06E01D2
:1010300037E2C30ED11CF601292D11922A95E9F74A
:10104000BFAAAEAAC6010E9403068EA99FA909974E
:1010500009F0C8C00E946002F80170800E948902F5
:10106000882381F0CE014496FC0111929A94E9F70D
:10107000BCA2ABA20E9403068BA19CA10A9711F50A
:101080000E946802F801B0808B2D91810E947D0240
:10109000C6010E9403068EA99FA90A97E1F5C09098
:1010A000F502D090F602C114D10409F44DC0B70185
:1010B000C6010E94BE1C892B09F446C0F601C588F2
:1010C000D688F1CF0E94680263E1662E9E012F5FF1
:1010D0003F4F590188248394912CC8010E94100B22
:1010E0000E948902882371F2F501262D11922A951A
:1010F000E9F7998A888AC5010E9403068889998937
:101100008A30910509F4BCCF889719F40E946002D7
:10111000E4CF0E946802D12CC12CC601C45BDF4F12
:101120000FB6F894DEBF0FBECDBFDF91CF911F91F8
:101130000F91FF90EF90DF90CF90BF90AF909F9076
:101140008F907F906F900895B718F6018189B81637
:10115000B1F02D968EAD9FAD2D979093F2028093B6
:10116000F1022B968EAD9FAD2B979093F00280935A
:10117000EF02B70180EE92E00E94C71CCCCFC114F1
:10118000D10439F3B11006C0F80180819181019634
:10119000918380830091DE021091DF027801FFEFDE
:1011A000EF1AFF0A67E1C8010E944119F092DF02BD
:1011B000E092DE0269E0C7010E9441196C2DC8016E
:1011C00002960E9441196D2DC80103960E94411993
:1011D0000C5F1F4F1093DF020093DE0284E0C82EE5
:1011E000D12C9BCF0E946802C090F302D090F402F1
:1011F000C114D10409F4C9C0B701C6010E94BE1CC4
:10120000892B09F4C8C0F601C588D688F1CF69E7F3
:1012100071E0C7010E94CE1CF70101900020E9F7A0
:101220003197EE19FF099E012F5F3F4F69018E171D
:101230009F0708F45BC04AE050E070E060E0C7013F
:101240000E94D1164B015C01F801808191810196C9
:10125000918380830091DE021091DF027801FFEF1D
:10126000EF1AFF0A60E0C8010E944119F092DF0204
:10127000E092DE02712C2FEF82169104A104B104DA
:1012800099F094F0772473948114910431E0A306CB
:10129000B10454F033E0732E81149104A10481E071
:1012A000B80614F422E0722E89829A82AB82BC8244
:1012B0000E5F1F4F672DC7010E944119760158012B
:1012C0009FEFA91AB90AF70161917F01C8010E9435
:1012D000411985018E2D8C19781688F7B092DF029E
:1012E000A092DE0293E0C92ED12C17CF70E060E00F
:1012F000C7010E9481154B015C01F8018081918139
:101300000196918380830091DE021091DF027801C3
:10131000FFEFEF1AFF0A60E0C8010E944119F09246
:10132000DF02E092DE0289829A82AB82BC8268E0B0
:10133000C7010E944119780122E0E20EF11C0A5F08
:101340001F4FF60161916F01C7010E944119FFEF24
:10135000EF1AFF0A0E151F05A1F73CCFC8010E9426
:10136000100B6C01892B09F4D6CEF8018081918194
:101370000E947D02C7010E9403062B968EAD9FAD91
:101380002B970A9709F0C7CEC8CE61E070E0C7017D
:101390000E9493076C01F8018081918101969183ED
:1013A00080838091DE029091DF028C010F5F1F4FDE
:1013B00061E00E9441191093DF020093DE02B80140
:1013C000C6010E9478079093DF028093DE0255E009
:1013D000C52ED12CA2CECF92DF92EF92FF920F9327
:1013E0001F93CF93DF93CDB7DEB763970FB6F89413
:1013F000DEBF0FBECDBF8C01CE0101966C0183E133
:10140000F60111928A95E9F781E090E0998B888B3B
:10141000C6010E940306888999898A31910559F588
:10142000C8010E94D3077C01892BC1F1F80180819A
:1014300091810E947D020091DE021091DF0269E03D
:10144000C8010E9441190F5F1F4F1093DF020093E4
:10145000DE020E946002C70163960FB6F894DEBFF9
:101460000FBECDBFDF91CF911F910F91FF90EF90F5
:10147000DF90CF900895089789F4C8010E94D307A0
:101480007C01892B59F0F801808191810E947D02B5
:101490000091DE021091DF0268E0D2CF0E94680264
:1014A000C8010E94D3077C01892BA9F2F801808131
:1014B00091810E947D020E948902882309F1C60160
:1014C0000E940306888999898797B9F4C8010E9408
:1014D000D3077C01892B89F0F801808191810E94DA
:1014E0007D02F80180819181019791838083009131
:1014F000DE021091DF0269E1A3CF0E946802ABCF48
:1015000087E0E82EF12CA7CF8F929F92AF92BF92E7
:10151000CF92DF92EF92FF920F931F93CF93DF93BF
:10152000CDB7DEB763970FB6F894DEBF0FBECDBF61
:101530004C017B016A010E948902882309F469C079
:10154000C6010E94EB098C01892B09F44EC0F601FB
:10155000808191810E947D02F601808191810197B5
:1015600091838083A090DE02B090DF0267E0F5E017
:101570008F16910409F466E0C5010E9441198FEFAE
:10158000A81AB80AB092DF02A092DE020E151F055B
:101590000CF078010E94890207E010E0882329F10D
:1015A000CE01019623E1FC0111922A95E9F721E091
:1015B00030E0398B288B0E9403068889998905972A
:1015C000029750F50E946002A601B70188899989A7
:1015D0000E94840A8C01892B41F0F601808191815F
:1015E0000E947D020E151F05CCF0C80163960FB650
:1015F000F894DEBF0FBECDBFDF91CF911F910F9149
:10160000FF90EF90DF90CF90BF90AF909F908F9022
:10161000089507E010E09BCF0E9468028701E5CFA4
:10162000CF92DF92EF92FF920F931F93CF93DF93AE
:10163000CDB7DEB763970FB6F894DEBF0FBECDBF50
:101640007C010E948902882309F442C0C7010E94DC
:10165000EB098C01892B61F1F701808191810E9456
:101660007D020E94890297E0C92ED12C8823E9F1DE
:10167000CE01019623E1FC0111922A95E9F721E0C0
:1016800030E0398B288B0E94030688899989059759
:10169000029708F074C00E946002A701B80188890F
:1016A00099890E94840A6C01892BA9F410E000E05A
:1016B000C80163960FB6F894DEBF0FBECDBFDF91B1
:1016C000CF911F910F91FF90EF90DF90CF900895F1
:1016D00007E010E0C1CFF701808191810E947D0277
:1016E000C016D1060CF086016801F7018081918156
:1016F0000E947D020E948902882309F446C0CE011F
:10170000019623E1FC0111922A95E9F721E030E0EE
:10171000398B288B0E94030688899989079702973D
:1017200088F50E946002C7010E94100B8C01892B72
:1017300009F4BECFF701808191810E947D02F701FB
:1017400080819181019791838083E090DE02F09007
:10175000DF028889998965E0079709F464E0C70189
:101760000E944119FFEFEF1AFF0AF092DF02E092A8
:10177000DE020C151D050CF06801860199CF0E9450
:101780006802B2CF0E946802F8CF87E0C82ED12C41
:10179000F4CFCF92DF92EF92FF920F931F93CF93EC
:1017A000DF93EC018B010E9438026B017C01C801C0
:1017B0000E9438029B01AC01C701B6010E94EC1ADD
:1017C00021E030E039832883EB81FC816083EB8169
:1017D000FC817183EB81FC818283EB81FC819383AB
:1017E000CE01DF91CF911F910F91FF90EF90DF908D
:1017F000CF9008951F920F920FB60F9211242F933E
:101800003F938F939F93AF93BF9380912A029091C0
:101810002B02A0912C02B0912D023091290223E0DD
:10182000230F2D3758F50196A11DB11D20932902D4
:1018300080932A0290932B02A0932C02B0932D0246
:101840008091250290912602A0912702B091280252
:101850000196A11DB11D8093250290932602A093AD
:101860002702B0932802BF91AF919F918F913F9132
:101870002F910F900FBE0F901F90189526E8230F01
:101880000296A11DB11DD2CF1F920F920FB60F92DB
:1018900011242F933F934F935F936F937F938F9375
:1018A0009F93AF93BF93EF93FF938EE292E00E94DA
:1018B0001E03FF91EF91BF91AF919F918F917F9107
:1018C0006F915F914F913F912F910F900FBE0F90AD
:1018D0001F9018951F920F920FB60F9211242F93FD
:1018E0008F939F93EF93FF93E0913E02F0913F021D
:1018F0008081E0914402F091450282FD1BC09081FD
:10190000809147028F5F8F7320914802821741F0C8
:10191000E0914702F0E0E25DFD4F958F8093470232
:10192000FF91EF919F918F912F910F900FBE0F908C
:101930001F9018958081F4CFEEE2F2E013821282BC
:1019400088EE93E0A0E0B0E084839583A683B7831C
:101950008CE591E09183808385EC90E09587848786
:1019600084EC90E09787868780EC90E0918B808B69
:1019700081EC90E0938B828B82EC90E0958B848B52
:1019800086EC90E0978B868B118E128E138E148EC0
:10199000EBECF2E082E090E0948B838B11A610A632
:1019A0000895CF93DF93CDB7DEB7C954D1090FB6F1
:1019B000F894DEBF0FBECDBF789484B5826084BD3D
:1019C00084B5816084BD85B5826085BD85B5816043
:1019D00085BD80916E00816080936E0010928100C1
:1019E000809181008260809381008091810081607C
:1019F000809381008091800081608093800080913D
:101A0000B10084608093B1008091B00081608093C8
:101A1000B00080917A00846080937A0080917A008F
:101A2000826080937A0080917A00816080937A004E
:101A300080917A00806880937A001092C100E091D2
:101A40003E02F0913F0282E08083E0913A02F09101
:101A50003B021082E0913C02F0913D028FEC8083CA
:101A600010924602E0914202F091430286E08083A8
:101A7000E0914002F0914102808180618083E09199
:101A80004002F0914102808188608083E0914002B1
:101A9000F0914102808180688083E0914002F09162
:101AA000410280818F7D808389EA92E00E9428052F
:101AB00080E892E00E94280587E592E00E942805D0
:101AC0008EE292E00E94280585E092E00E942805BF
:101AD0008CED91E00E94280582EB91E00E942805A0
:101AE00081EB91E00E94280587EA91E00E948D0336
:101AF0009E012F5F3F4F19018091F7029091F802EC
:101B0000009711F48DEF92E0B101681B790B072E5D
:101B1000000C880B990B0E9434050E94240580EA72
:101B200091E00E9428050E94600587E190E00E94F4
:101B30005C148C0182E0D80151968C93519789EC0A
:101B40009BE054969C938E93539781E052968C938E
:101B50006BE771E0C8010E94C71CE091F502F091AB
:101B6000F602B0E0A0E0309729F0DF010588F689A1
:101B7000E02DF9CF109709F09CC11093F602009365
:101B8000F502FE017A962696FFAFEEAF26978EE21B
:101B900092E00E94FE02892B09F47DC68EE292E05B
:101BA0000E94DC02182F8091230290912402803839
:101BB000910508F483C120912202211179C60E9467
:101BC00024058CE793E00E948D034AE060E870E012
:101BD00080E090E00E94E0040E94240581E0809370
:101BE0002202612F8EE292E00E9440031A3021F01F
:101BF0001D3069F60E942405E0912302F091240231
:101C0000EE55FE4F10828091220281111CC36CE6BA
:101C100071E080EE92E00E94C71C1092F2021092D6
:101C2000F10201E010E01093F0020093EF0282EA6B
:101C300091E09093D0028093CF021092D202109242
:101C4000D1021092DD021092CC021092CB021092BF
:101C5000CE021092CD0282E090E09093DF0280935A
:101C6000DE021FA61EA660E00E94411983E090E0FC
:101C70009093DF028093DE0260E00E94411984E0CD
:101C800090E09093DF028093DE0260E00E944119B1
:101C900085E090E09093DF028093DE020E9489024B
:101CA000882309F434C193E1F92E2696EEADFFADF9
:101CB00026972F2D11922A95E9F71AA709A7CE0189
:101CC0004A960E94030689A59AA5049709F017C1B0
:101CD000D1011D92FA94E9F7198B088BC1010E947A
:101CE0000306888999890B9709F009C10E9460024F
:101CF000CE018E960E94100B8C01009711F161E0CD
:101D000070E0049711F070E060E0CE014A960E9406
:101D100093076C018091DE029091DF027C01BFEF9E
:101D2000EB1AFB0A66E10E944119F092DF02E09291
:101D3000DE02B701C6010E9478079093DF0280930C
:101D4000DE028091CD029091CE028138910520F083
:101D500084E193E00E948D038DEF92E00E948D0359
:101D60000115110509F4D6C08091EF029091F0029F
:101D7000019709F0CFC089EF92E00E948D03011511
:101D8000110539F08091EF029091F002019709F46A
:101D9000C4C08FE791E00E94D3046091F10270917A
:101DA000F202072E000C880B990B0E94340589E87B
:101DB00091E00E94D30480EE92E00E94D30482E975
:101DC00091E00E94D3046091EF027091F002072E1F
:101DD000000C880B990B0E943405012B09F433C2C7
:101DE0008091EF029091F002019709F02CC282E0FD
:101DF00090E00E94391923968FAF239783E090E0FB
:101E00000E94391924968FAF249761E070E02496E0
:101E10008EAD9FAD24970E949B1C6C011CAE1DAE25
:101E20001EAE1FAE18AE19AE1AAE1BAE1BAA1CAA70
:101E30001DAA84E08DABECE3F0E0EC0FFD1FFFABDF
:101E4000EEAB1EA61FA618AA88ABCE01C8969AAB09
:101E500089AB22961FAE1EAE229785E0882E912C6C
:101E6000F12CE12C84010F5F1F4FC4010E9439192E
:101E7000883108F03AC4E82FF0E0EF5BF04F0C94A3
:101E8000951CD60FAF10751375133A129312D51215
:101E90002413751375137513751375137513751353
:101EA0007513751375137513751375137513E21088
:101EB0002E1156961C930E93559763CE1F3779F4C7
:101EC0001816190634F06FE78EE292E00E94400384
:101ED0005ECE0197909324028093230282CE2091BC
:101EE000220221117ECE9C012F5F3F4F30932402AE
:101EF000209323028E559E4FDC011C9372CE0E94CC
:101F00006802CE018E960E94100B8C011ACF07E05A
:101F100010E017CF83EF92E030CF0091DE021091F6
:101F2000DF026AE1C8010E9441190F5F1F4F109341
:101F3000DF020093DE022091CB023091CC0245E01B
:101F4000429FC001439F900D11249093CC02809337
:101F5000CB028AEE92E00E948D036091CB027091D9
:101F6000CC0290E080E04AE00E94E00482EE92E041
:101F70000E948D038AED92E00E948D036091DE0243
:101F80007091DF026350710990E080E04AE00E94A6
:101F9000E00482ED92E00E9428056091CB0282E08D
:101FA00090E00E9441191CCF48015CCF5401F2E03F
:101FB000AF0EB11CC8010E94391930E020E09DA984
:101FC0009217130649F040F0EEA9FFA9E20FF31FA4
:101FD00010822F5F3F4FF3CF1CAA1BAA823009F457
:101FE00078C0B0F4882309F453C0813009F45CC090
:101FF00024968EAD9FAD2497E816F90608F0C6C169
:10200000A701B601CE01C3960E9472047C01BEC135
:10201000883009F47BC0893039F1833049F70EA943
:102020001FA9C5010E943919D8018C930EA91FA9B7
:10203000C40103960E943919F80181830EA91FA9D2
:10204000C40104960E943919D80112968C93540148
:10205000B6E0AB0EB11C0EA91FA9C40105960E94E3
:102060003919F8018383C4CF0EA91FA9C5010E94A5
:102070003919D8018C935401B4E0AB0EB11C0EA9F0
:102080001FA9C40103960E943919F8018183B0CFBA
:10209000F3E08F0E911C0EA91FA9C5010E943919EA
:1020A000D8018C935401A4CF0EA91FA9C5010E9489
:1020B0003919F80180835401F4E0AF0EB11C0EA968
:1020C0001FA9C40103960E943919D80111968C9357
:1020D0008FCF0EA91FA9C5010E943919F80180836D
:1020E0000EA91FA9C40103960E943919D80111969F
:1020F0008C935401B5E0AB0EB11C0EA91FA9C4010D
:1021000004960E943919F801828372CF0EA91FA983
:10211000C5010E943919D8018C930EA91FA9C401C9
:1021200003960E943919F80181830EA91FA9C401E1
:1021300004960E943919D80112968C935401B6E086
:10214000AB0EB11C0EA91FA9C40105960E94391936
:10215000F801838321E030E03CAB2BAB49CFBE01DB
:10216000605C7F4FC8010E9485058C012296EEAD10
:10217000FFAD2297878590899CAB8BABAEA9BFA999
:1021800081898C93EEA9FFA92296AEADBFAD2297AF
:1021900052968C9181832296EEADFFAD2297AEA927
:1021A000BFA9838912968C93AEA9BFA9848913967F
:1021B0008C9324968EAD9FAD2497E816F906C0F552
:1021C000A70130C0BE01605C7F4FC8010E94850539
:1021D0008C012496AEACBFAC2497C701AE14BF04EB
:1021E00030F0A701B601CE01C3960E94C803AEA984
:1021F000BFA92296EEADFFAD22972C91218B1196AF
:102200002C911197228B12962C911297238B139657
:102210002C91248B2BA93CA9308B27878A159B05F1
:1022200030F4AC01B601CE01C3960E9472047C0169
:10223000013091E0190708F05EC2F7FEB5CE86E6E0
:1022400093E00E9428050E9424050E9460051092D8
:102250002402109223021092220299CC1A8219822F
:10226000540132E0A30EB11CC8010E94391910E0DC
:1022700000E0893079F4C5010E943919898354013D
:1022800084E0A80EB11CC40103960E9439198A8308
:1022900009811A8124964EAC5FAC24972696AEAD88
:1022A000BFAD2697E4E11D92EA95E9F787E1D101F8
:1022B0001D928A95E9F784E08B8388878D878A8BC6
:1022C0008F8BEAE1F0E0EC0FFD1FFD83EC832EE144
:1022D00030E02C0F3D1F3A87298782E290E08C0F77
:1022E0009D1F9F878E87A6E2B0E0AC0FBD1FBC8B01
:1022F000AB8BEAE2F0E0EC0FFD1FF98FE88FD8011D
:1023000051968C91815027968FAF27973101E5E048
:102310008E02600C711C1124912C812C2796FFAD2C
:102320002797F7FD1DC04E145F0478F025E0289D27
:10233000C001299D900D1124A701B601D301A81B4E
:10234000B90BCD010E94C8037C012796BFAD27972A
:10235000B1502796BFAF2797EFEF8E1A9E0ADECFB8
:10236000D80152968C915297882361F051968C91A6
:102370005197823009F45AC058F4882311F1813002
:1023800009F44EC0E414F50408F43ACE850150CFA8
:10239000843009F460C008F452C0853099F7539630
:1023A000ED91FC918E010B5E1F4F9E01205F3F4F10
:1023B000AE01455F5F4FBE016A5F7F4FC101099566
:1023C00004C05396ED91FC9109950097D9F2FC0158
:1023D000208131813CAB2BAB22812DAB4EA95FA973
:1023E000A381B4812C91DA012C934EA95FA9A3811A
:1023F000B48111962C91FA0121834EA95FA9FC01A9
:10240000A381B48112962C91DA0112962C932EA9F5
:102410003FA9A381B48113968C91F9018383B2CF34
:102420005396ED91FC91C1010995CFCF5396ED9153
:10243000FC91BE016A5F7F4FC1010995C6CF5396DB
:10244000ED91FC91AE01455F5F4FBE016A5F7F4F2A
:10245000C1010995BACF5396ED91FC919E01205F81
:102460003F4FAE01455F5F4FBE016A5F7F4FC101C5
:102470000995ABCF2496AEACBFAC2497AE14BF0485
:1024800088F0A701B601CE01C3960E94C8037C0163
:10249000A816B90638F0AC01B601CE018E960E949E
:1024A000C8037C018EA89FA88BA99CA9019721F045
:1024B0008EA59FA50197B9F4CE018E960E94380291
:1024C0002B013C01CE01C3960E9438029B01AC0156
:1024D000C301B2010E94D31921E030E03CAB2BAB29
:1024E000D4016C93A7C0CE018E960E944C022B01A2
:1024F0003C01CE01C3960E944C02460E571E681E38
:10250000791E1CAA1BAAF4014082EEA9FFA95182E0
:10251000EEA9FFA96282EEA9FFA97382EA14FB0467
:1025200008F086CE4DCE2496AEACBFAC2497AE1448
:10253000BF0488F0A701B601CE01C3960E94C8036C
:102540007C01A816B90638F0AC01B601CE018E9612
:102550000E94C8037C018EA89FA88BA99CA9019703
:1025600021F08EA59FA5019789F4CE018E960E9439
:1025700038022B013C01CE01C3960E9438029B0118
:10258000AC01C301B2010E94D219A6CFCE018E9632
:102590000E944C022B013C01CE01C3960E944C02CA
:1025A000461A570A680A790AACCF2496AEACBFAC7B
:1025B0002497AE14BF0488F0A701B601CE01C396DC
:1025C0000E94C8037C01A816B90638F0AC01B60118
:1025D000CE018E960E94C8037C018EA89FA88BA96D
:1025E0009CA9019721F08EA59FA5019789F4CE01A2
:1025F0008E960E9438022B013C01CE01C3960E94A8
:1026000038029B01AC01C301B2010E94781864CF6B
:10261000CE018E960E944C022B013C01CE01C39646
:102620000E944C02A30192010E944F191CAA1BAAEE
:10263000F4016083EEA9FFA97183EEA9FFA982834B
:10264000EEA9FFA993836ACF2496AEACBFAC2497C2
:10265000AE14BF0488F0A701B601CE01C3960E9454
:10266000C8037C01A816B90638F0AC01B601CE014A
:102670008E960E94C8037C018EA89FA88BA99CA956
:10268000019721F08EA59FA5019789F4CE018E9622
:102690000E9438022B013C01CE01C3960E943802F1
:1026A0009B01AC01C301B2010E943F1A15CFCE01BC
:1026B0008E960E944C022B013C01CE01C3960E94D3
:1026C0004C029B01AC01C301B2010E94761C1CAA02
:1026D0001BAAF4012083EEA9FFA93183EEA9FFA96B
:1026E0004283EEA9FFA9538319CF0130100719F0D7
:1026F0008A3109F059CC8DE593E00E948D03249630
:102700008EAD9FAD24978E159F0530F0A701B601C1
:10271000CE01C3960E94C803EEA9FFA980809180D4
:10272000A280B3808BA99CA9019709F0AFC02401B6
:102730003501A5019401C501B4010E943C1B882309
:1027400041F086E991E00E94D304C6010E94F8148A
:102750007ACDD501C401BF772A968CAF9DAFAEAFBD
:10276000BFAF2A972FEF3FEF4FE75FE7BC01CD01E7
:102770000E943C1B811111C02FEF3FEF4FE75FE735
:102780002A966CAD7DAD8EAD9FAD2A970E94121832
:1027900018161CF48AE991E0D6CF2FEF3FEF4FE7F0
:1027A0005FE4C501B4010E94E71A18161CF48EE913
:1027B00091E0C9CF2FEF3FEF4FE75FECC501B401C8
:1027C0000E94121887FDF3CF20E030E0A901C50177
:1027D000B4010E94121887FF0BC06DE28EE292E0F6
:1027E0000E9440032401350177FA709477F87094C1
:1027F0002AE037ED43EA5BE3C301B2010E94D3193B
:102800002B013C010E94B81A4B015C010E94171871
:102810009B01AC01C301B2010E94D2192B013C0102
:102820004AE0C501B4010E94E0046EE28EE292E04B
:102830000E94400320E030E040E251E4C301B201D5
:102840000E9478182B013C010E94B81A4B01B12C50
:10285000A12C4AE0C501B4010E94E004C501B40105
:102860000E9417189B01AC01C301B2010E94D2194A
:1028700020E030E040E251E40E9478180E94B81A4B
:1028800090E080E04AE00E94E0045FCFC501B4011F
:102890000E9434055ACF80E090E0892B09F477C973
:1028A0000E940A03882309F472C90E9400006FC9BC
:1028B0001F3709F096C904CB0F931F93CF93DF9373
:1028C0008230910510F482E090E0E091F902F091FD
:1028D000FA0230E020E0B0E0A0E0309799F4211552
:1028E000310509F44AC0281B390B24303105D8F5CD
:1028F0008A819B816115710589F1FB019383828334
:10290000FE0111C04081518102811381481759078E
:10291000E0F04817590799F4109761F012960C935C
:10292000129713961C933296CF01DF91CF911F918E
:102930000F9108950093F9021093FA02F4CF211534
:10294000310551F04217530738F0A901DB019A0114
:10295000BD01DF01F801C1CFEF01F9CF9093FA0279
:102960008093F902CDCFFE01E20FF31F8193919383
:102970002250310939832883D7CF2091F702309133
:10298000F802232B41F4209102013091030130938E
:10299000F8022093F70220910001309101012115E6
:1029A000310541F42DB73EB7409104015091050126
:1029B000241B350BE091F702F091F802E217F307C0
:1029C000A0F42E1B3F0B2817390778F0AC014E5F9F
:1029D0005F4F2417350748F04E0F5F1F5093F802E2
:1029E0004093F702819391939FCFF0E0E0E09CCF7A
:1029F000CF93DF930097E9F0FC01329713821282A4
:102A0000A091F902B091FA02ED0130E020E01097B8
:102A1000A1F420813181820F931F2091F702309120
:102A2000F8022817390709F061C0F093F802E09323
:102A3000F702DF91CF910895EA01CE17DF07E8F59D
:102A40004A815B819E0141155105B1F7E901FB8384
:102A5000EA8349915991C40FD51FEC17FD0761F422
:102A6000808191810296840F951FE9019983888363
:102A7000828193819B838A83F0E0E0E012968D91BE
:102A80009C9113970097B9F52D913C911197CD0129
:102A90000296820F931F2091F7023091F8022817B7
:102AA000390739F6309751F51092FA021092F9026F
:102AB000B093F802A093F702BCCFD383C2834081C6
:102AC0005181840F951FC817D90761F44E5F5F4F7E
:102AD00088819981480F591F518340838A819B8146
:102AE000938382832115310509F0B0CFF093FA0268
:102AF000E093F9029ECFFD01DC01C0CF1382128268
:102B0000D7CFB0E0A0E0E7E8F5E10C9492195C01C2
:102B10007B016115710519F0DB018D939C93850193
:102B20000F5F1F4FF501D0818D2F90E00E94E817B5
:102B30006C01892BB9F5DD32B9F50F5F1F4FD50157
:102B40001196DC91C1E05801F1E0AF1AB10843E001
:102B500050E062EF70E0C5010E94FA17892B69F519
:102B6000680182E0C80ED11C45E050E06DEE70E0D7
:102B7000C6010E94FA17892B21F4680197E0C90E5B
:102B8000D11CE114F10419F0D701CD92DC9260E080
:102B900070E080E89FEFC111FFC060E070E080E866
:102BA0009FE7FAC05801BBCFDB3229F485010E5FE5
:102BB0001F4FF501D181C0E0C6CF43E050E06AEE7F
:102BC00070E0C5010E94FA17892BE9F0F80110E0C6
:102BD00000E020E030E0A9015F01B0ED8B2E8D0E0A
:102BE00089E08815C8F19C2E689491F88C2F887024
:102BF000C2FF16C0811102C00F5F1F4F3196D50171
:102C0000DC91C92DE9CFE114F10429F00E5F1F4FCB
:102C1000F7011183008360E070E080EC9FE7BCC0A7
:102C2000882311F001501109A5E0B0E00E9481193C
:102C30009B01AC01220F331F441F551F280D311D6E
:102C4000411D511D283999E93907490799E159076B
:102C5000A8F2C6609C2ED2CFAEEF8A1206C0C3FD8A
:102C60003CC09C2E689493F8C9CFDF7DD534A9F57C
:102C700080818D3239F4C061DF011296818162E07A
:102C800070E006C0DF018B32C1F3119661E070E0A5
:102C900080535D01A61AB70A8A30F8F4E0E8CE1630
:102CA000ECE0DE065CF4B601660F771F660F771F57
:102CB000C60ED71ECC0CDD1CC80ED11C5D01FFEF6B
:102CC000AF1ABF0A8C9180538A30A8F1C4FF03C0A9
:102CD000D194C194D1080C0D1D1DC1FF09C0E11490
:102CE000F10431F081E0A81AB108D701AD92BC928D
:102CF000CA01B9010E941718C370C33009F4905873
:102D00004B015C0120E030E0A9010E9412188823E9
:102D100009F440C0C1E2D1E017FF05C0119501954B
:102D20001109C9E0D1E06E01B8E1CB1AD10880E207
:102D3000E82EF12C0FC0D501B1CFFE0125913591C0
:102D4000459154910E191F09C501B4010E947818CC
:102D50004B015C01D501C4010E151F0574F72497C2
:102D6000F594E794CC16DD06A9F78A2F880F8B2FF0
:102D7000881F8F3F49F020E030E0A901C501B40170
:102D80000E941218811106C082E290E09093FC022A
:102D90008093FB02C501B401CDB7DEB7ECE00C9423
:102DA000AE19B0E0A0E0E7EDF6E10C948D195C01FE
:102DB0006B017A016115710519F0FB019183808324
:102DC000E114F10451F0C7010297839730F040E01D
:102DD00030E020E090E072C05E01E5012196F5014F
:102DE0001081812F90E00E94E817892BA9F71D32EE
:102DF00001F52196F501118101E0E114F10409F4D6
:102E0000DAC0F0E1EF16F10409F082C0103359F492
:102E100088818F7D883509F076C0198122960260FD
:102E2000F0E1EF2EF12C812C912CA12C88E0B82E12
:102E30008CC01B3221F4E5012296F501118100E0DE
:102E4000DCCFEAE0EE16F10409F4BBC0F0E1EF16C6
:102E5000F10409F06DC0E7CF78E0E72EF12C812C6A
:102E6000912CA12C60E1B62E70C03FE9310F3A31B0
:102E700028F439EA332E80C021E09AC0302F317017
:102E8000C114D10431F0222309F12197F601D18335
:102E9000C08327FF21C060E070E080E090E831113E
:102EA00004C06FEF7FEF8FEF9FE722E230E03093B7
:102EB000FC022093FB02462F372F282F642F732FFD
:102EC000822FCDB7DEB7E1E10C94A91901FF04C050
:102ED0002297F601D183C083332341F090958095EA
:102EE000709561957F4F8F4F9F4FE5CF97FFE3CF51
:102EF00082E290E09093FC028093FB026FEF7FEF01
:102F00008FEF9FE7D8CF10E3E114F10409F4A4CFC9
:102F100028E0E216F10409F4A2CF0CF092CF812C44
:102F2000912CA12CE0E4BE2E82E0E816F10469F0B9
:102F300060E070E080E090E897010F2C000C440BFB
:102F4000550B0E945F1949015A0120E060E070E0D2
:102F5000CB0127010F2C000C66087708FE0150ED0D
:102F6000352E310E39E0331540F43FEB310F3A3155
:102F700008F07BCF49EC342E310E3E141F040CF0C8
:102F80007DCF27FD15C086169706A806B90678F0EE
:102F9000A30192010E944F19630D711D811D911DA6
:102FA00061307105810520E8920708F465CF2FEFA5
:102FB00021961081D3CF103309F42ACF2AE0E22ED4
:102FC000F12C9CEC892E982CA82C9CE0B92EBDCF1E
:102FD00091110C94E518803219F089508550C8F78A
:102FE0000895FC0105900020E9F7809590958E0FDB
:102FF0009F1F0895FB01DC014150504088F08D91E6
:1030000081341CF08B350CF4805E659161341CF0CA
:103010006B350CF4605E861B611171F3990B08959A
:10302000881BFCCF0E94541808F481E00895E894AE
:1030300009C097FB3EF490958095709561957F4F00
:103040008F4F9F4F9923A9F0F92F96E9BB279395AE
:10305000F695879577956795B795F111F8CFFAF4BE
:10306000BB0F11F460FF1BC06F5F7F4F8F4F9F4FEF
:1030700016C0882311F096E911C0772321F09EE84D
:10308000872F762F05C0662371F096E8862F70E0B3
:1030900060E02AF09A95660F771F881FDAF7880F8D
:1030A0009695879597F90895990F0008550FAA0BE3
:1030B000E0E8FEEF16161706E807F907C0F012164B
:1030C0001306E407F50798F0621B730B840B950B4E
:1030D00039F40A2661F0232B242B252B21F40895A3
:1030E0000A2609F4A140A6958FEF811D811D089540
:1030F0000E948B180C94FF180E94F11838F00E945F
:10310000F81820F0952311F00C94E8180C94EE18A0
:1031100011240C9433190E94101970F3959FC1F378
:10312000950F50E0551F629FF001729FBB27F00D75
:10313000B11D639FAA27F00DB11DAA1F649F6627CA
:10314000B00DA11D661F829F2227B00DA11D621F19
:10315000739FB00DA11D621F839FA00D611D221FD3
:10316000749F3327A00D611D231F849F600D211DB7
:10317000822F762F6A2F11249F5750409AF0F1F03A
:1031800088234AF0EE0FFF1FBB1F661F771F881FA3
:1031900091505040A9F79E3F510580F00C94E818DB
:1031A0000C9433195F3FE4F3983ED4F386957795FA
:1031B0006795B795F795E7959F5FC1F7FE2B880F49
:1031C000911D9695879597F90895992788270895D1
:1031D00097F99F6780E870E060E008959FEF80ECCA
:1031E000089500240A94161617061806090608956D
:1031F00000240A9412161306140605060895092ED3
:103200000394000C11F4882352F0BB0F40F4BF2B41
:1032100011F460FF04C06F5F7F4F8F4F9F4F089581
:1032200057FD9058440F551F59F05F3F71F0479577
:10323000880F97FB991F61F09F3F79F0879508955C
:10324000121613061406551FF2CF4695F1DF08C07B
:10325000161617061806991FF1CF86957105610598
:1032600008940895E894BB2766277727CB0197F940
:103270000895F999FECF92BD81BDF89A992780B53E
:103280000895262FF999FECF1FBA92BD81BD20BDAA
:103290000FB6F894FA9AF99A0FBE01960895DB01D9
:1032A0008F939F930E948119BF91AF91A29F800D30
:1032B000911DA39F900DB29F900D11240895A1E23E
:1032C0001A2EAA1BBB1BFD010DC0AA1FBB1FEE1FA0
:1032D000FF1FA217B307E407F50720F0A21BB30BEB
:1032E000E40BF50B661F771F881F991F1A9469F767
:1032F00060957095809590959B01AC01BD01CF01C3
:1033000008950E94C319A59F900DB49F900DA49F8E
:10331000800D911D112408952F923F924F925F923C
:103320006F927F928F929F92AF92BF92CF92DF92D5
:10333000EF92FF920F931F93CF93DF93CDB7DEB73A
:10334000CA1BDB0B0FB6F894DEBF0FBECDBF0994CE
:103350002A88398848885F846E847D848C849B8425
:10336000AA84B984C884DF80EE80FD800C811B8133
:10337000AA81B981CE0FD11D0FB6F894DEBF0FBE62
:10338000CDBFED010895A29FB001B39FC001A39FDF
:10339000700D811D1124911DB29F700D811D11248E
:1033A000911D08955058BB27AA270E94EA190C9432
:1033B000FF180E94F11838F00E94F81820F039F434
:1033C0009F3F19F426F40C94EE180EF4E095E7FBF9
:1033D0000C94E818E92F0E94101958F3BA176207E5
:1033E00073078407950720F079F4A6F50C94321939
:1033F0000EF4E0950B2EBA2FA02D0B01B901900110
:103400000C01CA01A0011124FF27591B99F0593F53
:1034100050F4503E68F11A16F040A22F232F342F9B
:103420004427585FF3CF469537952795A795F040E9
:103430005395C9F77EF41F16BA0B620B730B840BFE
:10344000BAF09150A1F0FF0FBB1F661F771F881FB6
:10345000C2F70EC0BA0F621F731F841F48F487950E
:1034600077956795B795F7959E3F08F0B0CF939500
:10347000880F08F09927EE0F9795879508950E9479
:10348000531A0C94FF180E94F81858F00E94F11873
:1034900040F029F45F3F29F00C94E81851110C9486
:1034A00033190C94EE180E94101968F39923B1F3A4
:1034B000552391F3951B550BBB27AA27621773075A
:1034C000840738F09F5F5F4F220F331F441FAA1FEE
:1034D000A9F335D00E2E3AF0E0E832D091505040AA
:1034E000E695001CCAF72BD0FE2F29D0660F771F58
:1034F000881FBB1F261737074807AB07B0E809F03E
:10350000BB0B802DBF01FF2793585F4F3AF09E3FC2
:10351000510578F00C94E8180C9433195F3FE4F3EC
:10352000983ED4F3869577956795B795F7959F5F05
:10353000C9F7880F911D9695879597F90895E1E051
:10354000660F771F881FBB1F621773078407BA07B0
:1035500020F0621B730B840BBA0BEE1F88F7E0950B
:1035600008950E94B81A6894B1110C943319089503
:103570000E94181988F09F5798F0B92F9927B751D2
:10358000B0F0E1F0660F771F881F991F1AF0BA9507
:10359000C9F714C0B13091F00E943219B1E008951A
:1035A0000C943219672F782F8827B85F39F0B93F0C
:1035B000CCF3869577956795B395D9F73EF49095BA
:1035C0008095709561957F4F8F4F9F4F08950E9412
:1035D000541808F48FEF0895FA01EE0FFF1F30968C
:1035E00021053105A1F16115710561F48038BFE352
:1035F0009B0749F168949038810561F08038BFEFEE
:103600009B0741F099234AF5FF3FE105310521056C
:1036100019F1E8940894E795D901AA2329F4AB2F6E
:10362000BE2FF85FD0F310C0FF5F70F4A695E0F7EF
:10363000F73950F019F0FF3A38F49F779F930DD087
:103640000F9007FC9058089546F00C94EE1860E037
:1036500070E080E89FE308954FE79F775F934F9373
:103660003F932F930E94EC1B2F913F914F915F91BD
:103670000E9478180C94491B0E945418880B990BCF
:10368000089529F416F00C94E8180C9432190C944F
:10369000EE180E941819A8F39638A0F707F80F92B1
:1036A000E8942BE33AEA48EB5FE70E948E180F920A
:1036B0000F920F924DB75EB70F920E94341CE8E64E
:1036C000F0E00E947B1B4F915F91EF91FF91E59598
:1036D000EE1FFF1F49F0FE57E0684427EE0F441F1E
:1036E000FA95E1F74195550B0E94AE1B0F9007FE2E
:1036F0000C94A21B0895DF93CF931F930F93FF9217
:10370000EF92DF927B018C01689406C0DA2EEF0104
:103710000E948B18FE01E894A59125913591459161
:103720005591A6F3EF010E94EA19FE019701A80145
:10373000DA9469F7DF90EF90FF900F911F91CF918E
:10374000DF9108959B01AC0160E070E080E89FE3A9
:103750000C943F1A0C94E8180C94681C0E941819D9
:10376000D8F39923C9F3940F511DA3F391505040FE
:1037700094F059F0882332F0660F771F881F91501C
:103780005040C1F79E3F51052CF7880F911D96952B
:10379000879597F908955F3FACF0983E9CF0BB2762
:1037A000869577956795B79508F4B1609395C1F7BD
:1037B000BB0F58F711F460FFE8CF6F5F7F4F8F4F5B
:1037C0009F4FE3CF0C94331916F00C94681C0C94A3
:1037D000EE1868940C94E8180E941819A8F399231D
:1037E000C1F3AEF3DF93CF931F930F93FF92C92FD3
:1037F000DD2788232AF02197660F771F881FDAF7C5
:1038000020E030E040E85FEB9FE3883920F0803E25
:1038100038F021968F770E94D319E0E9F0E004C0D8
:103820000E94D319EDEBF0E00E947B1B8B01BE01DF
:10383000EC01FB2E6F5771097595771F880B990B5B
:103840000E94191828E132E741E35FE30E948B18D8
:10385000AF2D9801AE01FF900F911F91CF91DF9195
:103860000E94EA190C94FF18FA01DC01AA0FBB1F91
:103870009B01AC01BF5728F42227332744275078F7
:1038800020C0B75190F4AB2F00244695379527956B
:10389000011CA395D2F3002071F0220F331F441FA7
:1038A000B395DAF30ED00C94D21961307105A0E80B
:1038B0008A07B94630F49B01AC0166277727882731
:1038C0009078309621F0208331834283538308958A
:1038D0009F3F31F0915020F4879577956795B79584
:1038E000880F911D9695879597F90895052E97FB5A
:1038F0001EF400940E948D1C57FD07D00E945F1992
:1039000007FC03D04EF40C948D1C509540953095D7
:1039100021953F4F4F4F5F4F08959095809570953B
:1039200061957F4F8F4F9F4F0895EE0FFF1F0590BA
:10393000F491E02D09940F931F93CF93DF93869F0B
:103940008001879F100D969F100D1124C8010E94C1
:103950005C14EC01009729F0A80170E060E00E947F
:10396000B71CCE01DF91CF911F910F910895DC011B
:1039700001C06D9341505040E0F70895FB01DC0118
:103980008D91019080190110D9F3990B0895FB01D5
:10399000DC0101900D920020E1F70895DC015D91BA
:1039A000552331F0FB01019005160110E1F7B9F73D
:1039B000809590958A0F9B1F0895FB01DC01415073
:1039C000504048F001900D920020C9F701C01D92AF
:0C39D00041505040E0F70895F894FFCFFC
:1039DC000000FD0280009F019F019F019F019F013C
:1039EC009D019B01990197019501930191018B0117
:1039FC00870182017D017A01750170016A016601FE
:103A0C00630160015B015801560152014E014B01EB
:103A1C00470142013E0139013601330131012E01CA
:103A2C002C01290127012501000000004003A00200
:103A3C00CD02A803FE02DC02F0020D0A00280029C8
:103A4C003E3E3E2000454F46002E00706F77002012
:103A5C00636F6C756D6E3A2000206E6561723A2052
:103A6C00270027203A006E616E00696E66006F7643
:023A7C006600E2
:00000001FF
