:100000000C9479020C94A1020C94A1020C94A1020C
:100010000C94A1020C94A1020C94A1020C94A102D4
:100020000C94A1020C94A1020C94A1020C94A102C4
:100030000C94A1020C94A1020C94A1020C94A102B4
:100040000C94800F0C94A1020C94F00F0C94CA0F26
:100050000C94A1020C94A1020C94A1020C94A10294
:100060000C94A1020C94A1024E414E494E495459A0
:10007000494E46CDCCCC3D0AD7233C17B7D1387773
:10008000CC2B329595E6241FB14F0A000020410089
:1000900000C84200401C4620BCBE4CCA1B0E5AAED3
:1000A000C59D742C005E003C3D003C003E3D003E82
:1000B00000213D003D3D00786E6F72006E6F720052
:1000C0006E616E6400786F72006F7200616E640022
:1000D0006E6F74003B006678007374657000746F17
:1000E00000646F00666F72007768696C6500656C0C
:1000F0007365007468656E00696600657865630005
:1001000070726F6700656E6400626567696E003DBE
:1001100000290028002D002B002F002A00000000DD
:100120000000240027002A0000000000250028000D
:100130002B00040404040404040402020202020268
:10014000030303030303010204081020408001029B
:10015000040810200102040810200000000800021A
:1001600001000003040700000000000000005265C9
:100170006164792E004652454552414D3A200000B7
:100180000000002020202020201B5B313B37326DF7
:100190002D4D6963726F44504C205465726D696EC9
:1001A000616C204D6963726F636F6D7075746572F9
:1001B0002053797374656D20302E352E38322D46DC
:1001C0004D432028632920416C616E204B75626984
:1001D000616B2D1B5B306D00202020202020202013
:1001E000202020202020202020202020202020200F
:1001F00020202020202020202020202020202020FF
:1002000020202020202020202020202020202020EE
:1002100020202000202020202020202020202020FE
:1002200020202020202020202020202020202020CE
:1002300020202020202020202020201B5B343B3148
:10024000306D68747470733A2F2F4D6963726F4408
:10025000504C2E43462F1B5B306D00202020202069
:1002600020202020202020202020202020207C5FF3
:100270007C5F7C5F7C5F7C5F5F5F7C5F7C207C5F02
:100280005F5F7C5F5F5F5F7C207C5F5F7C20207CAA
:100290005F5F5F5F5F7C00202020202020202020E7
:1002A000202020202020202020207C207C207C203A
:1002B0007C207C20205F7C20205F7C202E207C20E6
:1002C000207C20207C7C2020205F5F7C20207C5FA5
:1002D0005F200020202020202020202020202020FF
:1002E0002020202020207C20202020207C5F7C5F7C
:1002F0005F5F205F5F5F205F5F5F7C202020207C4E
:10030000207C20205F20207C20207C2020200020BA
:1003100020202020202020202020202020202020DD
:100320002020205F5F5F5F5F205F20202020202053
:10033000202020202020205F5F5F5F2020205F5F43
:100340005F5F5F205F5F202020200020627974655E
:10035000732E1B5B306D002070726F673A20002097
:1003600062797465732E0020737461636B3A2000A8
:100370001B5B313B33316D4572726F723A001B5B10
:10038000313B33326D4F6B2E004D6963726F4450B9
:100390004C20436F6D70696C6174696F6E3A200018
:1003A0001B5B313B33316D5468652063616C637551
:1003B0006C6174656420737461636B20666F722076
:1003C0007468652070726F6772616D206973206256
:1003D0006967676572207468656E20746865203689
:1003E0003420627974657320616C6C6F7765641B6F
:1003F0005B306D004D6963726F44504C20566972DA
:100400007475616C204D616368696E65204C61751F
:100410006E6368696E673A00526573756C743A2052
:10042000001B5B313B33316D4572726F7220537428
:1004300061636B207265616368656420302E1B5BAD
:10044000306D001B5B313B33316D4572726F723A18
:1004500020696E707574206C656E676874203E202C
:10046000005055534856200020090A0D002E303107
:100470003233343536373839005F6162636465661C
:100480006768696A6B6C706D6E6F70727374757685
:100490007778797A4142434445464748494A4B4C2C
:1004A000504D4E4F5052535455565758595A30315B
:1004B0003233343536373839005F616263646566DC
:1004C0006768696A6B6C706D6E6F70727374757645
:1004D0007778797A4142434445464748494A4B4CEC
:1004E000504D4E4F5052535455565758595A00007C
:1004F000221011241FBECFEFD8E0DEBFCDBF13E026
:10050000A0E0B1E0E6E6F5E402C005900D92A2306D
:10051000B107D9F724E0A2E0B3E001C01D92AD35E8
:10052000B207E1F712E0C9E7D2E004C02197FE016B
:100530000E94B91FC837D107C9F70E9457100C9401
:10054000B1220C940000DC012D913C9111972130D7
:10055000310541F41396ED91FC91608171818281A6
:10056000938108950E94B7020E94C21C0895DC0185
:100570002D913C9111972130310529F40E94A3025D
:100580000E945A1F08951396ED91FC91608171812C
:1005900082819381089520912B0430912C04281797
:1005A000390720F490932C0480932B0408958091B4
:1005B0003D04853088F4E82FF0E0EE0FFF1FED5C7E
:1005C000FB4F2091310430913204318320838F5FBF
:1005D00080933D0481E0089580E00895AF92BF923A
:1005E000CF92DF92EF92FF920F931F93CF93DF93FF
:1005F0006C017B018B01040F151FEB015E01AE182E
:10060000BF08C017D10759F06991D601ED91FC914F
:100610000190F081E02DC6010995892B79F7C5017C
:10062000DF91CF911F910F91FF90EF90DF90CF90CE
:10063000BF90AF900895CF93DF93EC010E94A30287
:10064000CE01DF91CF910895FC01538D448D252F6C
:1006500030E0842F90E0821B930B541710F0CF965C
:10066000089501970895FC01918D828D981761F08E
:10067000A28DAE0FBF2FB11D5D968C91928D9F5FA5
:100680009F73928F90E008958FEF9FEF0895FC0184
:10069000918D828D981731F0828DE80FF11D858D37
:1006A00090E008958FEF9FEF0895FC01918D228DCA
:1006B000892F90E0805C9F4F821B91098F7399274F
:1006C00008958EE893E00E94550321E0892B09F4F8
:1006D00020E0822F089580E090E0892B29F00E948D
:1006E000610381110C9400000895FC01A48DA80FF2
:1006F000B92FB11DA35ABF4F2C91848D90E0019664
:100700008F739927848FA689B7892C93A089B18983
:100710008C91837080648C93938D848D981306C024
:100720000288F389E02D80818F7D80830895EF9288
:10073000FF920F931F93CF93DF93EC0181E0888F9B
:100740009B8D8C8D98131AC0E889F989808185FF6B
:1007500015C09FB7F894EE89FF896083E889F9890D
:1007600080818370806480839FBF81E090E0DF910F
:10077000CF911F910F91FF90EF900895F62E0B8D62
:1007800010E00F5F1F4F0F731127E02E8C8D8E111D
:100790000CC00FB607FCFACFE889F989808185FF84
:1007A000F5CFCE010E947503F1CFEB8DEC0FFD2F3D
:1007B000F11DE35AFF4FF0829FB7F8940B8FEA893F
:1007C000FB8980818062CFCF0F931F93CF93DF93FC
:1007D0008C01D0E0C0E0F801EC0FFD1F64916623AE
:1007E00041F08EE893E00E949703892B11F0219647
:1007F000F2CFCE01DF91CF911F910F910895CF934A
:10080000DF93EC01888D8823B9F0AA89BB89E88938
:10081000F9898C9185FD03C0808186FD0DC00FB6DE
:1008200007FCF7CF8C9185FFF2CF808185FFEDCF5C
:10083000CE010E947503E9CFDF91CF910895CF9348
:10084000DF93FC01CA010197DB01A80FB91F2C91AE
:10085000B0E0A0E032813A171B0641F038F0C381C6
:10086000D481CA0FDB1F18821196F4CF1182108237
:10087000223009F44EC038F4222369F12130B1F15D
:10088000DF91CF910895283009F45EC0293071F1CD
:100890002330B1F7A381B481CB01840F951FEC0104
:1008A000229728812C93A381B481219728811196C6
:1008B0002C93A381B4810497EC01888112968C93C8
:1008C000CA0105970380F481E02D680F791FDB01D1
:1008D0002C912383D5CFCA0102970380F481E02DA8
:1008E000680F791FEB0128812083CACFC381D4818F
:1008F000DB01A40FB51F12978C918883CA0103975F
:100900000380F481E02D680F791FDB012C91218396
:10091000B7CFA381B481CB01840F951FEC0122973F
:1009200028812C93A381B4810397EC0188811196CF
:100930008C93CA0104970380F481E02D680F791F1E
:10094000DB012C9122839CCFA381B481CB01840F46
:10095000951FEC01229728812C93A381B4812197C4
:10096000288111962C93A381B4810497EC0188818E
:1009700012968C93CA010597A381B481680F791FE1
:10098000EB01288113962C9321E030E03183208302
:1009900077CFCF93DF9300D0CDB7DEB72091570448
:1009A000309158042115310511F42DE534E0CE01C4
:1009B0000196821B930B0F900F90DF91CF910895BA
:1009C0000F931F93CF93DF93EC010E94A3020E9429
:1009D000611F70E0AB014A5B5E4FFA01A491CB014D
:1009E0008E5C9E4FFC0124912223A1F030E0220F67
:1009F000331FF901E25EFE4F05911491F901E85DA4
:100A0000FE4F259134912FB7F894F8013081A32B34
:100A1000A0832FBF665A7E4FFB016491FA01449177
:100A2000FC0194919923B9F0662339F0633019F1F0
:100A3000C0F4613031F1623041F1E92FF0E0EE0FA6
:100A4000FF1FE85DFE4FA591B4918FB7F8949C917C
:100A5000492B4C938FBFCE01DF91CF911F910F9106
:100A600008956730A9F06830C9F0643031F780919B
:100A700080008F7D03C0809180008F7780938000FD
:100A8000DCCF84B58F7784BDD8CF84B58F7DFBCF85
:100A90008091B0008F778093B000CFCF8091B0006D
:100AA0008F7DF9CFFC0101900020E9F73197AF016C
:100AB000481B590BBC018EE893E00C94EE028F9218
:100AC0009F92AF92BF920F931F93CF93DF93CDB7B7
:100AD000DEB7A1970FB6F894DEBF0FBECDBF19A247
:100AE000423008F44AE08E010F5D1F4F842E912C96
:100AF000B12CA12CA50194010E94081EE62FB9017A
:100B0000CA01EA30F4F4E05DD801EE938D01232BA5
:100B1000242B252B79F790E080E0109719F0CD0178
:100B20000E945205A1960FB6F894DEBF0FBECDBF4E
:100B3000DF91CF911F910F91BF90AF909F908F90B9
:100B40000895E95CE1CF009711F00C94520590E014
:100B500080E008958AE691E00C945205CF93DF93EC
:100B60000E94E403EC010E94AA058C0F9D1FDF91F7
:100B7000CF910895CF93DF930E945205EC010E941C
:100B8000AA058C0F9D1FDF91CF9108958DE691E00E
:100B90000E94BA0580913D04882319F0815080930A
:100BA0003D04089589E791E00E94BA0580913D04D3
:100BB000882319F0815080933D04E0913D04F0E0DA
:100BC000EE0FFF1FED5CFB4F80819181909332040B
:100BD000809331040895CF92DF92EF92FF92CF93EA
:100BE000DF9397FF1BC06B017C016DE28EE893E001
:100BF0000E949703EC0166277727CB016C197D09CA
:100C00008E099F094AE00E945F058C0F9D1FDF91AE
:100C1000CF91FF90EF90DF90CF9008954AE0DF9161
:100C2000CF91FF90EF90DF90CF900C945F05BC01C7
:100C3000990F880B990B0C94EB0587E891E00E94C3
:100C4000A3058DEB91E00E94A3050E94C9040E94B8
:100C500017068FE891E00C94A305CF93DF930E94D1
:100C60001706EC010E94AA058C0F9D1FDF91CF9102
:100C70000895BC0190E080E04AE00C945F058F92FB
:100C80009F92AF92BF92CF92DF92EF92FF92CF935B
:100C9000DF936B017C01AC019B010E94951F8823AF
:100CA00071F089E991E0DF91CF91FF90EF90DF90B3
:100CB000CF90BF90AF909F908F900C9452054601BB
:100CC0005701E894B7F82FEF3FEF4FE75FE7C50113
:100CD000B4010E94951F81110DC02FEF3FEF4FE728
:100CE0005FE7C501B4010E94BB1C18161CF48DE916
:100CF00091E0D9CF2FEF3FEF4FE75FE4C701B60197
:100D00000E94901F18161CF481EA91E0CCCF2FEFBF
:100D10003FEF4FE75FECC701B6010E94BB1C87FDA8
:100D2000F3CF20E030E0A901C701B6010E94BB1C4F
:100D3000D0E0C0E087FF0AC06DE28EE893E00E9439
:100D40009703EC01F7FAF094F7F8F0942AE037ED06
:100D500043EA5BE3C701B6010E947C1E4B015C01C4
:100D60000E94611F6B017C010E94C01C9B01AC01B1
:100D7000C501B4010E947B1E4B015C014AE0C70122
:100D8000B6010E945F05C80FD91F6EE28EE893E09E
:100D90000E949703C80FD91F20E030E040E251E4E1
:100DA000C501B4010E94211D4B015C010E94611F1D
:100DB0006B01CB010E943906C80FD91FB60190E024
:100DC00080E00E94C01C9B01AC01C501B4010E94DF
:100DD0007B1E20E030E040E251E40E94211D0E9491
:100DE000611FCB010E9439068C0F9D1FDF91CF91AF
:100DF000FF90EF90DF90CF90BF90AF909F908F903B
:100E00000895CF93DF930E943906EC010E94AA0552
:100E10008C0F9D1FDF91CF910895EF92FF920F935A
:100E20001F93CF93DF93CDB7DEB7C059D1090FB66B
:100E3000F894DEBF0FBECDBFF82EE92E1F9282E0E0
:100E40008F9385EA91E09F938F938E010F5F1F4FE1
:100E50001F930F930E941020EF92FF921F930F9306
:100E600000581F4F1F930F930E941020C8010E942B
:100E7000A3050FB6F894DEBF0FBECDBFC057DF4F3E
:100E80000FB6F894DEBF0FBECDBFDF91CF911F919B
:100E90000F91FF90EF9008958F929F92AF92BF9223
:100EA000CF92DF92EF92FF920F931F93CF93DF9336
:100EB0007C016B015A01E9018CEA91E00E94A305D3
:100EC000C5010E943906AC16BD0608F086C0D701E0
:100ED0008D919C910197A1F580EB91E00E94A30573
:100EE00008E010E0C8010E940D07E601CA0DDB1DF5
:100EF000902E0830110509F04AC0D7011296BC9017
:100F0000BA944E018B0C911CB7FC9A94CE018C19AB
:100F10009D09B7FC5AC0C4018C1B9D0BF701A3812E
:100F2000B481A80FB91F2C9129930380F481E02D7F
:100F3000E80FF91F808190E00E940D07BA94E6CF78
:100F400084EB91E00E94A305D7011396ED91FC91EB
:100F500080819181A281B38110E000E08F3F9105F3
:100F6000A105B10509F00CF4BDCF01E010E0009738
:100F7000E1E0AE07B1050CF4B5CF02E010E0009758
:100F8000A105B1400CF4AECF03E010E0ABCF892D4A
:100F9000092C000C990BF701A381B481A80FB91F8C
:100FA0002C9129930380F481E02DE80FF91F8081B3
:100FB00090E00E940D079A94FFEF9F12E8CF2FEF69
:100FC000A21AB20AC501800F911F5C01AFEFAA1AE5
:100FD000BA0AC80ED91EF6010083C501DF91CF9170
:100FE0001F910F91FF90EF90DF90CF90BF90AF9047
:100FF0009F908F900895CF92DF92EF92FF920F9380
:101000001F93CF93DF9300D0CDB7DEB78C016B0178
:101010001A8219827C018FEFE81AF80AC8010E942F
:10102000E21D8930F1F4C7010E94E21D8983780135
:10103000E3E0EE0EF11CC80102960E94E21D8A83D5
:1010400089819A81F60191838083C7010F900F9067
:10105000DF91CF911F910F91FF90EF90DF90CF9094
:101060000895F60111821082F0CF1F93CF93DF9382
:10107000182FEB01CB010E949A1C9C0190E0E92FF4
:10108000F0E0E217F30738F4EC0FFD1FE491E117ED
:1010900039F09F5FF4CF80E0DF91CF911F910895E9
:1010A00081E0FACFEF92FF920F931F93CF93DF93DC
:1010B0008C017A01EC01C60FD71FF80101900020C6
:1010C000E9F73197E01BF10BCE01801B910B8E17D6
:1010D0009F0768F4B70189910E9435088111EDCF0F
:1010E000DF91CF911F910F91FF90EF90089581E0D4
:1010F000F7CF2F923F924F925F926F927F928F9293
:101100009F92AF92BF92CF92DF92EF92FF920F9396
:101110001F93CF93DF93CDB7DEB762970FB6F894E6
:10112000DEBF0FBECDBF8C01CE0101967C01809049
:101130002F0490903004C0903104D0903204F40118
:1011400001900020E9F73197E819F909CE16DF067A
:1011500008F463C068EB71E0C8010E94EB1FE1E096
:10116000F0E0D8015096FC93EE931F97F801878525
:101170009089892BE1F2B80180E494E00E94EB1F92
:10118000D80151968D919C915297909352048093DF
:1011900051041F968D919C919093500480934F041D
:1011A0008CEF91E00E94A305C8010E94A3058CEB7F
:1011B00091E00E94A305F801878590890E94170697
:1011C0008FEB91E00E94A305D80151968D919C91DF
:1011D0000E94170686EC91E00E94A30580913104DD
:1011E000909132040E94010762960FB6F894DEBF18
:1011F0000FBECDBFDF91CF911F910F91FF90EF9068
:10120000DF90CF90BF90AF909F908F907F906F9026
:101210005F904F903F902F900895188AD4010D90C1
:101220000020E9F7CD01019788199909C816D90658
:1012300008F06AC06091310470913204F7012FE028
:1012400011922A95E9F741E050E0461B570B4C0DEF
:101250005D1D680D791DC7010E94012086E091E0A7
:101260009A8B898B712C612CB12CA12CA989BA89FC
:101270002D903D90BA8BA98BF70101900020E9F7E2
:1012800031972F014E185F08C1010E949A1C481621
:10129000590609F069C020E0822F90E08415950579
:1012A00008F056C0F101E80FF91FE4918E0D9F1D63
:1012B000DC018C918E1358C02F5FEECFA114B104C6
:1012C00009F0BDC0B889B13029F4D0923204C0927F
:1012D00031044CCF90E080E00E942D06E8896E2F0B
:1012E00070E090E080E04AE00E945F050E94AA055D
:1012F000E2E0F0E0D8015096FC93EE931F975296EF
:10130000DC92CE92519732CF2889213051F49093BC
:10131000320480933104D80152969C938E93519756
:1013200025CF6CE671E0C8010E94EB1F82E090E0DF
:10133000F801908B8787F40101900020E9F731973D
:10134000E819F909D8015296FC93EE9351970ECF04
:10135000BFEFAB1ABB0AF801D28AC18A708A6786CE
:10136000B701C8010E94EB1FBFEF6B1A7B0AE9E2CD
:101370006E16710409F07ACF8981712C882329F0C7
:1013800069EB74E00E943508782EF7010190002087
:10139000E9F73197EE19FF09329740F049E754E039
:1013A00061E070E0C7010E9452087822772091F036
:1013B000FFEFAF1ABF0AB701C8010E94EB1FD801A7
:1013C0005296DC92CE925197E4E0F0E05096FC9376
:1013D000EE931F974DE654E070E060E0C7010E9475
:1013E0005208882391F0FFEFAF1ABF0AB701C80176
:1013F0000E94EB1FD8015296DC92CE925197E3E007
:10140000F0E05096FC93EE931F9748E654E070E0AE
:1014100060E0C7010E945208882309F44FCFFFEF14
:10142000AF1ABF0AB701C8010E94EB1FD80152963C
:10143000DC92CE92519750961C921E921F97A88ACA
:10144000FFEFCF1ADF0AEACE0F931F93CF93DF93FC
:101450008C01EB0169E0CE010E94EA1D88E090E07A
:101460000E940D07602FCE0101960E94EA1DC8015F
:1014700099270E940D07612FCE0102960E94EA1D56
:10148000812F90E00E940D078CEF91E00E94BA0539
:10149000CE010396DF91CF911F910F910895CF92C6
:1014A000DF92EF92FF920F931F93CF93DF937C0114
:1014B0006B01C0915304D091540410E000E02097D8
:1014C00059F0B701CE010E94E21F892B91F18E01E4
:1014D0000D88DE89C02DF3CF87E190E00E940519C9
:1014E000EC01009731F1B7010E94EB1F1E8A1D8AA3
:1014F000D88ACF868CEC91E00E94A305CE010E9491
:10150000170686ED91E00E94A305CE010E94A30577
:101510008DED91E00E94A3058091530490915404B5
:101520000E942D060115110571F4D0935404C09347
:101530005304CE01DF91CF911F910F91FF90EF9057
:10154000DF90CF900895F801D68BC58BF2CF6F92C4
:101550007F928F929F92AF92BF92CF92DF92EF9243
:10156000FF920F931F93CF93DF93CDB7DEB7CC5489
:10157000D1090FB6F894DEBF0FBECDBF7C01E3E109
:101580009E2E8E01065C1F4FF801292D11922A957F
:10159000E9F7AA24A394B12C2B96BFAEAEAE2B973D
:1015A000C8010E9479082B968EAD9FAD2B97833092
:1015B000910509F40FC18930910509F4FEC1049722
:1015C00009F07CC00E94D70247E0C42ED12C8823AA
:1015D00009F476C06E0137E2C30ED11CF601292D45
:1015E00011922A95E9F7BFAAAEAAC6010E9479080E
:1015F0008EA99FA9099709F0D8C00E94C605F701D6
:1016000070800E94D702882381F0CE014496FC01AD
:1016100011929A94E9F7BCA2ABA20E9479088BA11F
:101620009CA10A9711F50E94D205F701B0808B2D7D
:1016300091810E94CB02C6010E9479088EA99FA9C0
:101640000A97E1F5C0905504D0905604C114D10416
:1016500009F44DC0B801C6010E94E21F892B09F4AC
:1016600046C0F601C588D688F1CF0E94D20563E155
:10167000662E9E012F5F3F4F590188248394912C41
:10168000C7010E94A90E0E94D702882371F2F501BA
:10169000262D11922A95E9F7998A888AC5010E9418
:1016A0007908888999898A30910509F4BCCF88978F
:1016B00019F40E94C605E4CF0E94D205D12CC12C9A
:1016C000C601C45BDF4F0FB6F894DEBF0FBECDBFBF
:1016D000DF91CF911F910F91FF90EF90DF90CF900E
:1016E000BF90AF909F908F907F906F900895B718A4
:1016F000F6018189B816B1F02D968EAD9FAD2D976C
:1017000090935204809351042B968EAD9FAD2B97EE
:101710009093500480934F04B80180E494E00E94B9
:10172000EB1FCCCFC114D10439F3B11006C0F701BF
:101730008081918101969183808300913E04109174
:101740003F047801FFEFEF1AFF0A67E1C8010E942A
:10175000EA1DF0923F04E0923E0469E0C7010E9456
:10176000EA1D88E090E00E940D076C2DC8010296EA
:101770000E94EA1DC60199270E940D076D2DC80120
:1017800003960E94EA1D8D2D90E00E940D078CEFBC
:1017900091E00E94BA050C5F1F4F10933F04009325
:1017A0003E0484E0C82ED12C8BCF0E94D205C0907D
:1017B0005304D0905404C114D10409F415C1B801E4
:1017C000C6010E94E21F892B09F414C1F601C588E5
:1017D000D688F1CF6AEE71E0C8010E94F21FF801CD
:1017E00001900020E9F73197E01BF10B9E012F5F7C
:1017F0003F4F69018E179F0708F481C04AE050E00F
:1018000070E060E0C8010E947A1B4B015C010E94FD
:10181000C9040E9417068CEF91E00E94A3058CEE8C
:1018200091E00E94A305C8010E94A30586EE91E005
:101830000E94A30580913E0490913F040E940107FD
:10184000F7018081918101969183808300913E040C
:1018500010913F047801FFEFEF1AFF0A60E0C80122
:101860000E94EA1DF0923F04E0923E04712C2FEF9B
:1018700082169104A104B10499F094F07724739432
:101880008114910431E0A306B10454F033E0732EC7
:1018900081149104A10481E0B80614F422E0722EB0
:1018A00089829A82AB82BC820E5F1F4F672DC7016F
:1018B0000E94EA1D872D90E00E940D0776014801E5
:1018C0009FEF891A990AF701B1907F016B2DC8012A
:1018D0000E94EA1D8B2D90E00E940D0784018E2D41
:1018E0008C19781660F78CEF91E00E94BA059092FF
:1018F0003F0480923E0493E0C92ED12CE1CE70E0EB
:1019000060E0C8010E942A1A4B015C010E94C904D0
:101910000E9417068CEF91E00E94A30585EF91E0ED
:101920000E94A305C8010E94A30586EE91E00E94D3
:10193000A30580913E0490913F040E940107F701A6
:101940008081918101969183808300913E04109162
:101950003F047801FFEFEF1AFF0A60E0C8010E9420
:10196000EA1DF0923F04E0923E0489829A82AB82A3
:10197000BC8268E0C7010E94EA1D88E090E00E94F6
:101980000D07780122E0E20EF11C0A5F1F4FF601FD
:10199000B1906F016B2DC7010E94EA1D8B2D90E065
:1019A0000E940D07FFEFEF1AFF0A0E151F0579F7CA
:1019B0008CEF91E00E94BA05F0CEC7010E94A90EFB
:1019C0006C01892B09F47ACEF701808191810E9404
:1019D000CB02C8010E9479082B968EAD9FAD2B9744
:1019E0000A9709F06BCE6CCE61E070E0C8010E94EE
:1019F0004F0A6C010E94C9040E9417068CEF91E007
:101A00000E94A30581E694E00E94E403C8010E94BD
:101A1000A30586EE91E00E94A30580913E0490917B
:101A20003F040E940107F701808191810196918313
:101A3000808380913E0490913F048C010F5F1F4F83
:101A400061E00E94EA1D10933F0400933E04B80138
:101A5000C6010E94240A90933F0480933E0455E0FF
:101A6000C52ED12C2DCECF92DF92EF92FF920F9305
:101A70001F93CF93DF93CDB7DEB763970FB6F8947C
:101A8000DEBF0FBECDBF8C01CE0101966C0183E19C
:101A9000F60111928A95E9F781E090E0998B888BA5
:101AA000C6010E947908888999898A319105C1F512
:101AB000C8010E94A70A7C01892B09F457C0F801CC
:101AC000808191810E94CB0200913E0410913F04DD
:101AD00069E0C8010E94EA1D0F5F1F4F10933F0489
:101AE00000933E040E94C9040E9417068CEF91E007
:101AF0000E94A3058EEF91E00E94BA050E94C605E0
:101B0000C70163960FB6F894DEBF0FBECDBFDF915D
:101B1000CF911F910F91FF90EF90DF90CF9008959C
:101B2000089721F5C8010E94A70A7C01892BF1F0D2
:101B3000F801808191810E94CB0200913E041091B6
:101B40003F0468E0C8010E94EA1D0F5F1F4F109319
:101B50003F0400933E040E94C9040E9417068CEFC4
:101B600091E00E94A30582E092E0C6CF0E94D205D8
:101B7000C8010E94A70A7C01892B11F2F80180811B
:101B800091810E94CB020E94D7028823A1F1C60155
:101B90000E94790888899989879751F5C8010E9420
:101BA000A70A7C01892B21F1F801808191810E9493
:101BB000CB02F8018081918101979183808300910C
:101BC0003E0410913F0469E1C8010E94EA1D0F5FC5
:101BD0001F4F10933F0400933E040E94C9040E94CB
:101BE00017068CEF91E00E94A30589E092E084CF74
:101BF0000E94D20585CF87E0E82EF12C81CF8F920D
:101C00009F92AF92BF92CF92DF92EF92FF920F938B
:101C10001F93CF93DF93CDB7DEB763970FB6F894DA
:101C2000DEBF0FBECDBF4C017B016A010E94D7020F
:101C3000882309F484C0C6010E94330D8C01892BCE
:101C400009F469C00E94C9040E9417068CEF91E054
:101C50000E94A30585E08816910409F473C086E10B
:101C600092E00E94A30586EE91E00E94A305809178
:101C70003E0490913F040E940107F601808191810A
:101C80000E94CB02F601808191810197918380832C
:101C9000A0903E04B0903F0467E0F5E08F169104F9
:101CA00009F466E0C5010E94EA1D8FEFA81AB80A80
:101CB000B0923F04A0923E040E151F050CF078016F
:101CC0000E94D70207E010E0882329F1CE01019697
:101CD00023E1FC0111922A95E9F721E030E0398BEC
:101CE000288B0E947908888999890597029768F559
:101CF0000E94C605A601B701888999890E94FF0D37
:101D00008C01892B41F0F601808191810E94CB02E8
:101D10000E151F05E4F0C80163960FB6F894DEBFF8
:101D20000FBECDBFDF91CF911F910F91FF90EF902C
:101D3000DF90CF90BF90AF909F908F90089507E075
:101D400010E080CF8DE092E08CCF0E94D205870119
:101D5000E2CFCF92DF92EF92FF920F931F93CF9338
:101D6000DF93CDB7DEB763970FB6F894DEBF0FBE33
:101D7000CDBF7C010E94D702882309F442C0C7016D
:101D80000E94330D8C01892B61F1F70180819181D3
:101D90000E94CB020E94D70297E0C92ED12C882343
:101DA000E9F1CE01019623E1FC0111922A95E9F7B0
:101DB00021E030E0398B288B0E9479088889998945
:101DC0000597029708F08FC00E94C605A701B801C9
:101DD000888999890E94FF0D6C01892BA9F410E074
:101DE00000E0C80163960FB6F894DEBF0FBECDBF0A
:101DF000DF91CF911F910F91FF90EF90DF90CF90E7
:101E0000089507E010E0C1CFF701808191810E9421
:101E1000CB02C016D1060CF086016801F701808163
:101E200091810E94CB020E94D702882309F464C0EA
:101E3000CE01019623E1FC0111922A95E9F721E0F8
:101E400030E0398B288B0E94790888899989079717
:101E5000029708F04EC00E94C605C7010E94A90E55
:101E60008C01892B09F4BDCF0E94C9040E9417067A
:101E70008CEF91E00E94A305888999890797B1F1B9
:101E800081E292E00E94A30586EE91E00E94A30504
:101E900080913E0490913F040E940107F7018081E8
:101EA00091810E94CB02F7018081918101979183FA
:101EB0008083E0903E04F0903F048889998965E032
:101EC000079709F464E0C7010E94EA1DFFEFEF1ACB
:101ED000FF0AF0923F04E0923E040C151D050CF041
:101EE000680186017ECF0E94D20597CF8DE192E0F6
:101EF000C9CF0E94D205F5CF87E0C82ED12CF1CFF3
:101F00001F920F920FB60F9211242F933F938F932E
:101F10009F93AF93BF9380918A0390918B03A0917D
:101F20008C03B0918D033091890323E0230F2D376B
:101F300058F50196A11DB11D2093890380938A0352
:101F400090938B03A0938C03B0938D0380918503B2
:101F500090918603A0918703B09188030196A11DFB
:101F6000B11D8093850390938603A0938703B0935C
:101F70008803BF91AF919F918F913F912F910F90C7
:101F80000FBE0F901F90189526E8230F0296A11DF3
:101F9000B11DD2CF1F920F920FB60F9211242F9323
:101FA0003F934F935F936F937F938F939F93AF93E1
:101FB000BF93EF93FF938EE893E00E947503FF9128
:101FC000EF91BF91AF919F918F917F916F915F91B1
:101FD0004F913F912F910F900FBE0F901F9018952A
:101FE0001F920F920FB60F9211242F938F939F93EE
:101FF000EF93FF93E0919E03F0919F038081E09126
:10200000A403F091A50382FD1BC090818091A703DA
:102010008F5F8F732091A803821741F0E091A7038F
:10202000F0E0E257FC4F958F8093A703FF91EF916B
:102030009F918F912F910F900FBE0F901F90189529
:102040008081F4CFEEE8F3E01382128288EE93E011
:10205000A0E0B0E084839583A683B7838CE591E00C
:102060009183808385EC90E09587848784EC90E071
:102070009787868780EC90E0918B808B81EC90E055
:10208000938B828B82EC90E0958B848B86EC90E036
:10209000978B868B118E128E138E148EEBE2F4E0EA
:1020A00082E090E0948B838B11A610A60895CF93C5
:1020B000DF93CDB7DEB7C754D1090FB6F894DEBFB2
:1020C0000FBECDBF789484B5826084BD84B5816035
:1020D00084BD85B5826085BD85B5816085BD8091F3
:1020E0006E00816080936E0010928100809181006B
:1020F0008260809381008091810081608093810063
:10210000809180008160809380008091B100846024
:102110008093B1008091B00081608093B000809185
:102120007A00846080937A0080917A008260809344
:102130007A0080917A00816080937A0080917A00A1
:10214000806880937A001092C100E0919E03F09124
:102150009F0382E08083E0919A03F0919B031082B9
:10216000E0919C03F0919D038FEC80831092A60375
:10217000E091A203F091A30386E08083E091A003A5
:10218000F091A103808180618083E091A003F091B0
:10219000A103808188608083E091A003F091A10376
:1021A000808180688083E091A003F091A103808109
:1021B0008F7D80838FE093E00E94AE0583ED92E0F7
:1021C0000E94AE0587E992E00E94AE058BE592E0A1
:1021D0000E94AE0584E192E00E94AE0588ED91E098
:1021E0000E94AE0583E891E00E94AE0582E891E08E
:1021F0000E94AE0581E891E00E94AE0580E891E082
:102200000E94AE058FE791E00E94AE0585E791E060
:102210000E94E4038AE292E00E94A3050E94C9049E
:102220000E942D0684E991E00E94A3058EE691E0CC
:102230000E94AE050E941D0687E190E00E940519EC
:102240007C0181E0D70151968C9351972BE133E0CB
:1022500054963C932E93539752968C9362E372E07C
:10226000C7010E94EB1F0091550410915604F0E045
:10227000E0E00115110521F0F80105891689F9CF73
:10228000309709F5F0925604E092550487E190E00A
:102290000E9405197C0181E0F701818B20EE34E07A
:1022A000348B238B828B68E372E0C7010E94EB1FA3
:1022B000E0915504F0915604309741F08F01058864
:1022C000F689E02DF9CFF68AE58AE0CF01151105F0
:1022D00009F0E1C1F0925604E0925504FE013196F6
:1022E0001F019E01265E3F4F26963FAF2EAF2697D9
:1022F0008EE893E00E945503892B09F475C78EE898
:1023000093E00E943303182F8091830390918403FC
:102310008038910508F4C5C120918203211171C74D
:102320000E94AA0583E494E00E94E40380E890E020
:102330000E94010784E991E00E94A30581E0809357
:102340008203612F8EE893E00E9497031A3021F0F8
:102350001D3071F60E94AA05E0918303F091840379
:10236000EE5FFC4F108280918203811146C26CE6C1
:1023700071E080E494E00E94EB1F109252041092EE
:10238000510401E010E01093500400934F0482E0E8
:1023900093E09093300480932F04109232041092B3
:1023A000310410923D0410922C0410922B041092D0
:1023B0002E0410922D0482E090E090933F048093CD
:1023C0003E041FA61EA660E00E94EA1D83E090E086
:1023D00090933F0480933E0460E00E94EA1D84E0F5
:1023E00090E090933F0480933E0460E00E94EA1DD9
:1023F00085E090E090933F0480933E048AEB92E066
:102400000E94A30582E093E00E94BA0584EF93E066
:102410000E94AE050E94D702882309F46BC193E1A4
:10242000F92E2696EEADFFAD26972F2D11922A9507
:10243000E9F71AA709A7CE014A960E94790889A54B
:102440009AA5049709F04EC1D1011D92FA94E9F7BB
:10245000198B088BC1010E947908888999890B978B
:1024600009F040C10E94C605CE018E960E94A90EB9
:102470008C010097A9F161E070E0049711F070E021
:1024800060E0CE014A960E944F0A7C010E94C90476
:102490000E9417068CEF91E00E94A3058EE392E064
:1024A0000E94A30586EE91E00E94A305C7010E9449
:1024B0002D0680913E0490913F046C01BFEFCB1A32
:1024C000DB0A66E10E94EA1DD0923F04C0923E04FE
:1024D000B601C7010E94240A90933F0480933E04F2
:1024E00080912D0490912E048138910520F080EA8E
:1024F00093E00E94E40384E492E00E94BA0589E834
:1025000093E00E94E4030115110509F4F6C08091DF
:102510004F0490915004019709F0EFC08EE793E0CB
:102520000E94E4030115110539F080914F04909148
:102530005004019709F4E4C080E692E00E94A305EC
:1025400080915104909152040E9417068AE692E00D
:102550000E94A30580E494E00E94A30583E792E033
:102560000E94A30580914F04909150040E94170689
:1025700084E991E00E94A305012B09F43EC18091FA
:102580004F0490915004019709F037C182E090E028
:102590000E94E21D23968FAF239783E090E00E9474
:1025A000E21D24968FAF249761E070E024968EADF3
:1025B0009FAD24970E94BF1F6C011CAE1DAE1EAEC6
:1025C0001FAE18AE19AE1AAE1BAE1BAA1CAA1DAACE
:1025D00084E08DAB9E01245C3F4F3FAB2EAB1EA62B
:1025E0001FA618AA88ABCE01C8969AAB89AB2296D3
:1025F0001FAE1EAE229785E0882E912CF12CE12C87
:102600000E94C9040E9417068CEF91E00E94A30566
:102610008FEA92E00E94A305C4010E94390684015A
:102620000F5F1F4FC4010E94E21D28968FAF2897AD
:1026300087EB92E00E94A3052896EFAD2897AE2E77
:10264000B12CC5010E940D078CEF91E00E94A305FB
:102650002896FFAD2897F83108F042C1F501ED5CEE
:10266000FC4E0C94B91F0A14461570147014FF1612
:102670008E17FB1775187014701470147014701482
:10268000701470147014701470147014701470142A
:1026900070149315D815D8015696FC92EE92559762
:1026A0001DCE1F3779F41816190634F06FE78EE83F
:1026B00093E00E9497031CCE01979093840380932C
:1026C00083033FCE2091820321113BCE9C012F5FDB
:1026D0003F4F30938403209383038E5F9C4FDC0134
:1026E0001C932FCE0E94D205CE018E960E94A90E79
:1026F0008C01F6CE07E010E0F3CE80E793E010CF38
:1027000000913E0410913F046AE1C8010E94EA1D55
:102710000F5F1F4F10933F0400933E0420912B0442
:1027200030912C0445E0429FC001439F900D11243D
:1027300090932C0480932B0487E693E00E94E4039B
:1027400080912B0490912C040E9439068FE593E030
:102750000E94E40387E593E00E94E40380913E0435
:1027600090913F0403970E9439068BE493E00E9406
:10277000AE0560912B0482E090E00E94EA1D87E79D
:1027800092E00E94BA0502E010E080913E04909130
:102790003F0408171907C0F4C8010E94E21D90E029
:1027A0000E940D0785E792E00E94A305C8010E94E0
:1027B00039068CE892E00E94A3058CE691E00E9425
:1027C000BA050F5F1F4FE1CF8EE892E00E94A3058C
:1027D00080913E0490913F040E94390685E992E081
:1027E0000E94BA058CE992E00E94BA05C8CEF7FEB5
:1027F0000FC081E294E00E94AE050E94AA050E94EB
:102800001D0610928403109283031092820370CDF0
:102810004801F6CE540122E0A20EB11CC8010E946C
:10282000E21D782E81EC92E00E94A305872D90E0B6
:102830000E9417068CEF91E00E94A305C5010E943B
:1028400039068BEC92E00E94A30590E080E00EA98F
:102850001FA92DA92817190639F030F0F801E80F43
:10286000F91F10820196F3CF1CAA1BAA32E073163F
:1028700009F4C2C0371508F462C0772009F4A0C07B
:1028800081E0781609F4A6C0EEA9FFA960817181E4
:10289000828193810E943F0685E792E00E94A30512
:1028A000C5010E9439068DEC92E00E94A3058BA918
:1028B0009CA9EEA9FFA9019709F0E1C0608171818F
:1028C000828193810E943F0624962EAD3FAD2497CE
:1028D000A701B601CE01C3960E944C077C01850179
:1028E0000E94AA050130F1E01F0730F428962FADB1
:1028F00028972A3109F07BCF88E194E00E94E40315
:1029000024968EAD9FAD24978E159F0530F0A701BC
:10291000B601CE01C3960E941F04EEA9FFA96081F3
:102920007181828193812BA93CA92130310509F065
:1029300058C40E943F06C6010E94A1195ECF98E0CC
:10294000791609F474C0A9E07A1639F1B3E07B1264
:102950009BCFC5010E94E21DF80180830EA91FA92B
:10296000C40103960E94E21DD80111968C930EA912
:102970001FA9C40104960E94E21DF801828354013C
:10298000F6E0AF0EB11C0EA91FA9C40105960E9466
:10299000E21DD80113968C9377CFC5010E94E21DEA
:1029A000F80180835401F4E0AF0EB11C0EA91FA9F9
:1029B000C40103960E94E21DD80111968C9364CF46
:1029C000B3E08B0E911CC5010E94E21DF8018083CB
:1029D00054015ACFC5010E94E21DD8018C935401C5
:1029E000B4E0AB0EB11C0EA91FA9C40103960E944E
:1029F000E21DF801818348CFC5010E94E21DD80184
:102A00008C930EA91FA9C40103960E94E21DF80130
:102A100081835401F5E0AF0EB11C0EA91FA9C401BA
:102A200004960E94E21DD80112968C932DCFC50109
:102A30000E94E21DF80180830EA91FA9C40103961C
:102A40000E94E21DD80111968C930EA91FA9C40102
:102A500004960E94E21DF80182835401F6E0AF0E55
:102A6000B11C0EA91FA9C40105960E94E21DD80140
:102A700013968C9381E090E09CAB8BAB05CF60818B
:102A80007181828193810E94EB051ECFBE01605C43
:102A90007F4FC8010E94FB078C012296EEADFFAD6F
:102AA0002297878590899CAB8BABAEA9BFA9818902
:102AB0008C93EEA9FFA92296AEADBFAD2297529698
:102AC0008C9181832296EEADFFAD2297AEA9BFA96E
:102AD000838912968C93AEA9BFA9848913968C938F
:102AE00083ED92E00E94A3058BA99CA9EEA9FFA902
:102AF000019791F460817181828193810E943F06E8
:102B000024962EAD3FAD2497A701B601CE01C39602
:102B10000E944C077C01E4CE6081718182819381A7
:102B20000E94EB05EDCFBE01605C7F4FC8010E94A3
:102B3000FB078C012496AEACBFAC2497AE14BF0447
:102B400038F0A701B601CE01C3960E941F047C0194
:102B5000AEA9BFA92296EEADFFAD22978C91818BD5
:102B600011968C911197828B12968C911297838B70
:102B700013968C91848B8BA99CA9908B87878AED67
:102B800092E00E94A30522968EAD9FAD22970E94EF
:102B9000170682EE92E00E94A3052296EEADFFADED
:102BA000229761897289838994890E94EB05B4C157
:102BB0001A8219825401B2E0AB0EB11CC8010E9406
:102BC000E21D10E000E0893079F4C5010E94E21DA9
:102BD00089835401E4E0AE0EB11CC40103960E9447
:102BE000E21D8A8309811A8186EE92E00E94A30584
:102BF000C8010E94170624966EAC7FAC249784E12E
:102C00002696AEADBFAD26971D928A95E9F787E16E
:102C1000F10111928A95E9F784E08B8388878D878B
:102C20008A8B8F8B2AE130E02C0F3D1F3D832C8354
:102C30008EE190E08C0F9D1F9A878987A2E2B0E019
:102C4000AC0FBD1FBF87AE87E6E2F0E0EC0FFD1FC3
:102C5000FC8BEB8B2AE230E02C0F3D1F398F288F45
:102C6000D80151968C91815027968FAF27972101DB
:102C7000E5E08E02400C511C1124912C812C2796EA
:102C8000FFAD2797F7FD1DC06E147F0478F025E097
:102C9000289DC001299D900D1124A701B601D201E4
:102CA000A81BB90BCD010E941F047C012796BFAD64
:102CB0002797B1502796BFAF2797EFEF8E1A9E0A3E
:102CC000DECFD80152968C915297882361F05196AD
:102CD0008C915197823009F467C0C0F4882379F150
:102CE000813009F45BC08CEF91E00E94A3058BA9B1
:102CF0009CA9EEA9FFA9019709F07AC060817181B2
:102D0000828193810E943F069301E2CD843009F4D1
:102D100060C008F452C0853031F75396ED91FC91B4
:102D20008E010B5E1F4F9E01205F3F4FAE01455F3E
:102D30005F4FBE016A5F7F4FC101099504C0539682
:102D4000ED91FC910995009771F2FC012081318190
:102D50003CAB2BAB22812DAB4EA95FA9A381B481E3
:102D60002C91DA012C934EA95FA9A381B48111960D
:102D70002C91FA0121834EA95FA9FC01A381B481A2
:102D800012962C91DA0112962C932EA93FA9A381B9
:102D9000B48113968C91F9018383A5CF5396ED915D
:102DA000FC91C1010995CFCF5396ED91FC91BE01E5
:102DB0006A5F7F4FC1010995C6CF5396ED91FC9193
:102DC000AE01455F5F4FBE016A5F7F4FC10109954C
:102DD000BACF5396ED91FC919E01205F3F4FAE011B
:102DE000455F5F4FBE016A5F7F4FC1010995ABCF61
:102DF00060817181828193810E94EB0585CF249649
:102E0000AEACBFAC2497AE14BF0488F0A701B601E6
:102E1000CE01C3960E941F047C01A816B90638F0A3
:102E2000AC01B601CE018E960E941F047C01E9A977
:102E3000FAA960817181828193812EA53FA52130FD
:102E40003105B9F50E943F068EEE92E00E94A3057F
:102E50008BA99CA9EEA9FFA9019771F560817181E9
:102E6000828193810E943F0682EF92E00E94A30537
:102E70008BA99CA98EA89FA8019721F08EA59FA53C
:102E8000019709F5CE018E960E94A3022B013C0109
:102E9000CE01C3960E94A3029B01AC01C301B20103
:102EA0000E947C1E21E030E03CAB2BABD4016C9344
:102EB00012C10E94EB05C8CF60817181828193812C
:102EC0000E94EB05D1CFCE018E960E94B7022B0156
:102ED0003C01CE01C3960E94B702460E571E681EE3
:102EE000791E1CAA1BAAF4014082EEA9FFA95182F7
:102EF000EEA9FFA96282EEA9FFA97382EEA9FFA93C
:102F000060817181828193812BA93CA92130310597
:102F100009F04BCE0E943F069501F6CD2496AEAC4B
:102F2000BFAC2497AE14BF0488F0A701B601CE0150
:102F3000C3960E941F047C01A816B90638F0AC01A4
:102F4000B601CE018E960E941F047C01E9A9FAA960
:102F500060817181828193812EA53FA52130310549
:102F600089F50E943F0686EF92E00E94A3058BA997
:102F70009CA9EEA9FFA9019741F560817181828129
:102F800093810E943F0682EF92E00E94A3058BA9E5
:102F90009CA98EA89FA8019721F08EA59FA50197B7
:102FA000D9F4CE018E960E94A3022B013C01CE01E2
:102FB000C3960E94A3029B01AC01C301B2010E940F
:102FC0007B1E70CF0E94EB05CECF60817181828124
:102FD00093810E94EB05D7CFCE018E960E94B70257
:102FE0002B013C01CE01C3960E94B702461A570A34
:102FF000680A790A76CF2496AEACBFAC2497AE149B
:10300000BF0488F0A701B601CE01C3960E941F0439
:103010007C01A816B90638F0AC01B601CE018E9637
:103020000E941F047C01E9A9FAA960817181828153
:1030300093812EA53FA52130310589F50E943F06D9
:103040008AEF92E00E94A3058BA99CA9EEA9FFA993
:10305000019741F560817181828193810E943F06D1
:1030600082EF92E00E94A3058BA99CA98EA89FA83D
:10307000019721F08EA59FA50197D9F4CE018E96D8
:103080000E94A3022B013C01CE01C3960E94A30221
:103090009B01AC01C301B2010E94211D03CF0E941C
:1030A000EB05CECF60817181828193810E94EB0517
:1030B000D7CFCE018E960E94B7022B013C01CE01E4
:1030C000C3960E94B702A30192010E94F81D1CAA98
:1030D0001BAAF4016083EEA9FFA97183EEA9FFA9E1
:1030E0008283EEA9FFA9938309CF2496AEACBFAC2F
:1030F0002497AE14BF0488F0A701B601CE01C39691
:103100000E941F047C01A816B90638F0AC01B60174
:10311000CE018E960E941F047C01E9A9FAA9608164
:103120007181828193812EA53FA52130310589F5DA
:103130000E943F068EEF92E00E94A3058BA99CA9F6
:10314000EEA9FFA9019741F5608171818281938188
:103150000E943F0682EF92E00E94A3058BA99CA9E2
:103160008EA89FA8019721F08EA59FA50197D9F45D
:10317000CE018E960E94A3022B013C01CE01C39684
:103180000E94A3029B01AC01C301B2010E94E81E90
:1031900089CE0E94EB05CECF6081718182819381BF
:1031A0000E94EB05D7CFCE018E960E94B7022B016D
:1031B0003C01CE01C3960E94B7029B01AC01C30142
:1031C000B2010E949A1F1CAA1BAAF4012083EEA937
:1031D000FFA93183EEA9FFA94283EEA9FFA953837A
:1031E0008DCE0E94EB05A7CB80E090E0892B09F4FF
:1031F00078C80E946103882309F473C80E94000004
:1032000070C81F3709F09DC84ECA0F931F93CF9304
:10321000DF938230910510F482E090E0E091590450
:10322000F0915A0430E020E0B0E0A0E0309799F44B
:103230002115310509F44AC0281B390B243031050A
:10324000D8F58A819B816115710589F1FB01938312
:103250008283FE0111C04081518102811381481790
:103260005907E0F04817590799F4109761F0129642
:103270000C93129713961C933296CF01DF91CF9146
:103280001F910F9108950093590410935A04F4CF9D
:103290002115310551F04217530738F0A901DB0120
:1032A0009A01BD01DF01F801C1CFEF01F9CF909381
:1032B0005A0480935904CDCFFE01E20FF31F81938E
:1032C00091932250310939832883D7CF2091570415
:1032D00030915804232B41F42091020130910301D5
:1032E000309358042093570420910001309101013C
:1032F0002115310541F42DB73EB74091040150919D
:103300000501241B350BE0915704F0915804E21796
:10331000F307A0F42E1B3F0B2817390778F0AC01F8
:103320004E5F5F4F2417350748F04E0F5F1F5093D5
:10333000580440935704819391939FCFF0E0E0E0CD
:103340009CCFCF93DF930097E9F0FC013297138273
:103350001282A0915904B0915A04ED0130E020E0AE
:103360001097A1F420813181820F931F209157047F
:10337000309158042817390709F061C0F0935804B8
:10338000E0935704DF91CF910895EA01CE17DF074C
:10339000E8F54A815B819E0141155105B1F7E901CC
:1033A000FB83EA8349915991C40FD51FEC17FD07A0
:1033B00061F4808191810296840F951FE9019983C0
:1033C0008883828193819B838A83F0E0E0E0129678
:1033D0008D919C9113970097B9F52D913C91119780
:1033E000CD010296820F931F20915704309158040B
:1033F0002817390739F6309751F510925A04109270
:103400005904B0935804A0935704BCCFD383C2830C
:1034100040815181840F951FC817D90761F44E5F11
:103420005F4F88819981480F591F518340838A815A
:103430009B81938382832115310509F0B0CFF093EE
:103440005A04E09359049ECFFD01DC01C0CF1382E2
:103450001282D7CFB0E0A0E0E0E3FAE10C943B1E8B
:103460005C017B016115710519F0DB018D939C9363
:1034700085010F5F1F4FF501D0818D2F90E00E94D5
:10348000911C6C01892BB9F5DD32B9F50F5F1F4F27
:10349000D5011196DC91C1E05801F1E0AF1AB108F5
:1034A00043E050E060E770E0C5010E94A31C892B57
:1034B00069F5680182E0C80ED11C45E050E06BE67A
:1034C00070E0C6010E94A31C892B21F4680197E0DB
:1034D000C90ED11CE114F10419F0D701CD92DC9290
:1034E00060E070E080E89FEFC111FFC060E070E035
:1034F00080E89FE7FAC05801BBCFDB3229F4850191
:103500000E5F1F4FF501D181C0E0C6CF43E050E010
:1035100068E670E0C5010E94A31C892BE9F0F80160
:1035200010E000E020E030E0A9015F01B0ED8B2E5B
:103530008D0E89E08815C8F19C2E689491F88C2F27
:103540008870C2FF16C0811102C00F5F1F4F3196F5
:10355000D501DC91C92DE9CFE114F10429F00E5F0A
:103560001F4FF7011183008360E070E080EC9FE75C
:10357000BCC0882311F001501109A5E0B0E00E9401
:103580002A1E9B01AC01220F331F441F551F280D1B
:10359000311D411D511D283999E93907490799E124
:1035A0005907A8F2C6609C2ED2CFAEEF8A1206C091
:1035B000C3FD3CC09C2E689493F8C9CFDF7DD53401
:1035C000A9F580818D3239F4C061DF0112968181C5
:1035D00062E070E006C0DF018B32C1F3119661E05A
:1035E00070E080535D01A61AB70A8A30F8F4E0E86B
:1035F000CE16ECE0DE065CF4B601660F771F660FB0
:10360000771FC60ED71ECC0CDD1CC80ED11C5D0169
:10361000FFEFAF1ABF0A8C9180538A30A8F1C4FF24
:1036200003C0D194C194D1080C0D1D1DC1FF09C068
:10363000E114F10431F081E0A81AB108D701AD928C
:10364000BC92CA01B9010E94C01CC370C33009F406
:1036500090584B015C0120E030E0A9010E94BB1CA6
:10366000882309F440C0CFE9D0E017FF05C01195C9
:1036700001951109C7E8D0E06E01B8E1CB1AD10875
:1036800080E2E82EF12C0FC0D501B1CFFE012591CB
:103690003591459154910E191F09C501B4010E943D
:1036A000211D4B015C01D501C4010E151F0574F7E6
:1036B0002497F594E794CC16DD06A9F78A2F880F96
:1036C0008B2F881F8F3F49F020E030E0A901C50112
:1036D000B4010E94BB1C811106C082E290E090936D
:1036E0005C0480935B04C501B401CDB7DEB7ECE0A8
:1036F0000C94571EB0E0A0E0E0E8FBE10C94361E0D
:103700005C016B017A016115710519F0FB01918370
:103710008083E114F10451F0C7010297839730F0E0
:1037200040E030E020E090E072C05E01E5012196CB
:10373000F5011081812F90E00E94911C892BA9F73F
:103740001D3201F52196F501118101E0E114F1042A
:1037500009F4DAC0F0E1EF16F10409F082C0103389
:1037600059F488818F7D883509F076C019812296B9
:103770000260F0E1EF2EF12C812C912CA12C88E03D
:10378000B82E8CC01B3221F4E5012296F50111817F
:1037900000E0DCCFEAE0EE16F10409F4BBC0F0E192
:1037A000EF16F10409F06DC0E7CF78E0E72EF12CB9
:1037B000812C912CA12C60E1B62E70C03FE9310F15
:1037C0003A3128F439EA332E80C021E09AC0302FF4
:1037D0003170C114D10431F0222309F12197F6018F
:1037E000D183C08327FF21C060E070E080E090E8D3
:1037F000311104C06FEF7FEF8FEF9FE722E230E0DF
:1038000030935C0420935B04462F372F282F642FBE
:10381000732F822FCDB7DEB7E1E10C94521E01FF6A
:1038200004C02297F601D183C083332341F09095E1
:103830008095709561957F4F8F4F9F4FE5CF97FF94
:10384000E3CF82E290E090935C0480935B046FEF9F
:103850007FEF8FEF9FE7D8CF10E3E114F10409F475
:10386000A4CF28E0E216F10409F4A2CF0CF092CF25
:10387000812C912CA12CE0E4BE2E82E0E816F1040C
:1038800069F060E070E080E090E897010F2C000C98
:10389000440B550B0E94081E49015A0120E060E0CC
:1038A00070E0CB0127010F2C000C66087708FE01A1
:1038B00050ED352E310E39E0331540F43FEB310F2A
:1038C0003A3108F07BCF49EC342E310E3E141F0400
:1038D0000CF07DCF27FD15C086169706A806B90601
:1038E00078F0A30192010E94F81D630D711D811DE6
:1038F000911D61307105810520E8920708F465CFBC
:103900002FEF21961081D3CF103309F42ACF2AE06C
:10391000E22EF12C9CEC892E982CA82C9CE0B92E40
:10392000BDCF91110C948E1D803219F089508550B5
:10393000C8F70895FC0105900020E9F7809590955F
:103940008E0F9F1F0895FB01DC014150504088F00D
:103950008D9181341CF08B350CF4805E659161345F
:103960001CF06B350CF4605E861B611171F3990BD2
:103970000895881BFCCF0E94FD1C08F481E0089587
:10398000E89409C097FB3EF49095809570956195F9
:103990007F4F8F4F9F4F9923A9F0F92F96E9BB27AF
:1039A0009395F695879577956795B795F111F8CF2B
:1039B000FAF4BB0F11F460FF1BC06F5F7F4F8F4F96
:1039C0009F4F16C0882311F096E911C0772321F08C
:1039D0009EE8872F762F05C0662371F096E8862F24
:1039E00070E060E02AF09A95660F771F881FDAF77B
:1039F000880F9695879597F90895990F0008550FA8
:103A0000AA0BE0E8FEEF16161706E807F907C0F064
:103A100012161306E407F50798F0621B730B840B6C
:103A2000950B39F40A2661F0232B242B252B21F446
:103A300008950A2609F4A140A6958FEF811D811DE6
:103A400008950E94341D0C94A81D0E949A1D38F000
:103A50000E94A11D20F0952311F00C94911D0C944F
:103A6000971D11240C94DC1D0E94B91D70F3959FC5
:103A7000C1F3950F50E0551F629FF001729FBB2765
:103A8000F00DB11D639FAA27F00DB11DAA1F649F01
:103A90006627B00DA11D661F829F2227B00DA11DB4
:103AA000621F739FB00DA11D621F839FA00D611D3A
:103AB000221F749F3327A00D611D231F849F600D5B
:103AC000211D822F762F6A2F11249F5750409AF084
:103AD000F1F088234AF0EE0FFF1FBB1F661F771F10
:103AE000881F91505040A9F79E3F510580F00C94DB
:103AF000911D0C94DC1D5F3FE4F3983ED4F3869552
:103B000077956795B795F795E7959F5FC1F7FE2B7A
:103B1000880F911D9695879597F90895992788277D
:103B2000089597F99F6780E870E060E008959FEF3F
:103B300080EC089500240A94161617061806090644
:103B4000089500240A941216130614060506089513
:103B5000092E0394000C11F4882352F0BB0F40F49B
:103B6000BF2B11F460FF04C06F5F7F4F8F4F9F4FDB
:103B7000089557FD9058440F551F59F05F3F71F05D
:103B80004795880F97FB991F61F09F3F79F08795C4
:103B90000895121613061406551FF2CF4695F1DF4D
:103BA00008C0161617061806991FF1CF86957105DD
:103BB000610508940895E894BB2766277727CB0111
:103BC00097F90895F999FECF92BD81BDF89A99278A
:103BD00080B50895262FF999FECF1FBA92BD81BDF9
:103BE00020BD0FB6F894FA9AF99A0FBE019608957F
:103BF000DB018F939F930E942A1EBF91AF91A29FDA
:103C0000800D911DA39F900DB29F900D11240895DA
:103C1000A1E21A2EAA1BBB1BFD010DC0AA1FBB1FD0
:103C2000EE1FFF1FA217B307E407F50720F0A21B42
:103C3000B30BE40BF50B661F771F881F991F1A94AF
:103C400069F760957095809590959B01AC01BD01D9
:103C5000CF0108950E946C1EA59F900DB49F900DFA
:103C6000A49F800D911D112408952F923F924F9291
:103C70005F926F927F928F929F92AF92BF92CF92FC
:103C8000DF92EF92FF920F931F93CF93DF93CDB705
:103C9000DEB7CA1BDB0B0FB6F894DEBF0FBECDBF7D
:103CA00009942A88398848885F846E847D848C844E
:103CB0009B84AA84B984C884DF80EE80FD800C8157
:103CC0001B81AA81B981CE0FD11D0FB6F894DEBF3A
:103CD0000FBECDBFED010895A29FB001B39FC001FB
:103CE000A39F700D811D1124911DB29F700D811D28
:103CF0001124911D08955058BB27AA270E94931E96
:103D00000C94A81D0E949A1D38F00E94A11D20F05D
:103D100039F49F3F19F426F40C94971D0EF4E095A6
:103D2000E7FB0C94911DE92F0E94B91D58F3BA17B7
:103D3000620773078407950720F079F4A6F50C94C1
:103D4000DB1D0EF4E0950B2EBA2FA02D0B01B9014F
:103D500090010C01CA01A0011124FF27591B99F001
:103D6000593F50F4503E68F11A16F040A22F232F0D
:103D7000342F4427585FF3CF469537952795A7955D
:103D8000F0405395C9F77EF41F16BA0B620B730B04
:103D9000840BBAF09150A1F0FF0FBB1F661F771F75
:103DA000881FC2F70EC0BA0F621F731F841F48F42A
:103DB000879577956795B795F7959E3F08F0B0CFB3
:103DC0009395880F08F09927EE0F9795879508959A
:103DD0000E94FC1E0C94A81D0E94A11D58F00E9478
:103DE0009A1D40F029F45F3F29F00C94911D511168
:103DF0000C94DC1D0C94971D0E94B91D68F3992347
:103E0000B1F3552391F3951B550BBB27AA276217D6
:103E10007307840738F09F5F5F4F220F331F441FE3
:103E2000AA1FA9F335D00E2E3AF0E0E832D0915017
:103E30005040E695001CCAF72BD0FE2F29D0660F04
:103E4000771F881FBB1F261737074807AB07B0E847
:103E500009F0BB0B802DBF01FF2793585F4F3AF04D
:103E60009E3F510578F00C94911D0C94DC1D5F3F32
:103E7000E4F3983ED4F3869577956795B795F795D3
:103E80009F5FC9F7880F911D9695879597F90895BB
:103E9000E1E0660F771F881FBB1F62177307840757
:103EA000BA0720F0621B730B840BBA0BEE1F88F766
:103EB000E09508950E94611F6894B1110C94DC1D77
:103EC00008950E94C11D88F09F5798F0B92F992737
:103ED000B751B0F0E1F0660F771F881F991F1AF0F5
:103EE000BA95C9F714C0B13091F00E94DB1DB1E062
:103EF00008950C94DB1D672F782F8827B85F39F061
:103F0000B93FCCF3869577956795B395D9F73EF48D
:103F100090958095709561957F4F8F4F9F4F089535
:103F20000E94FD1C08F48FEF08950E94FD1C880B71
:103F3000990B0895052E97FB1EF400940E94B11F63
:103F400057FD07D00E94081E07FC03D04EF40C94C6
:103F5000B11F50954095309521953F4F4F4F5F4F82
:103F6000089590958095709561957F4F8F4F9F4FE5
:103F70000895EE0FFF1F0590F491E02D09940F9323
:103F80001F93CF93DF93869F8001879F100D969F8D
:103F9000100D1124C8010E940519EC01009729F0A9
:103FA000A80170E060E00E94DB1FCE01DF91CF919D
:103FB0001F910F910895DC0101C06D934150504055
:103FC000E0F70895FB01DC018D910190801901104B
:103FD000D9F3990B0895FB01DC0101900D920020AB
:103FE000E1F70895DC015D91552331F0FB0101906B
:103FF00005160110E1F7B9F7809590958A0F9B1F80
:104000000895FB01DC014150504048F001900D92B1
:104010000020C9F701C01D9241505040E0F70895BB
:10402000AEE0B0E0E6E1F0E20C94431E0D891E899B
:1040300086E08C831A8309838FEF9FE79E838D83AD
:10404000AE01475E5F4F6F89788DCE0101960E9469
:1040500033202F813885020F131FF80110822E960E
:10406000E4E00C945F1EABE0B0E0E9E3F0E20C9416
:10407000351E7C013B018A01FC0117821682838177
:1040800081FFC8C1CE0101965C01F7019381F30164
:1040900093FD859193FF81913F01882309F453C1DA
:1040A000853239F493FD859193FF81913F018532EB
:1040B00029F4B70190E00E942322E7CF912C212C14
:1040C000312CFFE1F31538F08B3211F190F480328E
:1040D00009F1833229F137FC3CC020ED280F2A304A
:1040E00050F536FE20C08AE0989E200D1124922EB5
:1040F00006C08D3291F0803371F7689430F8F30187
:1041000093FD859193FF81913F018111DACF21C009
:10411000689431F8689432F8F2CF689433F8EFCFAE
:10412000689434F8ECCFEAE02E9E200D1124222E64
:10413000689435F8E4CF8E3229F436FC04C16894D3
:1041400036F8DDCF8C3619F4689437F8D8CF883636
:10415000B1F2982F9F7D95549330E0F08336A1F112
:104160008337C1F1833509F063C02801F2E04F0EB7
:10417000511CF801C080D180692D70E036FC02C06E
:104180006FEF7FEFC6010E940D224C01689437F853
:1041900082010AC00C5F1F4FFFE3F98388248394D8
:1041A000912C6501E89437F833FE2DC0522C811410
:1041B000910471F5552009F468CFB70180E290E0D1
:1041C0000E9423225A94F6CFF801808189830E5FE2
:1041D0001F4FE4CF2801F2E04F0E511CF801C080C0
:1041E000D180692D70E036FC02C06FEF7FEFC60111
:1041F0000E9418224C018201D5CFB70180E290E0E5
:104200000E9423222A942814190409F0B0F7CECF73
:10421000F60137FC859137FE81916F01B70190E07F
:104220000E94232251105A94F1E08F1A9108BFCFB7
:10423000843619F0893609F077C0F80137FE6BC073
:1042400060817181828193810C5F1F4FF32DFF7616
:104250003F2E97FF09C090958095709561957F4F8F
:104260008F4F9F4F689437F82AE030E0A5010E94F5
:104270005322C82ECA188C2C432C36FE0CC0E8944E
:1042800040F8C91440F434FE05C032FC03C0F32DDD
:10429000FE7E4F2E892C44FE95C0FE01EC0DF11DD3
:1042A0008081803309F087C0242D297E422E842D01
:1042B0008870582E43FC95C040FE8FC09C2C821401
:1042C00018F42C0C922C981844FE91C0B70180E38E
:1042D00090E00E94232242FE09C088E790E041FE60
:1042E00002C088E590E0B7010E942322C91408F4B7
:1042F0008AC0CA94D12C9FEFC91AD90ACA0CDB1CF8
:10430000F60182916F01B70190E00E942322AC1464
:10431000BD04B1F74FCF60817181072E000C880B6F
:10432000990B0E5F1F4F92CFD32CE894D4F82AE05C
:1043300030E0853739F1232D297FD22E8F3601F1D8
:1043400048F48835A9F0F701868197812B96E2E140
:104350000C94511E803749F08837A9F7D4FE02C06B
:104360006894D2F820E130E00DC06894D4F8F6CF1C
:1043700034FE03C0822F8660D82E20E132E002C0D6
:1043800028E030E0F801D7FE0FC0608171818281A2
:1043900093810C5F1F4FA5010E945322C82ECA189B
:1043A0003D2CE89437F867CF6081718190E080E020
:1043B0000E5F1F4FF0CF42FC02C0839478CF8394EE
:1043C000839475CF842D867809F471CFF6CFB70129
:1043D00080E290E00E94232283948214C0F3512C47
:1043E00073CF522C5818821408F46ECFF8CF842D56
:1043F000867809F47BCF8BE241FE80E247FC8DE2B8
:10440000B70190E071CFB70180E390E00E942322D2
:104410009A946CCF8FEF9FEF99CFFC01059061507C
:1044200070400110D8F7809590958E0F9F1F0895CA
:10443000FC016150704001900110D8F78095909573
:104440008E0F9F1F08950F931F93CF93DF93182F05
:10445000092FEB018B8181FD09C01FEF0FEF812F29
:10446000902FDF91CF911F910F91089582FF14C07B
:104470002E813F818C819D81281739073CF4E8818A
:10448000F981CF0101969983888310838E819F8162
:1044900001969F838E83E3CFE885F985812F099567
:1044A000892BA1F3DACFFA01AA27283051F1203164
:1044B00081F1E8946F936E7F6E5F7F4F8F4F9F4FB8
:1044C000AF4FB1E03ED0B4E03CD0670F781F891FFA
:1044D0009A1FA11D680F791F8A1F911DA11D6A0FC8
:1044E000711D811D911DA11D20D009F468943F917B
:1044F0002AE0269F11243019305D3193DEF6CF017A
:104500000895462F4770405D4193B3E00FD0C9F73F
:10451000F6CF462F4F70405D4A3318F0495D31FDAC
:104520004052419302D0A9F7EACFB4E0A6959795FF
:10453000879577956795BA95C9F7009761057105D5
:1045400008959B01AC010A2E06945795479537951F
:104550002795BA95C9F7620F731F841F951FA01D79
:064560000895F894FFCF5E
:1045660000005D0480001D011D011D011D011D01CE
:104576001B01190117011501130111010F01090191
:1045860005010001FB00F800F300EE00E800E4007E
:10459600E100DE00D900D600D400D000CC00C9006E
:1045A600C500C000BC00B700B400B100AF00AC004D
:1045B600AA00A700A500A300000000009703EE02D2
:1045C6002403FF035503330347030D0A003E3E3E13
:1045D6003E20436F6D6D6974003C3C3C3C20526F3D
:1045E6006C6C6261636B001B5B313B33336D00297E
:1045F6003E3E3E201B5B306D006E616E00696E664E
:10460600006F76660025252E2564580053503A0023
:1046160020442000204C2000454F46002028002939
:1046260020636F6C3A0020706F733A004E45575600
:1046360041523A204000204465663A200020526FDD
:104646006F743A20400020503A002E0050555348CF
:10465600284C2920005055534828442920004E4F05
:1046660054004E454741544500504F57004D554C58
:104676005449504C59004449564944450041444424
:10468600005355425452414354001B5B313B333275
:104696006D007072696E7400626C696E6B005354C3
:1046A6004F5245001B5B313B33366D436F6D70696E
:1046B6006C6174696F6E20494E463A1B5B306D0023
:1046C60020636F6C756D6E3A2000206E6561723ADC
:1046D60020270027203A0048657861646563696D84
:1046E600616C2050726F6772616D3A002C005369DD
:1046F6007A653A2000206279746573004D696372A9
:104706006F44504C2042797465636F64653A0020AB
:10471600416464723A2000204F50436F64653A202A
:1047260000204D61726B65723A20003B0050555374
:104736004820005055534856200053544F524520A8
:10474600400020563A00474F535542204000202B48
:104756002000203D2000202D200020782000202F42
:02476600200031
:00000001FF
