:100000000C9459020C9481020C9481020C9481028C
:100010000C9481020C9481020C9481020C94810254
:100020000C9481020C9481020C9481020C94810244
:100030000C9481020C9481020C9481020C94810234
:100040000C945C0F0C9481020C94CC0F0C94A60FB2
:100050000C9481020C9481020C9481020C94810214
:100060000C9481020C9481024E414E494E495459E0
:10007000494E46CDCCCC3D0AD7233C17B7D1387773
:10008000CC2B329595E6241FB14F0A000020410089
:1000900000C84200401C4620BCBE4CCA1B0E5AAED3
:1000A000C59D742C005E003C3D003C003E3D003E82
:1000B00000213D003D3D00786E6F72006E6F720052
:1000C0006E616E6400786F72006F7200616E640022
:1000D0006E6F74003B006678007374657000746F17
:1000E00000646F00666F72007768696C6500656C0C
:1000F0007365007468656E00696600657865630005
:1001000070726F6700656E6400626567696E003DBE
:1001100000290028002D002B002F002A00000000DD
:100120000000240027002A0000000000250028000D
:100130002B00040404040404040402020202020268
:10014000030303030303010204081020408001029B
:10015000040810200102040810200000000800021A
:1001600001000003040700000000000000005265C9
:100170006164792E004652454552414D3A200000B7
:100180000000002020202020202D4D6963726F4444
:10019000504C205465726D696E616C204D696372BC
:1001A0006F636F6D70757465722053797374656DCC
:1001B00020302E352E36322D464D432028632920FF
:1001C000416C616E204B756269616B2D00202020AF
:1001D000202020202020202020202020202020201F
:1001E000202020202020202020202020202020200F
:1001F00020202020202020202020202020202020FF
:10020000202020202020200020202020202020200E
:1002100020202020202020202020202020202020DE
:1002200020202020202020202020202020202020CE
:1002300020202068747470733A2F2F7562696B2EBA
:10024000746B2F0020202020202020202020202020
:10025000202020202020207C5F7C5F7C5F7C5F7CD6
:100260005F5F5F7C5F7C207C5F5F5F7C5F5F5F5F69
:100270007C207C5F5F7C20207C5F5F5F5F5F7C0019
:10028000202020202020202020202020202020206E
:100290002020207C207C207C207C207C20205F7CF7
:1002A00020205F7C202E207C20207C20207C7C2035
:1002B00020205F5F7C20207C5F5F200020202020AA
:1002C0002020202020202020202020202020207CD2
:1002D00020202020207C5F7C5F5F5F205F5F5F20AD
:1002E0005F5F5F7C202020207C207C20205F2020FE
:1002F0007C20207C20202000202020202020202066
:100300002020202020202020202020205F5F5F5FF1
:100310005F205F202020202020202020202020205F
:100320005F5F5F5F2020205F5F5F5F5F205F5F2018
:100330002020200050524F473A20002062797465F7
:10034000732E002070726F673A2000206279746506
:10035000732E0020737461636B3A20006572726FB4
:1003600072004F6B2E004D6963726F44504C2043F6
:100370006F6D70696C6174696F6E3A2000546865C6
:100380002063616C63756C61746564207374616370
:100390006B20666F72207468652070726F6772617F
:1003A0006D20697320626967676572207468656E85
:1003B0002074686520363420627974657320616C1E
:1003C0006C6F776564004D6963726F44504C2056C2
:1003D00069727475616C204D616368696E65204C4B
:1003E00061756E6368696E673A00526573756C7407
:1003F0003A20004572726F7220537461636B2072F1
:1004000065616368656420302E006572726F723AB0
:1004100020696E707574206C656E676874203E206C
:10042000005055534856200020090A0D002E303147
:100430003233343536373839005F6162636465665C
:100440006768696A6B6C706D6E6F707273747576C5
:100450007778797A4142434445464748494A4B4C6C
:10046000504D4E4F5052535455565758595A30319B
:100470003233343536373839005F6162636465661C
:100480006768696A6B6C706D6E6F70727374757685
:100490007778797A4142434445464748494A4B4C2C
:1004A000504D4E4F5052535455565758595A0000BC
:1004B000FE0F11241FBECFEFD8E0DEBFCDBF12E08C
:1004C000A0E0B1E0EEEFF4E402C005900D92A43E8E
:1004D000B107D9F724E0A4EEB2E001C01D92AF331A
:1004E000B207E1F712E0C9E5D2E004C02197FE01AE
:1004F0000E94851FC835D107C9F70E9433100C949C
:100500007D220C940000DC012D913C91119721304B
:10051000310541F41396ED91FC91608171818281E6
:10052000938108950E9497020E948E1C0895DC0119
:100530002D913C9111972130310529F40E948302BD
:100540000E94261F08951396ED91FC9160817181A0
:1005500082819381089520910D0430910E04281713
:10056000390720F490930E0480930D040895809130
:100570001F04853088F4E82FF0E0EE0FFF1FEB5EDC
:10058000FB4F2091130430911404318320838F5F3B
:1005900080931F0481E0089580E00895AF92BF9298
:1005A000CF92DF92EF92FF920F931F93CF93DF933F
:1005B0006C017B018B01040F151FEB015E01AE186E
:1005C000BF08C017D10759F06991D601ED91FC9190
:1005D0000190F081E02DC6010995892B79F7C501BD
:1005E000DF91CF911F910F91FF90EF90DF90CF900F
:1005F000BF90AF900895CF93DF93EC010E948302E8
:10060000CE01DF91CF910895FC01538D448D252FAC
:1006100030E0842F90E0821B930B541710F0CF969C
:10062000089501970895FC01918D828D981761F0CE
:10063000A28DAE0FBF2FB11D5D968C91928D9F5FE5
:100640009F73928F90E008958FEF9FEF0895FC01C4
:10065000918D828D981731F0828DE80FF11D858D77
:1006600090E008958FEF9FEF0895FC01918D228D0A
:10067000892F90E0805C9F4F821B91098F7399278F
:10068000089580E793E00E94350321E0892B09F467
:1006900020E0822F089580E090E0892B29F00E94CD
:1006A000410381110C9400000895FC01A48DA80F52
:1006B000B92FB11DA35ABF4F2C91848D90E00196A4
:1006C0008F739927848FA689B7892C93A089B189C4
:1006D0008C91837080648C93938D848D981306C065
:1006E0000288F389E02D80818F7D80830895EF92C9
:1006F000FF920F931F93CF93DF93EC0181E0888FDC
:100700009B8D8C8D98131AC0E889F989808185FFAB
:1007100015C09FB7F894EE89FF896083E889F9894D
:1007200080818370806480839FBF81E090E0DF914F
:10073000CF911F910F91FF90EF900895F62E0B8DA2
:1007400010E00F5F1F4F0F731127E02E8C8D8E115D
:100750000CC00FB607FCFACFE889F989808185FFC4
:10076000F5CFCE010E945503F1CFEB8DEC0FFD2F9D
:10077000F11DE35AFF4FF0829FB7F8940B8FEA897F
:10078000FB8980818062CFCF0F931F93CF93DF933C
:100790008C01D0E0C0E0F801EC0FFD1F64916623EE
:1007A00041F080E793E00E947703892B11F02196B6
:1007B000F2CFCE01DF91CF911F910F910895CF938A
:1007C000DF93EC01888D8823B9F0AA89BB89E88979
:1007D000F9898C9185FD03C0808186FD0DC00FB61F
:1007E00007FCF7CF8C9185FFF2CF808185FFEDCF9D
:1007F000CE010E945503E9CFDF91CF910895CF93A9
:10080000DF93FC01CA010197DB01A80FB91F2C91EE
:10081000B0E0A0E032813A171B0641F038F0C38106
:10082000D481CA0FDB1F18821196F4CF1182108277
:10083000223009F44EC038F4222369F12130B1F19D
:10084000DF91CF910895283009F45EC0293071F10D
:100850002330B1F7A381B481CB01840F951FEC0144
:10086000229728812C93A381B48121972881119606
:100870002C93A381B4810497EC01888112968C9308
:10088000CA0105970380F481E02D680F791FDB0111
:100890002C912383D5CFCA0102970380F481E02DE8
:1008A000680F791FEB0128812083CACFC381D481CF
:1008B000DB01A40FB51F12978C918883CA0103979F
:1008C0000380F481E02D680F791FDB012C912183D7
:1008D000B7CFA381B481CB01840F951FEC01229780
:1008E00028812C93A381B4810397EC018881119610
:1008F0008C93CA0104970380F481E02D680F791F5F
:10090000DB012C9122839CCFA381B481CB01840F86
:10091000951FEC01229728812C93A381B481219704
:10092000288111962C93A381B4810497EC018881CE
:1009300012968C93CA010597A381B481680F791F21
:10094000EB01288113962C9321E030E03183208342
:1009500077CFCF93DF9300D0CDB7DEB720913904A6
:1009600030913A042115310511F42FE334E0CE0122
:100970000196821B930B0F900F90DF91CF910895FA
:100980000F931F93CF93DF93EC010E9483020E9489
:100990002D1F70E0AB014A5B5E4FFA01A491CB01C1
:1009A0008E5C9E4FFC0124912223A1F030E0220FA7
:1009B000331FF901E25EFE4F05911491F901E85DE4
:1009C000FE4F259134912FB7F894F8013081A32B75
:1009D000A0832FBF665A7E4FFB016491FA014491B8
:1009E000FC0194919923B9F0662339F0633019F131
:1009F000C0F4613031F1623041F1E92FF0E0EE0FE7
:100A0000FF1FE85DFE4FA591B4918FB7F8949C91BC
:100A1000492B4C938FBFCE01DF91CF911F910F9146
:100A200008956730A9F06830C9F0643031F78091DB
:100A300080008F7D03C0809180008F77809380003D
:100A4000DCCF84B58F7784BDD8CF84B58F7DFBCFC5
:100A50008091B0008F778093B000CFCF8091B000AD
:100A60008F7DF9CFFC0101900020E9F73197AF01AC
:100A7000481B590BBC0180E793E00C94CE028F9287
:100A80009F92AF92BF920F931F93CF93DF93CDB7F7
:100A9000DEB7A1970FB6F894DEBF0FBECDBF19A287
:100AA000423008F44AE08E010F5D1F4F842E912CD6
:100AB000B12CA12CA50194010E94D41DE62FB901EF
:100AC000CA01EA30F4F4E05DD801EE938D01232BE6
:100AD000242B252B79F790E080E0109719F0CD01B9
:100AE0000E943205A1960FB6F894DEBF0FBECDBFAF
:100AF000DF91CF911F910F91BF90AF909F908F90FA
:100B00000895E95CE1CF009711F00C94320590E074
:100B100080E008958AE691E00C943205CF93DF934C
:100B20000E94C403EC010E948A058C0F9D1FDF9177
:100B3000CF910895CF93DF930E943205EC010E947C
:100B40008A058C0F9D1FDF91CF9108958DE691E06E
:100B50000E949A0580911F04882319F08150809388
:100B60001F04089589E791E00E949A0580911F046F
:100B7000882319F0815080931F04E0911F04F0E056
:100B8000EE0FFF1FEB5EFB4F808191819093140469
:100B9000809313040895CF92DF92EF92FF92CF9348
:100BA000DF9397FF1BC06B017C016DE280E793E050
:100BB0000E947703EC0166277727CB016C197D092A
:100BC0008E099F094AE00E943F058C0F9D1FDF910F
:100BD000CF91FF90EF90DF90CF9008954AE0DF91A2
:100BE000CF91FF90EF90DF90CF900C943F05BC0128
:100BF000990F880B990B0C94CB0581EB91E00E9427
:100C000083050E94A9040E94F70587E891E00C94EF
:100C10008305CF93DF930E94F705EC010E948A05BC
:100C20008C0F9D1FDF91CF910895BC0190E080E073
:100C30004AE00C943F058F929F92AF92BF92CF9261
:100C4000DF92EF92FF92CF93DF936B017C01AC01B7
:100C50009B010E94611F882371F08DE891E0DF9174
:100C6000CF91FF90EF90DF90CF90BF90AF909F908B
:100C70008F900C94320546015701E894B7F82FEF96
:100C80003FEF4FE75FE7C501B4010E94611F81118B
:100C90000DC02FEF3FEF4FE75FE7C501B4010E94A2
:100CA000871C18161CF481E991E0D9CF2FEF3FEF94
:100CB0004FE75FE4C701B6010E945C1F18161CF4E1
:100CC00085E991E0CCCF2FEF3FEF4FE75FECC70115
:100CD000B6010E94871C87FDF3CF20E030E0A90118
:100CE000C701B6010E94871CD0E0C0E087FF0AC0A0
:100CF0006DE280E793E00E947703EC01F7FAF0944D
:100D0000F7F8F0942AE037ED43EA5BE3C701B60158
:100D10000E94481E4B015C010E942D1F6B017C014B
:100D20000E948C1C9B01AC01C501B4010E94471EAE
:100D30004B015C014AE0C701B6010E943F05C80FA4
:100D4000D91F6EE280E793E00E947703C80FD91F96
:100D500020E030E040E251E4C501B4010E94ED1C06
:100D60004B015C010E942D1F6B01CB010E941506F7
:100D7000C80FD91FB60190E080E00E948C1C9B0137
:100D8000AC01C501B4010E94471E20E030E040E202
:100D900051E40E94ED1C0E942D1FCB010E941506FC
:100DA0008C0F9D1FDF91CF91FF90EF90DF90CF9040
:100DB000BF90AF909F908F900895CF93DF930E9444
:100DC0001506EC010E948A058C0F9D1FDF91CF91C3
:100DD0000895EF92FF920F931F93CF93DF93CDB7B8
:100DE000DEB7C059D1090FB6F894DEBF0FBECDBF34
:100DF000F82EE92E1F9282E08F9389E991E09F936C
:100E00008F938E010F5F1F4F1F930F930E94DC1F64
:100E1000EF92FF921F930F9300581F4F1F930F9352
:100E20000E94DC1FC8010E9483050FB6F894DEBF44
:100E30000FBECDBFC057DF4F0FB6F894DEBF0FBE59
:100E4000CDBFDF91CF911F910F91FF90EF9008954B
:100E50008F929F92AF92BF92CF92DF92EF92FF92CA
:100E60000F931F93CF93DF937C016B015A01E9012C
:100E700080EA91E00E948305C5010E941506AC1628
:100E8000BD0608F086C0D7018D919C910197A1F510
:100E900084EA91E00E94830508E010E0C8010E9406
:100EA000E906E601CA0DDB1D902E0830110509F098
:100EB0004AC0D7011296BC90BA944E018B0C911C7B
:100EC000B7FC9A94CE018C199D09B7FC5AC0C40195
:100ED0008C1B9D0BF701A381B481A80FB91F2C9126
:100EE00029930380F481E02DE80FF91F808190E0C1
:100EF0000E94E906BA94E6CF88EA91E00E94830551
:100F0000D7011396ED91FC9180819181A281B381EB
:100F100010E000E08F3F9105A105B10509F00CF448
:100F2000BDCF01E010E00097E1E0AE07B1050CF4A1
:100F3000B5CF02E010E00097A105B1400CF4AECFB0
:100F400003E010E0ABCF892D092C000C990BF701C1
:100F5000A381B481A80FB91F2C9129930380F48138
:100F6000E02DE80FF91F808190E00E94E9069A9435
:100F7000FFEF9F12E8CF2FEFA21AB20AC501800F30
:100F8000911F5C01AFEFAA1ABA0AC80ED91EF6016A
:100F90000083C501DF91CF911F910F91FF90EF90DA
:100FA000DF90CF90BF90AF909F908F900895CF9299
:100FB000DF92EF92FF920F931F93CF93DF9300D0B6
:100FC000CDB7DEB78C016B011A8219827C018FEFDD
:100FD000E81AF80AC8010E94AE1D8930F1F4C70171
:100FE0000E94AE1D89837801E3E0EE0EF11CC8017A
:100FF00002960E94AE1D8A8389819A81F6019183AF
:101000008083C7010F900F90DF91CF911F910F91B7
:10101000FF90EF90DF90CF900895F601118210823B
:10102000F0CF1F93CF93DF93182FEB01CB010E94DA
:10103000661C9C0190E0E92FF0E0E217F30738F41A
:10104000EC0FFD1FE491E11739F09F5FF4CF80E0D2
:10105000DF91CF911F91089581E0FACFEF92FF9237
:101060000F931F93CF93DF938C017A01EC01C60F8E
:10107000D71FF80101900020E9F73197E01BF10B31
:10108000CE01801B910B8E179F0768F4B7018991E1
:101090000E9411088111EDCFDF91CF911F910F9127
:1010A000FF90EF90089581E0F7CF2F923F924F92FB
:1010B0005F926F927F928F929F92AF92BF92CF92E8
:1010C000DF92EF92FF920F931F93CF93DF93CDB7F1
:1010D000DEB762970FB6F894DEBF0FBECDBF8C01AE
:1010E000CE0101967C018090110490901204C09072
:1010F0001304D0901404F40101900020E9F7319713
:10110000E819F909CE16DF0608F463C06CEA71E04D
:10111000C8010E94B71FE1E0F0E0D8015096FC93AF
:10112000EE931F97F80187859089892BE1F2B8012A
:1011300082E294E00E94B71FD80151968D919C9154
:10114000529790933404809333041F968D919C9111
:10115000909332048093310480EF91E00E948305E4
:10116000C8010E94830580EB91E00E948305F8018D
:10117000878590890E94F70583EB91E00E948305A3
:10118000D80151968D919C910E94F7058AEB91E0D0
:101190000E94830580911304909114040E94DD063F
:1011A00062960FB6F894DEBF0FBECDBFDF91CF9130
:1011B0001F910F91FF90EF90DF90CF90BF90AF9075
:1011C0009F908F907F906F905F904F903F902F9067
:1011D0000895188AD4010D900020E9F7CD010197F8
:1011E00088199909C816D90608F06AC060911304D5
:1011F00070911404F7012FE011922A95E9F741E06C
:1012000050E0461B570B4C0D5D1D680D791DC70145
:101210000E94CD1F86E091E09A8B898B712C612C06
:10122000B12CA12CA989BA892D903D90BA8BA98B9C
:10123000F70101900020E9F731972F014E185F0860
:10124000C1010E94661C4816590609F069C020E0D9
:10125000822F90E08415950508F056C0F101E80F43
:10126000F91FE4918E0D9F1DDC018C918E1358C0E7
:101270002F5FEECFA114B10409F0BDC0B889B13021
:1012800029F4D0921404C09213044CCF90E080E073
:101290000E940906E8896E2F70E090E080E04AE045
:1012A0000E943F050E948A05E2E0F0E0D8015096D6
:1012B000FC93EE931F975296DC92CE92519732CFC9
:1012C0002889213051F49093140480931304D80199
:1012D00052969C938E93519725CF6CE671E0C8018E
:1012E0000E94B71F82E090E0F801908B8787F4019D
:1012F00001900020E9F73197E819F909D8015296D1
:10130000FC93EE9351970ECFBFEFAB1ABB0AF801D7
:10131000D28AC18A708A6786B701C8010E94B71F46
:10132000BFEF6B1A7B0AE9E26E16710409F07ACFFF
:101330008981712C882329F069E774E00E941108E3
:10134000782EF70101900020E9F73197EE19FF0997
:10135000329740F049E354E061E070E0C7010E9439
:101360002E087822772091F0FFEFAF1ABF0AB7015D
:10137000C8010E94B71FD8015296DC92CE925197B5
:10138000E4E0F0E05096FC93EE931F974DE254E0BA
:1013900070E060E0C7010E942E08882391F0FFEF03
:1013A000AF1ABF0AB701C8010E94B71FD8015296F1
:1013B000DC92CE925197E3E0F0E05096FC93EE93EE
:1013C0001F9748E254E070E060E0C7010E942E08D9
:1013D000882309F44FCFFFEFAF1ABF0AB701C80146
:1013E0000E94B71FD8015296DC92CE925197509628
:1013F0001C921E921F97A88AFFEFCF1ADF0AEACE2F
:101400000F931F93CF93DF938C01EB0169E0CE0123
:101410000E94B61D88E090E00E94E906602FCE0190
:1014200001960E94B61DC80199270E94E906612F06
:10143000CE0102960E94B61D812F90E00E94E9061F
:1014400080EF91E00E949A05CE010396DF91CF9143
:101450001F910F910895CF92DF92EF92FF920F9319
:101460001F93CF93DF937C016B01C0913504D09122
:10147000360410E000E0209759F0B701CE010E9439
:10148000AE1F892B91F18E010D88DE89C02DF3CF1F
:1014900087E190E00E94D118EC01009731F1B7018B
:1014A0000E94B71F1E8A1D8AD88ACF8680EC91E0E1
:1014B0000E948305CE010E94F7058AEC91E00E940C
:1014C0008305CE010E94830581ED91E00E94830592
:1014D00080913504909136040E940906011511058A
:1014E00071F4D0933604C0933504CE01DF91CF91CF
:1014F0001F910F91FF90EF90DF90CF900895F8012A
:10150000D68BC58BF2CF6F927F928F929F92AF92C4
:10151000BF92CF92DF92EF92FF920F931F93CF93E0
:10152000DF93CDB7DEB7CC54D1090FB6F894DEBF48
:101530000FBECDBF7C01E3E19E2E8E01065C1F4FE6
:10154000F801292D11922A95E9F7AA24A394B12C28
:101550002B96BFAEAEAE2B97C8010E9455082B96B6
:101560008EAD9FAD2B978330910509F40FC1893063
:10157000910509F4FEC1049709F07CC00E94B702EE
:1015800047E0C42ED12C882309F476C06E0137E2DF
:10159000C30ED11CF601292D11922A95E9F7BFAA95
:1015A000AEAAC6010E9455088EA99FA9099709F005
:1015B000D8C00E94A605F70170800E94B702882358
:1015C00081F0CE014496FC0111929A94E9F7BCA2F5
:1015D000ABA20E9455088BA19CA10A9711F50E940D
:1015E000B205F701B0808B2D91810E94AB02C6013C
:1015F0000E9455088EA99FA90A97E1F5C09037046B
:10160000D0903804C114D10409F44DC0B801C6010A
:101610000E94AE1F892B09F446C0F601C588D68802
:10162000F1CF0E94B20563E1662E9E012F5F3F4F0E
:10163000590188248394912CC7010E94850E0E9431
:10164000B702882371F2F501262D11922A95E9F748
:10165000998A888AC5010E945508888999898A30A3
:10166000910509F4BCCF889719F40E94A605E4CF30
:101670000E94B205D12CC12CC601C45BDF4F0FB64E
:10168000F894DEBF0FBECDBFDF91CF911F910F91B8
:10169000FF90EF90DF90CF90BF90AF909F908F9092
:1016A0007F906F900895B718F6018189B816B1F050
:1016B0002D968EAD9FAD2D97909334048093330477
:1016C0002B968EAD9FAD2B9790933204809331046F
:1016D000B80182E294E00E94B71FCCCFC114D104BC
:1016E00039F3B11006C0F701808191810196918391
:1016F000808300912004109121047801FFEFEF1AFC
:10170000FF0A67E1C8010E94B61DF0922104E09231
:10171000200469E0C7010E94B61D88E090E00E94A5
:10172000E9066C2DC80102960E94B61DC6019927D4
:101730000E94E9066D2DC80103960E94B61D8D2DED
:1017400090E00E94E90680EF91E00E949A050C5F0C
:101750001F4F109321040093200484E0C82ED12C45
:101760008BCF0E94B205C0903504D0903604C114CE
:10177000D10409F415C1B801C6010E94AE1F892B1E
:1017800009F414C1F601C588D688F1CF6EED71E079
:10179000C8010E94BE1FF80101900020E9F73197AF
:1017A000E01BF10B9E012F5F3F4F69018E179F07D2
:1017B00008F481C04AE050E070E060E0C8010E9497
:1017C000461B4B015C010E94A9040E94F70580EFB3
:1017D00091E00E94830580EE91E00E948305C8019C
:1017E0000E9483058AED91E00E9483058091200488
:1017F000909121040E94DD06F7018081918101967C
:101800009183808300912004109121047801FFEFDF
:10181000EF1AFF0A60E0C8010E94B61DF092210491
:10182000E0922004712C2FEF82169104A104B104E0
:1018300099F094F0772473948114910431E0A30615
:10184000B10454F033E0732E81149104A10481E0BB
:10185000B80614F422E0722E89829A82AB82BC828E
:101860000E5F1F4F672DC7010E94B61D872D90E0A8
:101870000E94E906760148019FEF891A990AF7014B
:10188000B1907F016B2DC8010E94B61D8B2D90E099
:101890000E94E90684018E2D8C19781660F780EF7E
:1018A00091E00E949A05909221048092200493E096
:1018B000C92ED12CE1CE70E060E0C8010E94F6197B
:1018C0004B015C010E94A9040E94F70580EF91E0A2
:1018D0000E94830589EE91E00E948305C8010E9461
:1018E00083058AED91E00E94830580912004909108
:1018F00021040E94DD06F701808191810196918388
:10190000808300912004109121047801FFEFEF1AE9
:10191000FF0A60E0C8010E94B61DF0922104E09227
:10192000200489829A82AB82BC8268E0C7010E944F
:10193000B61D88E090E00E94E906780122E0E20E00
:10194000F11C0A5F1F4FF601B1906F016B2DC701AB
:101950000E94B61D8B2D90E00E94E906FFEFEF1A62
:10196000FF0A0E151F0579F780EF91E00E949A0596
:10197000F0CEC7010E94850E6C01892B09F47ACE46
:10198000F701808191810E94AB02C8010E94550835
:101990002B968EAD9FAD2B970A9709F06BCE6CCE30
:1019A00061E070E0C8010E942B0A6C010E94A9044A
:1019B0000E94F70580EF91E00E94830581E294E0A8
:1019C0000E94C403C8010E9483058AED91E00E9431
:1019D000830580912004909121040E94DD06F70187
:1019E00080819181019691838083809120049091E0
:1019F00021048C010F5F1F4F61E00E94B61D109300
:101A0000210400932004B801C6010E94000A9093AB
:101A100021048093200455E0C52ED12C2DCECF92E9
:101A2000DF92EF92FF920F931F93CF93DF93CDB787
:101A3000DEB763970FB6F894DEBF0FBECDBF8C0143
:101A4000CE0101966C0183E1F60111928A95E9F7C6
:101A500081E090E0998B888BC6010E9455088889A7
:101A600099898A319105C1F5C8010E94830A7C01D8
:101A7000892B09F457C0F801808191810E94AB0243
:101A8000009120041091210469E0C8010E94B61D54
:101A90000F5F1F4F10932104009320040E94A9049C
:101AA0000E94F70580EF91E00E94830582EF91E0AC
:101AB0000E949A050E94A605C70163960FB6F89486
:101AC000DEBF0FBECDBFDF91CF911F910F91FF9071
:101AD000EF90DF90CF900895089721F5C8010E94FC
:101AE000830A7C01892BF1F0F801808191810E94A9
:101AF000AB02009120041091210468E0C8010E940B
:101B0000B61D0F5F1F4F10932104009320040E9405
:101B1000A9040E94F70580EF91E00E94830586EFFB
:101B200091E0C6CF0E94B205C8010E94830A7C01E1
:101B3000892B11F2F801808191810E94AB020E94F1
:101B4000B7028823A1F1C6010E94550888899989A6
:101B5000879751F5C8010E94830A7C01892B21F1E6
:101B6000F801808191810E94AB02F801808191810E
:101B7000019791838083009120041091210469E1F1
:101B8000C8010E94B61D0F5F1F4F109321040093E0
:101B900020040E94A9040E94F70580EF91E00E94B2
:101BA00083058DEF91E084CF0E94B20585CF87E059
:101BB000E82EF12C81CF8F929F92AF92BF92CF925D
:101BC000DF92EF92FF920F931F93CF93DF93CDB7E6
:101BD000DEB763970FB6F894DEBF0FBECDBF4C01E2
:101BE0007B016A010E94B702882309F484C0C60100
:101BF0000E940F0D8C01892B09F469C00E94A90471
:101C00000E94F70580EF91E00E94830585E0881629
:101C1000910409F473C08AE092E00E9483058AED82
:101C200091E00E94830580912004909121040E94FC
:101C3000DD06F601808191810E94AB02F601808170
:101C40009181019791838083A0902004B09021041A
:101C500067E0F5E08F16910409F466E0C5010E9483
:101C6000B61D8FEFA81AB80AB0922104A0922004E2
:101C70000E151F050CF078010E94B70207E010E076
:101C8000882329F1CE01019623E1FC0111922A95C6
:101C9000E9F721E030E0398B288B0E9455088889CC
:101CA00099890597029768F50E94A605A601B701D4
:101CB000888999890E94DB0D8C01892B41F0F601FE
:101CC000808191810E94AB020E151F05E4F0C801CE
:101CD00063960FB6F894DEBF0FBECDBFDF91CF91F4
:101CE0001F910F91FF90EF90DF90CF90BF90AF903A
:101CF0009F908F90089507E010E080CF81E092E000
:101D00008CCF0E94B2058701E2CFCF92DF92EF9293
:101D1000FF920F931F93CF93DF93CDB7DEB76397F7
:101D20000FB6F894DEBF0FBECDBF7C010E94B70294
:101D3000882309F442C0C7010E940F0D8C01892B32
:101D400061F1F701808191810E94AB020E94B7028C
:101D500097E0C92ED12C8823E9F1CE01019623E129
:101D6000FC0111922A95E9F721E030E0398B288BAC
:101D70000E945508888999890597029708F08FC0B5
:101D80000E94A605A701B801888999890E94DB0DE8
:101D90006C01892BA9F410E000E0C80163960FB62E
:101DA000F894DEBF0FBECDBFDF91CF911F910F9191
:101DB000FF90EF90DF90CF90089507E010E0C1CF43
:101DC000F701808191810E94AB02C016D1060CF010
:101DD00086016801F701808191810E94AB020E9417
:101DE000B702882309F464C0CE01019623E1FC0107
:101DF00011922A95E9F721E030E0398B288B0E9477
:101E00005508888999890797029708F04EC00E9463
:101E1000A605C7010E94850E8C01892B09F4BDCF50
:101E20000E94A9040E94F70580EF91E00E948305BB
:101E3000888999890797B1F185E192E00E9483052D
:101E40008AED91E00E948305809120049091210405
:101E50000E94DD06F701808191810E94AB02F701AB
:101E600080819181019791838083E0902004F0909C
:101E700021048889998965E0079709F464E0C7011E
:101E80000E94B61DFFEFEF1AFF0AF0922104E092C4
:101E900020040C151D050CF0680186017ECF0E9400
:101EA000B20597CF81E192E0C9CF0E94B205F5CF8C
:101EB00087E0C82ED12CF1CF1F920F920FB60F9250
:101EC00011242F933F938F939F93AF93BF93809150
:101ED0006C0390916D03A0916E03B0916F033091EC
:101EE0006B0323E0230F2D3758F50196A11DB11D7B
:101EF00020936B0380936C0390936D03A0936E0308
:101F0000B0936F038091670390916803A091690378
:101F1000B0916A030196A11DB11D80936703909350
:101F20006803A0936903B0936A03BF91AF919F9137
:101F30008F913F912F910F900FBE0F901F9018958A
:101F400026E8230F0296A11DB11DD2CF1F920F923A
:101F50000FB60F9211242F933F934F935F936F937C
:101F60007F938F939F93AF93BF93EF93FF9380E7FC
:101F700093E00E945503FF91EF91BF91AF919F9124
:101F80008F917F916F915F914F913F912F910F9022
:101F90000FBE0F901F9018951F920F920FB60F92C1
:101FA00011242F938F939F93EF93FF93E0918003DE
:101FB000F09181038081E0918603F091870382FD97
:101FC0001BC09081809189038F5F8F7320918A035A
:101FD000821741F0E0918903F0E0E059FC4F958FC2
:101FE00080938903FF91EF919F918F912F910F9093
:101FF0000FBE0F901F9018958081F4CFE0E7F3E0BB
:102000001382128288EE93E0A0E0B0E0848395838F
:10201000A683B7838CE591E09183808385EC90E083
:102020009587848784EC90E09787868780EC90E0A2
:10203000918B808B81EC90E0938B828B82EC90E093
:10204000958B848B86EC90E0978B868B118E128E0D
:10205000138E148EEDE0F4E082E090E0948B838B9D
:1020600011A610A60895CF93DF93CDB7DEB7C7545E
:10207000D1090FB6F894DEBF0FBECDBF789484B5FA
:10208000826084BD84B5816084BD85B5826085BD74
:1020900085B5816085BD80916E00816080936E0002
:1020A00010928100809181008260809381008091F4
:1020B00081008160809381008091800081608093A5
:1020C00080008091B10084608093B1008091B00065
:1020D00081608093B00080917A00846080937A0060
:1020E00080917A00826080937A0080917A0081608A
:1020F00080937A0080917A00806880937A001092B1
:10210000C100E0918003F091810382E08083E0913F
:102110007C03F0917D031082E0917E03F0917F03B8
:102120008FEC808310928803E0918403F091850303
:1021300086E08083E0918203F09183038081806157
:102140008083E0918203F0918303808188608083A3
:10215000E0918203F0918303808180688083E09125
:102160008203F091830380818F7D808388EF92E0EA
:102170000E948E058CEB92E00E948E0580E892E032
:102180000E948E0584E492E00E948E0588E092E031
:102190000E948E058DEC91E00E948E0583E891E00F
:1021A0000E948E0582E891E00E948E0581E891E010
:1021B0000E948E0580E891E00E948E058FE791E0F5
:1021C0000E948E0585E791E00E94C4030E94A90445
:1021D0000E9409068EE691E00E948E050E94FD0590
:1021E00087E190E00E94D1187C0181E0D7015196EF
:1021F0008C9351972BEF32E054963C932E93539748
:1022000052968C936EE172E0C7010E94B71F009155
:10221000370410913804F0E0E0E00115110521F0D9
:10222000F80105891689F9CF309709F5F09238043D
:10223000E092370487E190E00E94D1187C0181E0B0
:10224000F701818B20EC34E0348B238B828B64E2AA
:1022500072E0C7010E94B71FE0913704F091380483
:10226000309741F08F010588F689E02DF9CFF68A85
:10227000E58AE0CF0115110509F0D9C1F0923804C3
:10228000E0923704FE0131961F019E01265E3F4F0A
:1022900026963FAF2EAF269780E793E00E94350346
:1022A000892B09F46DC780E793E00E941303182F70
:1022B00080916503909166038038910508F4BDC153
:1022C00020916403211169C70E948A058AE094E085
:1022D0000E94C40380E890E00E94DD0681E08093C4
:1022E0006403612F80E793E00E9477031A3021F0A6
:1022F0001D3091F60E948A05E0916503F091660316
:10230000EC51FD4F108280916403811142C26CE652
:1023100071E082E294E00E94B71F109234041092A0
:10232000330401E010E0109332040093310484EE92
:1023300092E090931204809311041092140410926E
:10234000130410921F0410920E0410920D041092A8
:10235000100410920F0482E090E090932104809387
:1023600020041FA61EA660E00E94B61D83E090E038
:10237000909321048093200460E00E94B61D84E0C5
:1023800090E0909321048093200460E00E94B61DA9
:1023900085E090E090932104809320048BE992E003
:1023A0000E94830584EE92E00E949A0586EC93E0F9
:1023B0000E948E050E94B702882309F467C193E149
:1023C000F92E2696EEADFFAD26972F2D11922A9568
:1023D000E9F71AA709A7CE014A960E94550889A5D0
:1023E0009AA5049709F04AC1D1011D92FA94E9F720
:1023F000198B088BC1010E945508888999890B9710
:1024000009F03CC10E94A605CE018E960E94850E61
:102410008C010097A9F161E070E0049711F070E081
:1024200060E0CE014A960E942B0A7C010E94A9041A
:102430000E94F70580EF91E00E9483058AE292E016
:102440000E9483058AED91E00E948305C7010E94E6
:10245000090680912004909121046C01BFEFCB1AF2
:10246000DB0A66E10E94B61DD0922104C0922004CE
:10247000B601C7010E94000A9093210480932004B2
:1024800080910F04909110048138910520F08DE720
:1024900093E00E94C40380E392E00E949A0586E6DE
:1024A00093E00E94C4030115110509F4F2C0809164
:1024B000310490913204019709F0EBC082E693E079
:1024C0000E94C4030115110539F0809131049091E7
:1024D0003204019709F4E0C081E492E00E94830590
:1024E00080913304909134040E94F7058BE492E0CC
:1024F0000E94830582E294E00E94830584E592E0D5
:102500000E94830580913104909132040E94F70566
:10251000012B09F43EC1809131049091320401975E
:1025200009F037C182E090E00E94AE1D23968FAF84
:10253000239783E090E00E94AE1D24968FAF2497EE
:1025400061E070E024968EAD9FAD24970E948B1FB2
:102550006C011CAE1DAE1EAE1FAE18AE19AE1AAE8B
:102560001BAE1BAA1CAA1DAA84E08DAB9E01245C95
:102570003F4F3FAB2EAB1EA61FA618AA88ABCE01BD
:10258000C8969AAB89AB22961FAE1EAE229785E005
:10259000882E912CF12CE12C0E94A9040E94F705B1
:1025A00080EF91E00E94830580E992E00E9483051C
:1025B000C4010E94150684010F5F1F4FC4010E94D1
:1025C000AE1D28968FAF289788E992E00E94830578
:1025D0002896EFAD2897AE2EB12CC5010E94E906D2
:1025E00080EF91E00E9483052896FFAD2897F8318F
:1025F00008F042C1F501E150FD4E0C94851FD61341
:1026000012153C143C14CB165A17C71741183C142A
:102610003C143C143C143C143C143C143C143C143A
:102620003C143C143C143C143C145F15A415D80114
:102630005696FC92EE92559725CE1F3779F41816D0
:10264000190634F06FE780E793E00E94770324CE09
:102650000197909366038093650343CE20916403B2
:1026600021113FCE9C012F5F3F4F30936603209393
:1026700065038C519D4FDC011C9333CE0E94B20543
:10268000CE018E960E94850E8C01FACE07E010E0F6
:10269000F7CE8CE593E014CF009120041091210433
:1026A0006AE1C8010E94B61D0F5F1F4F10932104FD
:1026B0000093200420910D0430910E0445E0429FC8
:1026C000C001439F900D112490930E0480930D043C
:1026D00083E593E00E94C40380910D0490910E0461
:1026E0000E9415068BE493E00E94C40383E493E008
:1026F0000E94C403809120049091210403970E94BA
:1027000015068BE393E00E948E0560910D0482E034
:1027100090E00E94B61D88E592E00E949A0584E34D
:1027200093E00E94C40302E010E0809120049091A5
:10273000210408171907A0F4C8010E94AE1D90E0FB
:102740000E94E90686E592E00E948305C8010E9486
:1027500015068DE692E00E9483050F5F1F4FE5CFBF
:102760008FE692E00E9483058091200490912104DD
:102770000E94150686E792E00E949A058DE792E096
:102780000E949A05C8CEF7FE0FC083EF93E00E9427
:102790008E050E948A050E94FD0510926603109224
:1027A00065031092640378CD4801F6CE540122E00F
:1027B000A20EB11CC8010E94AE1D782E82EA92E0E2
:1027C0000E948305872D90E00E94F70580EF91E03D
:1027D0000E948305C5010E9415068CEA92E00E94C2
:1027E000830590E080E00EA91FA92DA928171906DE
:1027F00039F030F0F801E80FF91F10820196F3CF9D
:102800001CAA1BAA32E0731609F4C2C0371508F4DB
:1028100062C0772009F4A0C081E0781609F4A6C050
:10282000EEA9FFA960817181828193810E941B06BC
:1028300086E592E00E948305C5010E9415068EEA96
:1028400092E00E9483058BA99CA9EEA9FFA901979C
:1028500009F0E1C060817181828193810E941B0631
:1028600024962EAD3FAD2497A701B601CE01C396A5
:102870000E9428077C0185010E948A050130F1E051
:102880001F0730F428962FAD28972A3109F07BCF07
:102890008AEE93E00E94C40324968EAD9FAD2497E8
:1028A0008E159F0530F0A701B601CE01C3960E9498
:1028B000FF03EEA9FFA960817181828193812BA919
:1028C0003CA92130310509F058C40E941B06C601FD
:1028D0000E946D195ECF98E0791609F474C0A9E0E2
:1028E0007A1639F1B3E07B129BCFC5010E94AE1D71
:1028F000F80180830EA91FA9C40103960E94AE1D92
:10290000D80111968C930EA91FA9C40104960E94A8
:10291000AE1DF80182835401F6E0AF0EB11C0EA982
:102920001FA9C40105960E94AE1DD80113968C9371
:1029300077CFC5010E94AE1DF80180835401F4E0F9
:10294000AF0EB11C0EA91FA9C40103960E94AE1DB3
:10295000D80111968C9364CFB3E08B0E911CC50106
:102960000E94AE1DF801808354015ACFC5010E9418
:10297000AE1DD8018C935401B4E0AB0EB11C0EA96E
:102980001FA9C40103960E94AE1DF801818348CFA0
:10299000C5010E94AE1DD8018C930EA91FA9C401C8
:1029A00003960E94AE1DF80181835401F5E0AF0E3D
:1029B000B11C0EA91FA9C40104960E94AE1DD80126
:1029C00012968C932DCFC5010E94AE1DF801808315
:1029D0000EA91FA9C40103960E94AE1DD80111962D
:1029E0008C930EA91FA9C40104960E94AE1DF80184
:1029F00082835401F6E0AF0EB11C0EA91FA9C401D9
:102A000005960E94AE1DD80113968C9381E090E04C
:102A10009CAB8BAB05CF60817181828193810E94D9
:102A2000CB051ECFBE01605C7F4FC8010E94D70757
:102A30008C012296EEADFFAD2297878590899CABE5
:102A40008BABAEA9BFA981898C93EEA9FFA9229671
:102A5000AEADBFAD229752968C9181832296EEAD9A
:102A6000FFAD2297AEA9BFA9838912968C93AEA918
:102A7000BFA9848913968C9384EB92E00E9483050E
:102A80008BA99CA9EEA9FFA9019791F4608171819E
:102A9000828193810E941B0624962EAD3FAD249720
:102AA000A701B601CE01C3960E9428077C01E4CE9F
:102AB00060817181828193810E94CB05EDCFBE013F
:102AC000605C7F4FC8010E94D7078C012496AEAC92
:102AD000BFAC2497AE14BF0438F0A701B601CE01F5
:102AE000C3960E94FF037C01AEA9BFA92296EEAD5A
:102AF000FFAD22978C91818B11968C911197828BCF
:102B000012968C911297838B13968C91848B8BA940
:102B10009CA9908B87878BEB92E00E94830522967D
:102B20008EAD9FAD22970E94F70583EC92E00E9444
:102B300083052296EEADFFAD229761897289838964
:102B400094890E94CB05B4C11A8219825401B2E063
:102B5000AB0EB11CC8010E94AE1D10E000E0893030
:102B600079F4C5010E94AE1D89835401E4E0AE0EE4
:102B7000B11CC40103960E94AE1D8A8309811A818B
:102B800087EC92E00E948305C8010E94F705249615
:102B90006EAC7FAC249784E12696AEADBFAD269790
:102BA0001D928A95E9F787E1F10111928A95E9F77B
:102BB00084E08B8388878D878A8B8F8B2AE130E036
:102BC0002C0F3D1F3D832C838EE190E08C0F9D1FC9
:102BD0009A878987A2E2B0E0AC0FBD1FBF87AE879E
:102BE000E6E2F0E0EC0FFD1FFC8BEB8B2AE230E01D
:102BF0002C0F3D1F398F288FD80151968C91815011
:102C000027968FAF27972101E5E08E02400C511CDB
:102C10001124912C812C2796FFAD2797F7FD1DC01D
:102C20006E147F0478F025E0289DC001299D900D49
:102C30001124A701B601D201A81BB90BCD010E9436
:102C4000FF037C012796BFAD2797B1502796BFAFF2
:102C50002797EFEF8E1A9E0ADECFD80152968C91FD
:102C60005297882361F051968C915197823009F4E4
:102C700067C0C0F4882379F1813009F45BC080EF2C
:102C800091E00E9483058BA99CA9EEA9FFA9019759
:102C900009F07AC060817181828193810E941B0654
:102CA0009301E2CD843009F460C008F452C085304D
:102CB00031F75396ED91FC918E010B5E1F4F9E01F3
:102CC000205F3F4FAE01455F5F4FBE016A5F7F4FA0
:102CD000C101099504C05396ED91FC9109950097A7
:102CE00071F2FC01208131813CAB2BAB22812DABF9
:102CF0004EA95FA9A381B4812C91DA012C934EA92E
:102D00005FA9A381B48111962C91FA0121834EA968
:102D10005FA9FC01A381B48112962C91DA0112966D
:102D20002C932EA93FA9A381B48113968C91F9010C
:102D30008383A5CF5396ED91FC91C1010995CFCF27
:102D40005396ED91FC91BE016A5F7F4FC1010995D9
:102D5000C6CF5396ED91FC91AE01455F5F4FBE012A
:102D60006A5F7F4FC1010995BACF5396ED91FC91EF
:102D70009E01205F3F4FAE01455F5F4FBE016A5F1E
:102D80007F4FC1010995ABCF6081718182819381B1
:102D90000E94CB0585CF2496AEACBFAC2497AE1471
:102DA000BF0488F0A701B601CE01C3960E94FF03BD
:102DB0007C01A816B90638F0AC01B601CE018E969A
:102DC0000E94FF037C01E9A9FAA9608171818281D7
:102DD00093812EA53FA521303105B9F50E941B0630
:102DE0008FEC92E00E9483058BA99CA9EEA9FFA914
:102DF000019771F560817181828193810E941B0628
:102E000083ED92E00E9483058BA99CA98EA89FA8C0
:102E1000019721F08EA59FA5019709F5CE018E9609
:102E20000E9483022B013C01CE01C3960E948302C3
:102E30009B01AC01C301B2010E94481E21E030E0B9
:102E40003CAB2BABD4016C9312C10E94CB05C8CF15
:102E500060817181828193810E94CB05D1CFCE01A7
:102E60008E960E9497022B013C01CE01C3960E94D0
:102E70009702460E571E681E791E1CAA1BAAF40153
:102E80004082EEA9FFA95182EEA9FFA96282EEA9B4
:102E9000FFA97382EEA9FFA960817181828193816C
:102EA0002BA93CA92130310509F04BCE0E941B060D
:102EB0009501F6CD2496AEACBFAC2497AE14BF04FA
:102EC00088F0A701B601CE01C3960E94FF037C01E2
:102ED000A816B90638F0AC01B601CE018E960E9454
:102EE000FF037C01E9A9FAA9608171818281938144
:102EF0002EA53FA52130310589F50E941B0687EDDF
:102F000092E00E9483058BA99CA9EEA9FFA90197D5
:102F100041F560817181828193810E941B0683ED5E
:102F200092E00E9483058BA99CA98EA89FA8019777
:102F300021F08EA59FA50197D9F4CE018E960E940F
:102F400083022B013C01CE01C3960E9483029B01A8
:102F5000AC01C301B2010E94471E70CF0E94CB0595
:102F6000CECF60817181828193810E94CB05D7CFC2
:102F7000CE018E960E9497022B013C01CE01C39692
:102F80000E949702461A570A680A790A76CF249651
:102F9000AEACBFAC2497AE14BF0488F0A701B60155
:102FA000CE01C3960E94FF037C01A816B90638F033
:102FB000AC01B601CE018E960E94FF037C01E9A907
:102FC000FAA960817181828193812EA53FA521306C
:102FD000310589F50E941B068BED92E00E94830566
:102FE0008BA99CA9EEA9FFA9019741F56081718188
:102FF000828193810E941B0683ED92E00E948305EB
:103000008BA99CA98EA89FA8019721F08EA59FA5AA
:103010000197D9F4CE018E960E9483022B013C01C8
:10302000CE01C3960E9483029B01AC01C301B20191
:103030000E94ED1C03CF0E94CB05CECF6081718131
:10304000828193810E94CB05D7CFCE018E960E94BC
:1030500097022B013C01CE01C3960E949702A30167
:1030600092010E94C41D1CAA1BAAF4016083EEA950
:10307000FFA97183EEA9FFA98283EEA9FFA993831B
:1030800009CF2496AEACBFAC2497AE14BF0488F031
:10309000A701B601CE01C3960E94FF037C01A816CA
:1030A000B90638F0AC01B601CE018E960E94FF033E
:1030B0007C01E9A9FAA960817181828193812EA5A1
:1030C0003FA52130310589F50E941B068FED92E066
:1030D0000E9483058BA99CA9EEA9FFA9019741F540
:1030E00060817181828193810E941B0683ED92E051
:1030F0000E9483058BA99CA98EA89FA8019721F007
:103100008EA59FA50197D9F4CE018E960E948302C9
:103110002B013C01CE01C3960E9483029B01AC01AE
:10312000C301B2010E94B41E89CE0E94CB05CECF4E
:1031300060817181828193810E94CB05D7CFCE01BE
:103140008E960E9497022B013C01CE01C3960E94ED
:1031500097029B01AC01C301B2010E94661F1CAA29
:103160001BAAF4012083EEA9FFA93183EEA9FFA9D0
:103170004283EEA9FFA953838DCE0E94CB05A7CB36
:1031800080E090E0892B09F480C80E9441038823E5
:1031900009F47BC80E94000078C81F3709F0A1C855
:1031A0004ECA0F931F93CF93DF938230910510F493
:1031B00082E090E0E0913B04F0913C0430E020E0BC
:1031C000B0E0A0E0309799F42115310509F44AC028
:1031D000281B390B24303105D8F58A819B81611574
:1031E000710589F1FB0193838283FE0111C0408147
:1031F00051810281138148175907E0F04817590798
:1032000099F4109761F012960C93129713961C93F1
:103210003296CF01DF91CF911F910F9108950093C6
:103220003B0410933C04F4CF2115310551F04217B3
:10323000530738F0A901DB019A01BD01DF01F80154
:10324000C1CFEF01F9CF90933C0480933B04CDCFE5
:10325000FE01E20FF31F81939193225031093983CC
:103260002883D7CF2091390430913A04232B41F49D
:10327000209102013091030130933A0420933904E4
:1032800020910001309101012115310541F42DB744
:103290003EB74091040150910501241B350BE0918C
:1032A0003904F0913A04E217F307A0F42E1B3F0B08
:1032B0002817390778F0AC014E5F5F4F24173507A8
:1032C00048F04E0F5F1F50933A04409339048193A6
:1032D00091939FCFF0E0E0E09CCFCF93DF930097F6
:1032E000E9F0FC01329713821282A0913B04B09165
:1032F0003C04ED0130E020E01097A1F42081318101
:10330000820F931F2091390430913A04281739070E
:1033100009F061C0F0933A04E0933904DF91CF9152
:103320000895EA01CE17DF07E8F54A815B819E0127
:1033300041155105B1F7E901FB83EA8349915991A0
:10334000C40FD51FEC17FD0761F4808191810296AF
:10335000840F951FE90199838883828193819B83E0
:103360008A83F0E0E0E012968D919C91139700978C
:10337000B9F52D913C911197CD010296820F931FC3
:103380002091390430913A042817390739F63097DB
:1033900051F510923C0410923B04B0933A04A09370
:1033A0003904BCCFD383C28340815181840F951FE0
:1033B000C817D90761F44E5F5F4F88819981480F24
:1033C000591F518340838A819B8193838283211576
:1033D000310509F0B0CFF0933C04E0933B049ECF5D
:1033E000FD01DC01C0CF13821282D7CFB0E0A0E094
:1033F000ECEFF9E10C94071E5C017B01611571058E
:1034000019F0DB018D939C9385010F5F1F4FF50130
:10341000D0818D2F90E00E945D1C6C01892BB9F545
:10342000DD32B9F50F5F1F4FD5011196DC91C1E078
:103430005801F1E0AF1AB10843E050E060E770E0F6
:10344000C5010E946F1C892B69F5680182E0C80ED6
:10345000D11C45E050E06BE670E0C6010E946F1C95
:10346000892B21F4680197E0C90ED11CE114F10405
:1034700019F0D701CD92DC9260E070E080E89FEF18
:10348000C111FFC060E070E080E89FE7FAC058011A
:10349000BBCFDB3229F485010E5F1F4FF501D181CF
:1034A000C0E0C6CF43E050E068E670E0C5010E948E
:1034B0006F1C892BE9F0F80110E000E020E030E01B
:1034C000A9015F01B0ED8B2E8D0E89E08815C8F142
:1034D0009C2E689491F88C2F8870C2FF16C08111C1
:1034E00002C00F5F1F4F3196D501DC91C92DE9CF86
:1034F000E114F10429F00E5F1F4FF70111830083DF
:1035000060E070E080EC9FE7BCC0882311F00150C0
:103510001109A5E0B0E00E94F61D9B01AC01220F4D
:10352000331F441F551F280D311D411D511D2839C2
:1035300099E93907490799E15907A8F2C6609C2E15
:10354000D2CFAEEF8A1206C0C3FD3CC09C2E689459
:1035500093F8C9CFDF7DD534A9F580818D3239F458
:10356000C061DF011296818162E070E006C0DF0178
:103570008B32C1F3119661E070E080535D01A61AB1
:10358000B70A8A30F8F4E0E8CE16ECE0DE065CF428
:10359000B601660F771F660F771FC60ED71ECC0CBD
:1035A000DD1CC80ED11C5D01FFEFAF1ABF0A8C9164
:1035B00080538A30A8F1C4FF03C0D194C194D108CC
:1035C0000C0D1D1DC1FF09C0E114F10431F081E0B3
:1035D000A81AB108D701AD92BC92CA01B9010E94E4
:1035E0008C1CC370C33009F490584B015C0120E07F
:1035F00030E0A9010E94871C882309F440C0CFE96C
:10360000D0E017FF05C0119501951109C7E8D0E07A
:103610006E01B8E1CB1AD10880E2E82EF12C0FC080
:10362000D501B1CFFE0125913591459154910E19E7
:103630001F09C501B4010E94ED1C4B015C01D501BD
:10364000C4010E151F0574F72497F594E794CC1662
:10365000DD06A9F78A2F880F8B2F881F8F3F49F02F
:1036600020E030E0A901C501B4010E94871C81114E
:1036700006C082E290E090933E0480933D04C50131
:10368000B401CDB7DEB7ECE00C94231EB0E0A0E0AF
:10369000ECE4FBE10C94021E5C016B017A01611504
:1036A000710519F0FB0191838083E114F10451F05D
:1036B000C7010297839730F040E030E020E090E0CF
:1036C00072C05E01E5012196F5011081812F90E025
:1036D0000E945D1C892BA9F71D3201F52196F50189
:1036E000118101E0E114F10409F4DAC0F0E1EF1610
:1036F000F10409F082C0103359F488818F7D883538
:1037000009F076C0198122960260F0E1EF2EF12CCB
:10371000812C912CA12C88E0B82E8CC01B3221F476
:10372000E5012296F501118100E0DCCFEAE0EE161A
:10373000F10409F4BBC0F0E1EF16F10409F06DC02B
:10374000E7CF78E0E72EF12C812C912CA12C60E1C1
:10375000B62E70C03FE9310F3A3128F439EA332EE2
:1037600080C021E09AC0302F3170C114D10431F0F3
:10377000222309F12197F601D183C08327FF21C0BD
:1037800060E070E080E090E8311104C06FEF7FEFFF
:103790008FEF9FE722E230E030933E0420933D0418
:1037A000462F372F282F642F732F822FCDB7DEB7E8
:1037B000E1E10C941E1E01FF04C02297F601D183A3
:1037C000C083332341F090958095709561957F4F2C
:1037D0008F4F9F4FE5CF97FFE3CF82E290E090932A
:1037E0003E0480933D046FEF7FEF8FEF9FE7D8CFCC
:1037F00010E3E114F10409F4A4CF28E0E216F10487
:1038000009F4A2CF0CF092CF812C912CA12CE0E4F2
:10381000BE2E82E0E816F10469F060E070E080E01E
:1038200090E897010F2C000C440B550B0E94D41DFF
:1038300049015A0120E060E070E0CB0127010F2C24
:10384000000C66087708FE0150ED352E310E39E088
:10385000331540F43FEB310F3A3108F07BCF49ECA0
:10386000342E310E3E141F040CF07DCF27FD15C001
:1038700086169706A806B90678F0A30192010E9461
:10388000C41D630D711D811D911D61307105810580
:1038900020E8920708F465CF2FEF21961081D3CF4F
:1038A000103309F42ACF2AE0E22EF12C9CEC892E69
:1038B000982CA82C9CE0B92EBDCF91110C945A1DC8
:1038C000803219F089508550C8F70895FC010590A1
:1038D0000020E9F7809590958E0F9F1F0895FB01BA
:1038E000DC014150504088F08D9181341CF08B35C3
:1038F0000CF4805E659161341CF06B350CF4605EF5
:10390000861B611171F3990B0895881BFCCF0E94EF
:10391000C91C08F481E00895E89409C097FB3EF4BF
:1039200090958095709561957F4F8F4F9F4F99230C
:10393000A9F0F92F96E9BB279395F695879577958A
:103940006795B795F111F8CFFAF4BB0F11F460FF4A
:103950001BC06F5F7F4F8F4F9F4F16C0882311F0A2
:1039600096E911C0772321F09EE8872F762F05C0B6
:10397000662371F096E8862F70E060E02AF09A9551
:10398000660F771F881FDAF7880F9695879597F946
:103990000895990F0008550FAA0BE0E8FEEF1616E0
:1039A0001706E807F907C0F012161306E407F50733
:1039B00098F0621B730B840B950B39F40A2661F0A7
:1039C000232B242B252B21F408950A2609F4A1404A
:1039D000A6958FEF811D811D08950E94001D0C94F6
:1039E000741D0E94661D38F00E946D1D20F0952305
:1039F00011F00C945D1D0C94631D11240C94A81DF2
:103A00000E94851D70F3959FC1F3950F50E0551FDF
:103A1000629FF001729FBB27F00DB11D639FAA2723
:103A2000F00DB11DAA1F649F6627B00DA11D661F72
:103A3000829F2227B00DA11D621F739FB00DA11D93
:103A4000621F839FA00D611D221F749F3327A00D4D
:103A5000611D231F849F600D211D822F762F6A2FE9
:103A600011249F5750409AF0F1F088234AF0EE0F4E
:103A7000FF1FBB1F661F771F881F91505040A9F77B
:103A80009E3F510580F00C945D1D0C94A81D5F3F76
:103A9000E4F3983ED4F3869577956795B795F795B7
:103AA000E7959F5FC1F7FE2B880F911D969587952F
:103AB00097F9089599278827089597F99F6780E8CF
:103AC00070E060E008959FEF80EC089500240A9470
:103AD0001616170618060906089500240A941216E9
:103AE0001306140605060895092E0394000C11F41C
:103AF000882352F0BB0F40F4BF2B11F460FF04C0C9
:103B00006F5F7F4F8F4F9F4F089557FD9058440F21
:103B1000551F59F05F3F71F04795880F97FB991F2C
:103B200061F09F3F79F087950895121613061406E9
:103B3000551FF2CF4695F1DF08C016161706180676
:103B4000991FF1CF86957105610508940895E89451
:103B5000BB2766277727CB0197F90895F999FECF00
:103B600092BD81BDF89A992780B50895262FF999BD
:103B7000FECF1FBA92BD81BD20BD0FB6F894FA9A50
:103B8000F99A0FBE01960895DB018F939F930E94CF
:103B9000F61DBF91AF91A29F800D911DA39F900D27
:103BA000B29F900D11240895A1E21A2EAA1BBB1BEF
:103BB000FD010DC0AA1FBB1FEE1FFF1FA217B307F9
:103BC000E407F50720F0A21BB30BE40BF50B661F0F
:103BD000771F881F991F1A9469F7609570958095D3
:103BE00090959B01AC01BD01CF0108950E94381E44
:103BF000A59F900DB49F900DA49F800D911D112441
:103C000008952F923F924F925F926F927F928F9280
:103C10009F92AF92BF92CF92DF92EF92FF920F935B
:103C20001F93CF93DF93CDB7DEB7CA1BDB0B0FB665
:103C3000F894DEBF0FBECDBF09942A883988488822
:103C40005F846E847D848C849B84AA84B984C884B8
:103C5000DF80EE80FD800C811B81AA81B981CE0FAF
:103C6000D11D0FB6F894DEBF0FBECDBFED01089594
:103C7000A29FB001B39FC001A39F700D811D1124AD
:103C8000911DB29F700D811D1124911D08955058F2
:103C9000BB27AA270E945F1E0C94741D0E94661DFC
:103CA00038F00E946D1D20F039F49F3F19F426F47E
:103CB0000C94631D0EF4E095E7FB0C945D1DE92F59
:103CC0000E94851D58F3BA1762077307840795078A
:103CD00020F079F4A6F50C94A71D0EF4E0950B2EB8
:103CE000BA2FA02D0B01B90190010C01CA01A0014E
:103CF0001124FF27591B99F0593F50F4503E68F1A9
:103D00001A16F040A22F232F342F4427585FF3CFE9
:103D1000469537952795A795F0405395C9F77EF4BA
:103D20001F16BA0B620B730B840BBAF09150A1F003
:103D3000FF0FBB1F661F771F881FC2F70EC0BA0F89
:103D4000621F731F841F48F4879577956795B79511
:103D5000F7959E3F08F0B0CF9395880F08F099270C
:103D6000EE0F9795879508950E94C81E0C94741DB8
:103D70000E946D1D58F00E94661D40F029F45F3FBF
:103D800029F00C945D1D51110C94A81D0C94631D19
:103D90000E94851D68F39923B1F3552391F3951B78
:103DA000550BBB27AA2762177307840738F09F5F5C
:103DB0005F4F220F331F441FAA1FA9F335D00E2EC9
:103DC0003AF0E0E832D091505040E695001CCAF736
:103DD0002BD0FE2F29D0660F771F881FBB1F2617F9
:103DE00037074807AB07B0E809F0BB0B802DBF01D0
:103DF000FF2793585F4F3AF09E3F510578F00C949F
:103E00005D1D0C94A81D5F3FE4F3983ED4F38695A6
:103E100077956795B795F7959F5FC9F7880F911DBF
:103E20009695879597F90895E1E0660F771F881FAB
:103E3000BB1F621773078407BA0720F0621B730B5E
:103E4000840BBA0BEE1F88F7E09508950E942D1F92
:103E50006894B1110C94A81D08950E948D1D88F0DE
:103E60009F5798F0B92F9927B751B0F0E1F0660F3E
:103E7000771F881F991F1AF0BA95C9F714C0B1307F
:103E800091F00E94A71DB1E008950C94A71D672F23
:103E9000782F8827B85F39F0B93FCCF386957795AE
:103EA0006795B395D9F73EF4909580957095619597
:103EB0007F4F8F4F9F4F08950E94C91C08F48FEFCA
:103EC00008950E94C91C880B990B0895052E97FB35
:103ED0001EF400940E947D1F57FD07D00E94D41D40
:103EE00007FC03D04EF40C947D1F509540953095FF
:103EF00021953F4F4F4F5F4F089590958095709556
:103F000061957F4F8F4F9F4F0895EE0FFF1F0590D4
:103F1000F491E02D09940F931F93CF93DF93869F25
:103F20008001879F100D969F100D1124C8010E94DB
:103F3000D118EC01009729F0A80170E060E00E9420
:103F4000A71FCE01DF91CF911F910F910895DC0142
:103F500001C06D9341505040E0F70895FB01DC0132
:103F60008D91019080190110D9F3990B0895FB01EF
:103F7000DC0101900D920020E1F70895DC015D91D4
:103F8000552331F0FB01019005160110E1F7B9F757
:103F9000809590958A0F9B1F0895FB01DC0141508D
:103FA000504048F001900D920020C9F701C01D92C9
:103FB00041505040E0F70895AEE0B0E0E2EEFFE19E
:103FC0000C940F1E0D891E8986E08C831A83098349
:103FD0008FEF9FE79E838D83AE01475E5F4F6F89B2
:103FE000788DCE0101960E94FF1F2F813885020F28
:103FF000131FF80110822E96E4E00C942B1EABE008
:10400000B0E0E5E0F0E20C94011E7C013B018A0186
:10401000FC0117821682838181FFC8C1CE010196FF
:104020005C01F7019381F30193FD859193FF8191E9
:104030003F01882309F453C1853239F493FD8591FA
:1040400093FF81913F01853229F4B70190E00E94EE
:10405000EF21E7CF912C212C312CFFE1F31538F023
:104060008B3211F190F4803209F1833229F137FC5F
:104070003CC020ED280F2A3050F536FE20C08AE0E3
:10408000989E200D1124922E06C08D3291F080331F
:1040900071F7689430F8F30193FD859193FF819156
:1040A0003F018111DACF21C0689431F8689432F869
:1040B000F2CF689433F8EFCF689434F8ECCFEAE0AD
:1040C0002E9E200D1124222E689435F8E4CF8E32D6
:1040D00029F436FC04C1689436F8DDCF8C3619F427
:1040E000689437F8D8CF8836B1F2982F9F7D9554D1
:1040F0009330E0F08336A1F18337C1F1833509F0C5
:1041000063C02801F2E04F0E511CF801C080D1803D
:10411000692D70E036FC02C06FEF7FEFC6010E9490
:10412000D9214C01689437F882010AC00C5F1F4FF7
:10413000FFE3F98388248394912C6501E89437F890
:1041400033FE2DC0522C8114910471F5552009F4D1
:1041500068CFB70180E290E00E94EF215A94F6CF39
:10416000F801808189830E5F1F4FE4CF2801F2E0C0
:104170004F0E511CF801C080D180692D70E036FCD3
:1041800002C06FEF7FEFC6010E94E4214C01820163
:10419000D5CFB70180E290E00E94EF212A94281445
:1041A000190409F0B0F7CECFF60137FC859137FE40
:1041B00081916F01B70190E00E94EF2151105A9454
:1041C000F1E08F1A9108BFCF843619F0893609F0D3
:1041D00077C0F80137FE6BC0608171818281938165
:1041E0000C5F1F4FF32DFF763F2E97FF09C0909570
:1041F0008095709561957F4F8F4F9F4F689437F8EA
:104200002AE030E0A5010E941F22C82ECA188C2C7B
:10421000432C36FE0CC0E89440F8C91440F434FE38
:1042200005C032FC03C0F32DFE7E4F2E892C44FEC8
:1042300095C0FE01EC0DF11D8081803309F087C02F
:10424000242D297E422E842D8870582E43FC95C043
:1042500040FE8FC09C2C821418F42C0C922C9818C1
:1042600044FE91C0B70180E390E00E94EF2142FE3E
:1042700009C088E790E041FE02C088E590E0B70100
:104280000E94EF21C91408F48AC0CA94D12C9FEF70
:10429000C91AD90ACA0CDB1CF60182916F01B70159
:1042A00090E00E94EF21AC14BD04B1F74FCF6081C4
:1042B0007181072E000C880B990B0E5F1F4F92CF58
:1042C000D32CE894D4F82AE030E0853739F1232D57
:1042D000297FD22E8F3601F148F48835A9F0F701F5
:1042E000868197812B96E2E10C941D1E803749F060
:1042F0008837A9F7D4FE02C06894D2F820E130E0F4
:104300000DC06894D4F8F6CF34FE03C0822F8660C7
:10431000D82E20E132E002C028E030E0F801D7FEDC
:104320000FC060817181828193810C5F1F4FA50155
:104330000E941F22C82ECA183D2CE89437F867CF78
:104340006081718190E080E00E5F1F4FF0CF42FCF2
:1043500002C0839478CF8394839475CF842D86781C
:1043600009F471CFF6CFB70180E290E00E94EF210F
:1043700083948214C0F3512C73CF522C581882149A
:1043800008F46ECFF8CF842D867809F47BCF8BE2CA
:1043900041FE80E247FC8DE2B70190E071CFB701AA
:1043A00080E390E00E94EF219A946CCF8FEF9FEF13
:1043B00099CFFC010590615070400110D8F78095AD
:1043C00090958E0F9F1F0895FC01615070400190E1
:1043D0000110D8F7809590958E0F9F1F08950F9329
:1043E0001F93CF93DF93182F092FEB018B8181FD52
:1043F00009C01FEF0FEF812F902FDF91CF911F91F9
:104400000F91089582FF14C02E813F818C819D8180
:10441000281739073CF4E881F981CF010196998387
:10442000888310838E819F8101969F838E83E3CF43
:10443000E885F985812F0995892BA1F3DACFFA0157
:10444000AA27283051F1203181F1E8946F936E7FD3
:104450006E5F7F4F8F4F9F4FAF4FB1E03ED0B4E0C4
:104460003CD0670F781F891F9A1FA11D680F791F05
:104470008A1F911DA11D6A0F711D811D911DA11D16
:1044800020D009F468943F912AE0269F1124301926
:10449000305D3193DEF6CF010895462F4770405DC1
:1044A0004193B3E00FD0C9F7F6CF462F4F70405D70
:1044B0004A3318F0495D31FD4052419302D0A9F7CB
:1044C000EACFB4E0A6959795879577956795BA95C5
:1044D000C9F700976105710508959B01AC010A2E8B
:1044E00006945795479537952795BA95C9F7620F62
:0E44F000731F841F951FA01D0895F894FFCF21
:1044FE0000003F0480001D011D011D011D011D0155
:10450E001B01190117011501130111010F010901F9
:10451E0005010001FB00F800F300EE00E800E400E6
:10452E00E100DE00D900D600D400D000CC00C900D6
:10453E00C500C000BC00B700B400B100AF00AC00B5
:10454E00AA00A700A500A300000000007703CE027A
:10455E000403DF033503130327030D0A003E3E3E1B
:10456E003E20436F6D6D6974003C3C3C3C20526FA5
:10457E006C6C6261636B00293E3E3E20006E616E84
:10458E0000696E66006F76660025252E256458003C
:10459E0053503A0020442000204C2000454F460046
:1045AE002028002920636F6C3A0020706F733A0048
:1045BE004E45575641523A204000204465663A20F7
:1045CE000020526F6F743A20400020503A002E00A7
:1045DE0050555348284C29200050555348284429FB
:1045EE0020004E4F54004E454741544500504F5702
:1045FE00004D554C5449504C590044495649444578
:10460E000041444400535542545241435400707289
:10461E00696E7400626C696E6B0053544F524500A4
:10462E00436F6D70696C6174696F6E20494E463AC6
:10463E000020636F6C756D6E3A2000206E6561729E
:10464E003A20270027203A0048657861646563693F
:10465E006D616C2050726F6772616D3A002C007341
:10466E00697A653A2000206279746573004D69633A
:10467E00726F44504C2042797465636F64653A00E2
:10468E0020416464723A2000204F50436F64653AB3
:10469E002000204D61726B65723A20003B00505530
:1046AE00534820005055534856200053544F5245FE
:1046BE0020400020563A00474F53554220400020DC
:1046CE002B2000203D2000202D20002078200020CF
:0446DE002F20000089
:00000001FF
