:100000000C9433020C945B020C945B020C945B0224
:100010000C945B020C945B020C945B020C945B02EC
:100020000C945B020C945B020C945B020C945B02DC
:100030000C945B020C945B020C945B020C945B02CC
:100040000C94DB0E0C945B020C944B0F0C94250F5C
:100050000C945B020C945B020C945B020C945B02AC
:100060000C945B020C945B0207634236B79BD8A7E3
:100070001A39685618AEBAAB558C1D3CB7CC5763CD
:10008000BD6DEDFD753EF6177231BF000000803F7B
:1000900008000000BE922449123EABAAAA2ABECD97
:1000A000CCCC4C3E00000080BEABAAAAAA3E000009
:1000B0000000BF000000803F000000000008417801
:1000C000D3BB4387D1133D190E3CC3BD4282AD2B38
:1000D0003E68EC8276BED98FE1A93E4C80EFFFBE30
:1000E00001C4FF7F3F00000000004E414E494E49D1
:1000F0005459494E46CDCCCC3D0AD7233C17B7D1F5
:100100003877CC2B329595E6241FB14F0A0000209A
:10011000410000C84200401C4620BCBE4CCA1B0E19
:100120005AAEC59D742C005E003C3D003C003E3D37
:10013000003E00213D003D3D00786E6F72006E6F05
:1001400072006E616E6400786F72006F7200616E93
:1001500064006E6F74003B00667800737465700015
:10016000746F00646F00666F72007768696C650079
:10017000656C7365007468656E0069660065786516
:10018000630070726F6700656E6400626567696E18
:10019000003D00290028002D002B002F002A000020
:1001A00052656164792E004652454552414D3A20D0
:1001B00000004D6963726F44504C205465726D6944
:1001C0006E616C20302E342E33322D464D4320424A
:1001D0007920416C616E204B756269616B00202053
:1001E000202020202020202020202020202020200F
:1001F00020202020202020202020202020202020FF
:10020000202020202020002020202020202020200E
:100210002020202020202020202020202020206896
:10022000747470733A2F2F7562696B2E746B2F0084
:100230007C5F7C5F7C5F7C5F7C5F5F5F7C5F7C2042
:100240007C5F5F5F7C5F5F5F5F7C207C5F5F7C20AB
:10025000207C5F5F5F5F5F7C007C207C207C207C5B
:10026000207C20205F7C20205F7C202E207C202092
:100270007C20207C7C2020205F5F7C20207C5F5FB6
:1002800020007C20202020207C5F7C5F5F5F205F3F
:100290005F5F205F5F5F7C202020207C207C20200F
:1002A0005F20207C20207C20202000205F5F5F5F7B
:1002B0005F205F20202020202020202020202020C0
:1002C0005F5F5F5F2020205F5F5F5F5F205F5F2079
:1002D000202020002D2D2D2D2D2D2D2D2D2D2D2DA2
:1002E0002D2D2D2D2D2D2D2D4D6963726F44504CCC
:1002F0002042797465636F64652D2D2D2D2D2D2D74
:100300002D2D2D2D2D2D2D2D2D2D2D2D2D00505202
:100310004F473A20002062797465732E0020707276
:100320006F673A20002062797465732E0020737421
:1003300061636B3A20006572726F72004F6B2E0022
:100340004D6963726F44504C20436F6D70696C61EE
:1003500074696F6E3A20005468652063616C637540
:100360006C6174656420737461636B20666F7220C6
:100370007468652070726F6772616D2069732062A6
:100380006967676572207468656E207468652036D9
:100390003420627974657320616C6C6F77656400DA
:1003A000526573756C743A20004572726F722053F7
:1003B0007461636B207265616368656420300065F9
:1003C00072726F723A20696E707574206C656E6718
:1003D0006874203E20005055534856200020090ADA
:1003E0000D002E30313233343536373839005F6105
:1003F00062636465666768696A6B6C706D6E6F7066
:1004000072737475767778797A41424344454647EA
:1004100048494A4B4C504D4E4F50525354555657E5
:1004200058595A30313233343536373839005F61F4
:1004300062636465666768696A6B6C706D6E6F7025
:1004400072737475767778797A41424344454647AA
:1004500048494A4B4C504D4E4F50525354555657A5
:1004600058595A007D0F11241FBECFEFD8E0DEBFD0
:10047000CDBF12E0A0E0B1E0ECE8F6E402C00590E8
:100480000D92A23AB107D9F723E0A2EAB2E001C087
:100490001D92AD3FB207E1F712E0C3E3D2E004C022
:1004A0002197FE010E944C20C233D107C9F70E9458
:1004B000B20F0C9444230C940000DC012D913C916C
:1004C00011972130310541F41396ED91FC91608133
:1004D00071818281938108950E9471020E94D01BD4
:1004E0000895DC012D913C9111972130310529F4BB
:1004F0000E945D020E94681E08951396ED91FC9182
:10050000608171818281938108952091CB03309124
:10051000CC032817390720F49093CC038093CB03A6
:1005200008958091DD03853088F4E82FF0E0EE0F28
:10053000FF1FED52FC4F2091D1033091D203318344
:1005400020838F5F8093DD0381E0089580E008952C
:10055000AF92BF92CF92DF92EF92FF920F931F93D1
:10056000CF93DF936C017B018B01040F151FEB010F
:100570005E01AE18BF08C017D10759F06991D601C6
:10058000ED91FC910190F081E02DC6010995892B38
:1005900079F7C501DF91CF911F910F91FF90EF90F7
:1005A000DF90CF90BF90AF900895FC01538D448DA4
:1005B000252F30E0842F90E0821B930B541710F00E
:1005C000CF96089501970895FC01918D828D98171B
:1005D00061F0A28DAE0FBF2FB11D5D968C91928DF3
:1005E0009F5F9F73928F90E008958FEF9FEF089524
:1005F000FC01918D828D981731F0828DE80FF11DED
:10060000858D90E008958FEF9FEF0895FC01918D07
:10061000228D892F90E0805C9F4F821B91098F7300
:10062000992708958EE293E00E94060321E0892B2A
:1006300009F420E0822F089580E090E0892B29F0D2
:100640000E94120381110C9400000895FC01A48DF6
:10065000A80FB92FB11DA35ABF4F2C91848D90E0E4
:1006600001968F739927848FA689B7892C93A089C7
:10067000B1898C91837080648C93938D848D981351
:1006800006C00288F389E02D80818F7D80830895E4
:10069000EF92FF920F931F93CF93DF93EC0181E0D2
:1006A000888F9B8D8C8D98131AC0E889F989808179
:1006B00085FF15C09FB7F894EE89FF896083E889AC
:1006C000F98980818370806480839FBF81E090E09E
:1006D000DF91CF911F910F91FF90EF900895F62E2B
:1006E0000B8D10E00F5F1F4F0F731127E02E8C8DC5
:1006F0008E110CC00FB607FCFACFE889F98980810A
:1007000085FFF5CFCE010E942603F1CFEB8DEC0FD4
:10071000FD2FF11DE35AFF4FF0829FB7F8940B8F26
:10072000EA89FB8980818062CFCF0F931F93CF939B
:10073000DF938C01D0E0C0E0F801EC0FFD1F649165
:10074000662341F08EE293E00E944803892B11F06A
:100750002196F2CFCE01DF91CF911F910F91089595
:10076000CF93DF93EC01888D8823B9F0AA89BB89E8
:10077000E889F9898C9185FD03C0808186FD0DC0D3
:100780000FB607FCF7CF8C9185FFF2CF808185FFF4
:10079000EDCFCE010E942603E9CFDF91CF910895DE
:1007A000CF93DF93FC01CA010197DB01A80FB91FAA
:1007B0002C91B0E0A0E032813A171B0641F038F0EE
:1007C000C381D481CA0FDB1F18821196F4CF118226
:1007D0001082223009F44EC038F4222369F121300E
:1007E000B1F1DF91CF910895283009F45EC029302E
:1007F00071F12330B1F7A381B481CB01840F951F30
:10080000EC01229728812C93A381B4812197288120
:1008100011962C93A381B4810497EC0188811296E0
:100820008C93CA0105970380F481E02D680F791F2E
:10083000DB012C912383D5CFCA0102970380F48179
:10084000E02D680F791FEB0128812083CACFC38177
:10085000D481DB01A40FB51F12978C918883CA0144
:1008600003970380F481E02D680F791FDB012C9141
:100870002183B7CFA381B481CB01840F951FEC01F5
:10088000229728812C93A381B4810397EC0188815E
:1008900011968C93CA0104970380F481E02D680FB0
:1008A000791FDB012C9122839CCFA381B481CB01E2
:1008B000840F951FEC01229728812C93A381B4818A
:1008C0002197288111962C93A381B4810497EC0180
:1008D000888112968C93CA010597A381B481680F11
:1008E000791FEB01288113962C9321E030E03183AE
:1008F000208377CFCF93DF9300D0CDB7DEB72091A1
:10090000F7033091F8032115310511F42DEF33E091
:10091000CE010196821B930B0F900F90DF91CF9128
:100920000895FC0101900020E9F73197AF01481BC1
:10093000590BBC018EE293E00C94A8028F929F9217
:10094000AF92BF920F931F93CF93DF93CDB7DEB7D4
:10095000A1970FB6F894DEBF0FBECDBF19A24230EB
:1009600008F44AE08E010F5D1F4F842E912CB12CAC
:10097000A12CA50194010E94161DE62FB901CA0100
:10098000EA30F4F4E05DD801EE938D01232B242BA3
:10099000252B79F790E080E0109719F0CD010E94A7
:1009A0009104A1960FB6F894DEBF0FBECDBFDF91C4
:1009B000CF911F910F91BF90AF909F908F9008950E
:1009C000E95CE1CF009711F00C94910490E080E095
:1009D00008958AE691E00C949104CF93DF930E94EE
:1009E0009503EC010E94E9048C0F9D1FDF91CF91CC
:1009F0000895CF93DF930E949104EC010E94E904D3
:100A00008C0F9D1FDF91CF9108958DE691E00E949C
:100A1000F9048091DD03882319F081508093DD0370
:100A2000089589E791E00E94F9048091DD0388230D
:100A300019F081508093DD03E091DD03F0E0EE0FCB
:100A4000FF1FED52FC4F808191819093D2038093E0
:100A5000D1030895CF92DF92EF92FF92CF93DF936D
:100A600097FF1BC06B017C016DE28EE293E00E9458
:100A70004803EC0166277727CB016C197D098E09A5
:100A80009F094AE00E949E048C0F9D1FDF91CF9129
:100A9000FF90EF90DF90CF9008954AE0DF91CF91E3
:100AA000FF90EF90DF90CF900C949E04BC01990FC3
:100AB000880B990B0C942A0581EB91E00E94E204CB
:100AC0000E947A040E94560587E891E00C94E204A3
:100AD000CF93DF930E945605EC010E94E9048C0F2E
:100AE0009D1FDF91CF910895BC0190E080E04AE026
:100AF0000C949E048F929F92AF92BF92CF92DF92FE
:100B0000EF92FF92CF93DF936B017C01AC019B01CD
:100B10000E94F31E882371F08DE891E0DF91CF9160
:100B2000FF90EF90DF90CF90BF90AF909F908F900D
:100B30000C94910446015701E894B7F82FEF3FEF6A
:100B40004FE75FE7C501B4010E94F31E81110DC09C
:100B50002FEF3FEF4FE75FE7C501B4010E94C91BCC
:100B600018161CF481E991E0D9CF2FEF3FEF4FE742
:100B70005FE4C701B6010E949E1E18161CF485E9A9
:100B800091E0CCCF2FEF3FEF4FE75FECC701B6010D
:100B90000E94C91B87FDF3CF20E030E0A901C70107
:100BA000B6010E94C91BD0E0C0E087FF0AC06DE219
:100BB0008EE293E00E944803EC01F7FAF094F7F814
:100BC000F0942AE037ED43EA5BE3C701B6010E94E7
:100BD0008A1D4B015C010E946F1E6B017C010E940B
:100BE000CE1B9B01AC01C501B4010E94891D4B01C4
:100BF0005C014AE0C701B6010E949E04C80FD91FDC
:100C00006EE28EE293E00E944803C80FD91F20E0F5
:100C100030E040E251E4C501B4010E942F1C4B01B9
:100C20005C010E946F1E6B01CB010E947405C80F0E
:100C3000D91FB60190E080E00E94CE1B9B01AC0161
:100C4000C501B4010E94891D20E030E040E251E47A
:100C50000E942F1C0E946F1ECB010E9474058C0FF6
:100C60009D1FDF91CF91FF90EF90DF90CF90BF90CD
:100C7000AF909F908F900895CF93DF930E9474055B
:100C8000EC010E94E9048C0F9D1FDF91CF91089524
:100C9000EF92FF920F931F93CF93DF93CDB7DEB701
:100CA000C059D1090FB6F894DEBF0FBECDBFF82EE4
:100CB000E92E1F9282E08F9389E991E09F938F93B1
:100CC0008E010F5F1F4F1F930F930E94A320EF927F
:100CD000FF921F930F9300581F4F1F930F930E9473
:100CE000A320C8010E94E2040FB6F894DEBF0FBE35
:100CF000CDBFC057DF4F0FB6F894DEBF0FBECDBFDC
:100D0000DF91CF911F910F91FF90EF9008958F92F7
:100D10009F92AF92BF92CF92DF92EF92FF920F938A
:100D20001F93CF93DF937C016B015A01E90180EAA5
:100D300091E00E94E204C5010E947405AC16BD0654
:100D400008F086C0D7018D919C910197A1F584EAA6
:100D500091E00E94E20408E010E0C8010E94480609
:100D6000E601CA0DDB1D902E0830110509F04AC0BE
:100D7000D7011296BC90BA944E018B0C911CB7FC13
:100D80009A94CE018C199D09B7FC5AC0C4018C1BE2
:100D90009D0BF701A381B481A80FB91F2C91299352
:100DA0000380F481E02DE80FF91F808190E00E941C
:100DB0004806BA94E6CF88EA91E00E94E204D7019F
:100DC0001396ED91FC9180819181A281B38110E015
:100DD00000E08F3F9105A105B10509F00CF4BDCFEE
:100DE00001E010E00097E1E0AE07B1050CF4B5CFEB
:100DF00002E010E00097A105B1400CF4AECF03E093
:100E000010E0ABCF892D092C000C990BF701A381C1
:100E1000B481A80FB91F2C9129930380F481E02D90
:100E2000E80FF91F808190E00E9448069A94FFEF36
:100E30009F12E8CF2FEFA21AB20AC501800F911FAF
:100E40005C01AFEFAA1ABA0AC80ED91EF6010083D8
:100E5000C501DF91CF911F910F91FF90EF90DF902F
:100E6000CF90BF90AF909F908F900895CF92DF92D8
:100E7000EF92FF920F931F93CF93DF9300D0CDB7E4
:100E8000DEB78C016B011A8219827C018FEFE81AA0
:100E9000F80AC8010E94F01C8930F1F4C7010E94D1
:100EA000F01C89837801E3E0EE0EF11CC801029684
:100EB0000E94F01C8A8389819A81F6019183808344
:100EC000C7010F900F90DF91CF911F910F91FF906D
:100ED000EF90DF90CF900895F60111821082F0CF4D
:100EE0001F93CF93DF93182FEB01CB010E94A81B18
:100EF0009C0190E0E92FF0E0E217F30738F4EC0FE3
:100F0000FD1FE491E11739F09F5FF4CF80E0DF919E
:100F1000CF911F91089581E0FACFEF92FF920F9346
:100F20001F93CF93DF938C017A01EC01C60FD71F7B
:100F3000F80101900020E9F73197E01BF10BCE0199
:100F4000801B910B8E179F0768F4B70189910E944F
:100F500070078111EDCFDF91CF911F910F91FF901D
:100F6000EF90089581E0F7CF2F923F924F925F92DA
:100F70006F927F928F929F92AF92BF92CF92DF92A9
:100F8000EF92FF920F931F93CF93DF93CDB7DEB70E
:100F900062970FB6F894DEBF0FBECDBF8C01CE01B5
:100FA00001967C018090CF039090D003C090D10334
:100FB000D090D203F40101900020E9F73197E819AD
:100FC000F909CE16DF0608F461C06CEA71E0C801C9
:100FD0000E947E20E1E0F0E0D8015096FC93EE9371
:100FE0001F97D8011F968D919C91892BD9F2B8013A
:100FF00080EE93E00E947E20F8018189928990938F
:10100000F2038093F103878590899093F003809396
:10101000EF0380EF91E00E94E204C8010E94E20425
:1010200080EB91E00E94E204D8011F968D919C9183
:101030000E94560583EB91E00E94E204F801818949
:1010400092890E9456058AEB91E00E94E204809109
:10105000D1039091D2030E943C0662960FB6F89499
:10106000DEBF0FBECDBFDF91CF911F910F91FF90DB
:10107000EF90DF90CF90BF90AF909F908F907F9038
:101080006F905F904F903F902F900895188AD401F1
:101090000D900020E9F7CD01019788199909C8162C
:1010A000D90608F058C06091D1037091D203F701BE
:1010B0002FE011922A95E9F741E050E0461B570BCB
:1010C0004C0D5D1D680D791DC7010E94942086E0BE
:1010D00091E09A8B898B712C612CB12CA12CA98960
:1010E000BA892D903D90BA8BA98BF7010190002011
:1010F000E9F731972F014E185F08C1010E94A81B24
:101100004816590609F05AC020E0822F90E0841555
:10111000950508F043C0F101E80FF91FE4918E0D29
:101120009F1DDC018C918E1349C02F5FEECFA1145F
:10113000B10409F0AEC0B889B13029F4D092D2031D
:10114000C092D1034ECF82E090E0F801908B878768
:10115000D28AC18A46CFA889A13041F49093D203A4
:101160008093D103F801928B818B3BCF6CE671E0C9
:10117000C8010E947E20E2E0F0E0D8015096FC9386
:10118000EE931F97F40101900020E9F73197E819D9
:10119000F9095296FC93EE93519723CFFFEFAF1AC4
:1011A000BF0AD8015296DC92CE92519750967C920B
:1011B0006E921F97B701C8010E947E20BFEF6B1A85
:1011C0007B0AE9E26E16710409F089CF8981712CDE
:1011D000882329F06EE274E00E947007782EF701F0
:1011E00001900020E9F73197EE19FF09329740F09E
:1011F0004EEE53E061E070E0C7010E948D07782257
:10120000772091F0FFEFAF1ABF0AB701C8010E9423
:101210007E20D8015296DC92CE925197E4E0F0E025
:101220005096FC93EE931F9742EE53E070E060E01F
:10123000C7010E948D07882391F0FFEFAF1ABF0A04
:10124000B701C8010E947E20D8015296DC92CE924E
:101250005197E3E0F0E05096FC93EE931F974DED2D
:1012600053E070E060E0C7010E948D07882309F415
:101270005ECFFFEFAF1ABF0AB701C8010E947E2000
:10128000D8015296DC92CE92519750961C921E92A3
:101290001F97A88A9FEFC91AD90AF9CE0F931F93F7
:1012A000CF93DF938C01EB0169E0CE010E94F81C23
:1012B00088E090E00E944806602FCE0101960E94CF
:1012C000F81CC80199270E944806612FCE0102969A
:1012D0000E94F81C812F90E00E94480680EF91E068
:1012E0000E94F904CE010396DF91CF911F910F91D7
:1012F0000895CF92DF92EF92FF920F931F93CF93B7
:10130000DF937C016B01C091F303D091F40310E0F3
:1013100000E0209759F0B701CE010E947520892B7B
:1013200091F18E010D88DE89C02DF3CF87E190E029
:101330000E941318EC01009731F1B7010E947E2042
:101340001E8A1D8AD88ACF8680EC91E00E94E20432
:10135000CE010E9456058AEC91E00E94E204CE0183
:101360000E94E20481ED91E00E94E2048091F30387
:101370009091F4030E9468050115110571F4D09352
:10138000F403C093F303CE01DF91CF911F910F912E
:10139000FF90EF90DF90CF900895F801D68BC58B2A
:1013A000F2CF6F927F928F929F92AF92BF92CF9225
:1013B000DF92EF92FF920F931F93CF93DF93CDB7FE
:1013C000DEB7CC54D1090FB6F894DEBF0FBECDBF47
:1013D0007C01E3E19E2E8E01065C1F4FF801292D52
:1013E00011922A95E9F7AA24A394B12C2B96BFAEAB
:1013F000AEAE2B97C8010E94B4072B968EAD9FAD61
:101400002B978330910509F40FC18930910509F4B8
:10141000FEC1049709F07CC00E94910247E0C42EEF
:10142000D12C882309F476C06E0137E2C30ED11C9B
:10143000F601292D11922A95E9F7BFAAAEAAC60195
:101440000E94B4078EA99FA9099709F0D8C00E94ED
:101450000505F70170800E949102882381F0CE017A
:101460004496FC0111929A94E9F7BCA2ABA20E94A7
:10147000B4078BA19CA10A9711F50E941105F701F1
:10148000B0808B2D91810E948502C6010E94B40715
:101490008EA99FA90A97E1F5C090F503D090F603B5
:1014A000C114D10409F44DC0B801C6010E947520D1
:1014B000892B09F446C0F601C588D688F1CF0E9471
:1014C000110563E1662E9E012F5F3F4F590188246D
:1014D0008394912CC7010E94D30D0E94910288230E
:1014E00071F2F501262D11922A95E9F7998A888AD9
:1014F000C5010E94B407888999898A30910509F449
:10150000BCCF889719F40E940505E4CF0E9411050D
:10151000D12CC12CC601C45BDF4F0FB6F894DEBFDF
:101520000FBECDBFDF91CF911F910F91FF90EF9034
:10153000DF90CF90BF90AF909F908F907F906F90F3
:101540000895B718F6018189B816B1F02D968EADC1
:101550009FAD2D979093F2038093F1032B968EAD60
:101560009FAD2B979093F0038093EF03B80180EE2B
:1015700093E00E947E20CCCFC114D10439F3B11086
:1015800006C0F7018081918101969183808300914B
:10159000DE031091DF037801FFEFEF1AFF0A67E126
:1015A000C8010E94F81CF092DF03E092DE0369E0BC
:1015B000C7010E94F81C88E090E00E9448066C2D4C
:1015C000C80102960E94F81CC60199270E9448068D
:1015D0006D2DC80103960E94F81C8D2D90E00E948D
:1015E000480680EF91E00E94F9040C5F1F4F1093B2
:1015F000DF030093DE0384E0C82ED12C8BCF0E9442
:101600001105C090F303D090F403C114D10409F480
:1016100015C1B801C6010E947520892B09F414C1B7
:10162000F601C588D688F1CF6EED71E0C8010E9441
:101630008520F80101900020E9F73197E01BF10BBC
:101640009E012F5F3F4F69018E179F0708F481C0ED
:101650004AE050E070E060E0C8010E94881A4B0147
:101660005C010E947A040E94560580EF91E00E947E
:10167000E20480EE91E00E94E204C8010E94E204CC
:101680008AED91E00E94E2048091DE039091DF03F5
:101690000E943C06F70180819181019691838083AD
:1016A0000091DE031091DF037801FFEFEF1AFF0ACC
:1016B00060E0C8010E94F81CF092DF03E092DE03B4
:1016C000712C2FEF82169104A104B10499F094F0CB
:1016D000772473948114910431E0A306B10454F08B
:1016E00033E0732E81149104A10481E0B80614F450
:1016F00022E0722E89829A82AB82BC820E5F1F4FDB
:10170000672DC7010E94F81C872D90E00E944806B3
:10171000760148019FEF891A990AF701B1907F017C
:101720006B2DC8010E94F81C8B2D90E00E9448068A
:1017300084018E2D8C19781660F780EF91E00E945D
:10174000F9049092DF038092DE0393E0C92ED12C3E
:10175000E1CE70E060E0C8010E9438194B015C01E5
:101760000E947A040E94560580EF91E00E94E204F4
:1017700089EE91E00E94E204C8010E94E2048AED31
:1017800091E00E94E2048091DE039091DF030E94C9
:101790003C06F701808191810196918380830091BD
:1017A000DE031091DF037801FFEFEF1AFF0A60E01C
:1017B000C8010E94F81CF092DF03E092DE038982E8
:1017C0009A82AB82BC8268E0C7010E94F81C88E064
:1017D00090E00E944806780122E0E20EF11C0A5FC8
:1017E0001F4FF601B1906F016B2DC7010E94F81CCD
:1017F0008B2D90E00E944806FFEFEF1AFF0A0E15AE
:101800001F0579F780EF91E00E94F904F0CEC7013F
:101810000E94D30D6C01892B09F47ACEF7018081E7
:1018200091810E948502C8010E94B4072B968EAD5B
:101830009FAD2B970A9709F06BCE6CCE61E070E0FC
:10184000C8010E9479096C010E947A040E94560521
:1018500080EF91E00E94E20486ED93E00E94950300
:10186000C8010E94E2048AED91E00E94E2048091A6
:10187000DE039091DF030E943C06F7018081918195
:101880000196918380838091DE039091DF038C0128
:101890000F5F1F4F61E00E94F81C1093DF0300935D
:1018A000DE03B801C6010E944E099093DF038093C6
:1018B000DE0355E0C52ED12C2DCECF92DF92EF92D4
:1018C000FF920F931F93CF93DF93CDB7DEB763974C
:1018D0000FB6F894DEBF0FBECDBF8C01CE010196CE
:1018E0006C0183E1F60111928A95E9F781E090E0BD
:1018F000998B888BC6010E94B407888999898A319F
:101900009105C1F5C8010E94D1097C01892B09F418
:1019100057C0F801808191810E9485020091DE0309
:101920001091DF0369E0C8010E94F81C0F5F1F4F90
:101930001093DF030093DE030E947A040E94560591
:1019400080EF91E00E94E20482EF91E00E94F904AE
:101950000E940505C70163960FB6F894DEBF0FBE5F
:10196000CDBFDF91CF911F910F91FF90EF90DF904E
:10197000CF900895089721F5C8010E94D1097C01F4
:10198000892BF1F0F801808191810E9485020091FC
:10199000DE031091DF0368E0C8010E94F81C0F5FAE
:1019A0001F4F1093DF030093DE030E947A040E940E
:1019B000560580EF91E00E94E20486EF91E0C6CFE9
:1019C0000E941105C8010E94D1097C01892B11F2E6
:1019D000F801808191810E9485020E9491028823F2
:1019E000A1F1C6010E94B40788899989879751F5AA
:1019F000C8010E94D1097C01892B21F1F801808165
:101A000091810E948502F8018081918101979183E3
:101A100080830091DE031091DF0369E1C8010E9419
:101A2000F81C0F5F1F4F1093DF030093DE030E942B
:101A30007A040E94560580EF91E00E94E2048DEF47
:101A400091E084CF0E94110585CF87E0E82EF12C2C
:101A500081CF8F929F92AF92BF92CF92DF92EF92FF
:101A6000FF920F931F93CF93DF93CDB7DEB76397AA
:101A70000FB6F894DEBF0FBECDBF4C017B016A01EB
:101A80000E949102882309F484C0C6010E945D0C63
:101A90008C01892B09F469C00E947A040E945605C2
:101AA00080EF91E00E94E20485E08816910409F439
:101AB00073C08AE092E00E94E2048AED91E00E9405
:101AC000E2048091DE039091DF030E943C06F60160
:101AD000808191810E948502F60180819181019728
:101AE00091838083A090DE03B090DF0367E0F5E090
:101AF0008F16910409F466E0C5010E94F81C8FEF6F
:101B0000A81AB80AB092DF03A092DE030E151F05D3
:101B10000CF078010E94910207E010E0882329F17F
:101B2000CE01019623E1FC0111922A95E9F721E00B
:101B300030E0398B288B0E94B407888999890597F2
:101B4000029768F50E940505A601B7018889998961
:101B50000E94290D8C01892B41F0F6018081918131
:101B60000E9485020E151F05E4F0C80163960FB6AA
:101B7000F894DEBF0FBECDBFDF91CF911F910F91C3
:101B8000FF90EF90DF90CF90BF90AF909F908F909D
:101B9000089507E010E080CF81E092E08CCF0E94B2
:101BA00011058701E2CFCF92DF92EF92FF920F9360
:101BB0001F93CF93DF93CDB7DEB763970FB6F8943B
:101BC000DEBF0FBECDBF7C010E949102882309F4C5
:101BD00042C0C7010E945D0C8C01892B61F1F701A5
:101BE000808191810E9485020E94910297E0C92E16
:101BF000D12C8823E9F1CE01019623E1FC01119259
:101C00002A95E9F721E030E0398B288B0E94B40750
:101C1000888999890597029708F08FC00E94050569
:101C2000A701B801888999890E94290D6C01892B27
:101C3000A9F410E000E0C80163960FB6F894DEBF87
:101C40000FBECDBFDF91CF911F910F91FF90EF900D
:101C5000DF90CF90089507E010E0C1CFF7018081B9
:101C600091810E948502C016D1060CF086016801A0
:101C7000F701808191810E9485020E949102882350
:101C800009F464C0CE01019623E1FC0111922A956A
:101C9000E9F721E030E0398B288B0E94B40788896E
:101CA00099890797029708F04EC00E940505C70161
:101CB0000E94D30D8C01892B09F4BDCF0E947A04B8
:101CC0000E94560580EF91E00E94E204888999897C
:101CD0000797B1F185E192E00E94E2048AED91E07C
:101CE0000E94E2048091DE039091DF030E943C0693
:101CF000F701808191810E948502F70180819181A5
:101D0000019791838083E090DE03F090DF03888960
:101D1000998965E0079709F464E0C7010E94F81CFF
:101D2000FFEFEF1AFF0AF092DF03E092DE030C15DB
:101D30001D050CF0680186017ECF0E94110597CF2A
:101D400081E192E0C9CF0E941105F5CF87E0C82E4E
:101D5000D12CF1CFCF92DF92EF92FF920F931F938E
:101D6000CF93DF93EC018B010E945D026B017C013C
:101D7000C8010E945D029B01AC01C701B6010E942F
:101D8000A31E21E030E039832883EB81FC8160834E
:101D9000EB81FC817183EB81FC818283EB81FC818F
:101DA0009383CE01DF91CF911F910F91FF90EF9020
:101DB000DF90CF9008951F920F920FB60F921124CB
:101DC0002F933F938F939F93AF93BF9380912A0359
:101DD00090912B03A0912C03B0912D0330912903F6
:101DE00023E0230F2D3758F50196A11DB11D209337
:101DF000290380932A0390932B03A0932C03B09381
:101E00002D038091250390912603A0912703B09183
:101E100028030196A11DB11D8093250390932603ED
:101E2000A0932703B0932803BF91AF919F918F9107
:101E30003F912F910F900FBE0F901F90189526E89D
:101E4000230F0296A11DB11DD2CF1F920F920FB684
:101E50000F9211242F933F934F935F936F937F9330
:101E60008F939F93AF93BF93EF93FF938EE293E093
:101E70000E942603FF91EF91BF91AF919F918F91A7
:101E80007F916F915F914F913F912F910F900FBE76
:101E90000F901F9018951F920F920FB60F9211245A
:101EA0002F938F939F93EF93FF93E0913E03F091D5
:101EB0003F038081E0914403F091450382FD1BC004
:101EC0009081809147038F5F8F7320914803821721
:101ED00041F0E0914703F0E0E25DFC4F958F809385
:101EE0004703FF91EF919F918F912F910F900FBE1C
:101EF0000F901F9018958081F4CFEEE2F3E01382EB
:101F0000128288EE93E0A0E0B0E084839583A683FC
:101F1000B7838CE591E09183808385EC90E0958791
:101F2000848784EC90E09787868780EC90E0918BA3
:101F3000808B81EC90E0938B828B82EC90E0958B90
:101F4000848B86EC90E0978B868B118E128E138E8D
:101F5000148EEBECF3E082E090E0948B838B11A67F
:101F600010A60895CF93DF93CDB7DEB7C754D1093C
:101F70000FB6F894DEBF0FBECDBF789484B58260F3
:101F800084BD84B5816084BD85B5826085BD85B51D
:101F9000816085BD80916E00816080936E0010929B
:101FA0008100809181008260809381008091810016
:101FB00081608093810080918000816080938000A7
:101FC0008091B10084608093B1008091B000816005
:101FD0008093B00080917A00846080937A00809131
:101FE0007A00826080937A0080917A008160809389
:101FF0007A0080917A00806880937A001092C10004
:10200000E0913E03F0913F0322E0F22EF082E09156
:102010003A03F0913B031082E0913C03F0913D03C1
:102020008FEC808310924603E0914203F0914303CA
:1020300086E08083E0914003F091410380818061DC
:102040008083E0914003F091410380818860808328
:10205000E0914003F0914103808180688083E091AA
:102060004003F091410380818F7D80838BEA92E071
:102070000E94ED0482E892E00E94ED0489E592E07E
:102080000E94ED0480E392E00E94ED0487E092E07C
:102090000E94ED048EED91E00E94ED0482EB91E050
:1020A0000E94ED0481EB91E00E94ED0487EA91E04B
:1020B0000E9495030E947A040E94680580EA91E0DC
:1020C0000E94ED040E945C0587E190E00E941318D5
:1020D0008C01DC015196FC9251978AEA9EE054965D
:1020E0009C938E93539781E052968C936EE172E0AD
:1020F000C8010E947E20E091F503F091F603B0E064
:10210000A0E0309729F0DF010588F689E02DF9CFAE
:10211000109709F0D1C11093F6030093F503FE0167
:1021200031961F019E01265E3F4F26963FAF2EAF90
:1021300026978EE293E00E940603892B09F462C77A
:102140008EE293E00E94E402182F80912303909185
:1021500024038038910508F4B4C120912203211191
:102160005EC70E94E9048FEB93E00E94950380E82C
:1021700090E00E943C0681E080932203612F8EE272
:1021800093E00E9448031A3021F01D3091F60E941E
:10219000E904E0912303F0912403EE55FD4F1082F2
:1021A00080912203811137C26CE671E080EE93E0EA
:1021B0000E947E201092F2031092F10301E010E0E1
:1021C0001093F0030093EF0382EA92E09093D00320
:1021D0008093CF031092D2031092D1031092DD03AB
:1021E0001092CC031092CB031092CE031092CD0329
:1021F00082E090E09093DF038093DE031FA61EA68B
:1022000060E00E94F81C83E090E09093DF038093ED
:10221000DE0360E00E94F81C84E090E09093DF030E
:102220008093DE0360E00E94F81C85E090E09093CC
:10223000DF038093DE038AE592E00E94E20482EAF3
:1022400092E00E94F9040E949102882309F462C17D
:1022500093E1F92E2696EEADFFAD26972F2D119224
:102260002A95E9F71AA709A7CE014A960E94B40752
:1022700089A59AA5049709F045C1D1011D92FA9448
:10228000E9F7198B088BC1010E94B40788899989E5
:102290000B9709F037C10E940505CE018E960E946A
:1022A000D30D8C010097A9F161E070E0049711F063
:1022B00070E060E0CE014A960E9479097C010E949C
:1022C0007A040E94560580EF91E00E94E20482E2C7
:1022D00092E00E94E2048AED91E00E94E204C701CC
:1022E0000E9468058091DE039091DF036C01BFEFCF
:1022F000CB1ADB0A66E10E94F81CD092DF03C09281
:10230000DE03B601C7010E944E099093DF0380935C
:10231000DE038091CD039091CE038138910520F0AA
:1023200087E593E00E94950380E493E00E94950383
:102330000115110509F4F1C08091EF039091F003AC
:10234000019709F0EAC08CE393E00E949503011520
:10235000110539F08091EF039091F003019709F492
:10236000DFC088E292E00E94E2048091F103909144
:10237000F2030E94560582E392E00E94E20480EE9E
:1023800093E00E94E2048BE392E00E94E2048091D9
:10239000EF039091F0030E945605012B09F43BC115
:1023A0008091EF039091F003019709F034C182E02E
:1023B00090E00E94F01C23968FAF239783E090E07B
:1023C0000E94F01C24968FAF249761E070E0249661
:1023D0008EAD9FAD24970E9452206C011CAE1DAEA5
:1023E0001EAE1FAE18AE19AE1AAE1BAE1BAA1CAAAB
:1023F0001DAA84E08DAB9E01245C3F4F3FAB2EAB0A
:102400001EA61FA618AA88ABCE01C8969AAB89ABA8
:1024100022961FAE1EAE229785E0882E912CF12CBD
:10242000E12C0E947A040E94560580EF91E00E9400
:10243000E2048FE492E00E94E204C4010E94740569
:1024400084010F5F1F4FC4010E94F01C28968FAFBC
:10245000289787E592E00E94E2042896EFAD28973E
:10246000AE2EB12CC5010E94480680EF91E00E947B
:10247000E2042896FFAD2897F83108F03FC1F50136
:10248000EC5BFD4E0C944C20181354147E137E13F9
:102490000D169C16091783177E137E137E137E1369
:1024A0007E137E137E137E137E137E137E137E13A4
:1024B0007E137E13A114E61456961C930E93559723
:1024C0002ECE1F3779F41816190634F06FE78EE216
:1024D00093E00E9448032DCE0197909324038093AC
:1024E00023034CCE20912203211148CE9C012F5F63
:1024F0003F4F30932403209323038E559D4FDC01DF
:102500001C933CCE0E941105CE018E960E94D30DE5
:102510008C01FFCE07E010E0FCCE86E393E015CF00
:102520000091DE031091DF036AE1C8010E94F81CEC
:102530000F5F1F4F1093DF030093DE032091CB0347
:102540003091CC0345E0429FC001439F900D112480
:102550009093CC038093CB038DE293E00E9495038C
:102560008091CB039091CC030E94740585E293E0A7
:102570000E9495038DE193E00E9495038091DE0314
:102580009091DF0303970E94740585E193E00E9418
:10259000ED046091CB0382E090E00E94F81C8EE095
:1025A00093E00E94950302E010E08091DE03909199
:1025B000DF0308171907A0F4C8010E94F01C90E07F
:1025C0000E9448068DE392E00E94E204C8010E9446
:1025D00074058FE392E00E94E2040F5F1F4FE5CF86
:1025E00081E492E00E94E2048091DE039091DF0397
:1025F0000E94740588E492E00E94F9040E94E904B4
:1026000084ED92E00E94ED04CBCEF7FE0FC089EA84
:1026100093E00E94ED040E94E9040E945C05109280
:102620002403109223031092220383CD4801F9CE94
:10263000540122E0A20EB11CC8010E94F01C782EA9
:1026400081E692E00E94E204872D90E00E94560508
:1026500080EF91E00E94E204C5010E9474058BE6C0
:1026600092E00E94E20490E080E00EA91FA92DA94B
:102670002817190639F030F0F801E80FF91F108219
:102680000196F3CF1CAA1BAA32E0731609F4C2C04C
:10269000371508F462C0772009F4A0C081E07816ED
:1026A00009F4A6C0EEA9FFA960817181828193819E
:1026B0000E947A058DE392E00E94E204C5010E9427
:1026C00074058DE692E00E94E2048BA99CA9EEA914
:1026D000FFA9019709F0E1C0608171818281938136
:1026E0000E947A0524962EAD3FAD2497A701B6012E
:1026F000CE01C3960E9487067C0185010E94E904F1
:102700000130F1E01F0730F428962FAD28972A31C9
:1027100009F07BCF80EA93E00E94950324968EAD6A
:102720009FAD24978E159F0530F0A701B601CE010D
:10273000C3960E94D003EEA9FFA9608171818281B6
:1027400093812BA93CA92130310509F058C40E947E
:102750007A05C6010E94AF185ECF98E0791609F499
:1027600074C0A9E07A1639F1B3E07B129BCFC501A2
:102770000E94F01CF80180830EA91FA9C4010396D2
:102780000E94F01CD80111968C930EA91FA9C401B8
:1027900004960E94F01CF80182835401F6E0AF0E0B
:1027A000B11C0EA91FA9C40105960E94F01CD801F6
:1027B00013968C9377CFC5010E94F01CF80180839B
:1027C0005401F4E0AF0EB11C0EA91FA9C401039679
:1027D0000E94F01CD80111968C9364CFB3E08B0E4D
:1027E000911CC5010E94F01CF801808354015ACF4E
:1027F000C5010E94F01CD8018C935401B4E0AB0ECB
:10280000B11C0EA91FA9C40103960E94F01CF80177
:10281000818348CFC5010E94F01CD8018C930EA97A
:102820001FA9C40103960E94F01CF8018183540182
:10283000F5E0AF0EB11C0EA91FA9C40104960E94B9
:10284000F01CD80112968C932DCFC5010E94F01C6C
:10285000F80180830EA91FA9C40103960E94F01CF1
:10286000D80111968C930EA91FA9C40104960E9449
:10287000F01CF80182835401F6E0AF0EB11C0EA9E2
:102880001FA9C40105960E94F01CD80113968C93D1
:1028900081E090E09CAB8BAB05CF60817181828140
:1028A00093810E942A051ECFBE01605C7F4FC80144
:1028B0000E9436078C012296EEADFFAD22978785E8
:1028C00090899CAB8BABAEA9BFA981898C93EEA9F3
:1028D000FFA92296AEADBFAD229752968C9181830F
:1028E0002296EEADFFAD2297AEA9BFA983891296BD
:1028F0008C93AEA9BFA9848913968C9383E792E049
:102900000E94E2048BA99CA9EEA9FFA9019791F46A
:1029100060817181828193810E947A0524962EAD17
:102920003FAD2497A701B601CE01C3960E9487064A
:102930007C01E4CE60817181828193810E942A05AD
:10294000EDCFBE01605C7F4FC8010E9436078C014D
:102950002496AEACBFAC2497AE14BF0438F0A701E8
:10296000B601CE01C3960E94D0037C01AEA9BFA9D7
:102970002296EEADFFAD22978C91818B11968C91B2
:102980001197828B12968C911297838B13968C9150
:10299000848B8BA99CA9908B87878AE792E00E9401
:1029A000E20422968EAD9FAD22970E94560582E8E2
:1029B00092E00E94E2042296EEADFFAD229761897B
:1029C0007289838994890E942A05B4C11A82198266
:1029D0005401B2E0AB0EB11CC8010E94F01C10E023
:1029E00000E0893079F4C5010E94F01C898354010C
:1029F000E4E0AE0EB11CC40103960E94F01C8A8371
:102A000009811A8186E892E00E94E204C8010E94CE
:102A1000560524966EAC7FAC249784E12696AEAD25
:102A2000BFAD26971D928A95E9F787E1F1011192D2
:102A30008A95E9F784E08B8388878D878A8B8F8BD3
:102A40002AE130E02C0F3D1F3D832C838EE190E086
:102A50008C0F9D1F9A878987A2E2B0E0AC0FBD1F43
:102A6000BF87AE87E6E2F0E0EC0FFD1FFC8BEB8B3F
:102A70002AE230E02C0F3D1F398F288FD801519664
:102A80008C91815027968FAF27972101E5E08E0228
:102A9000400C511C1124912C812C2796FFAD2797B7
:102AA000F7FD1DC06E147F0478F025E0289DC0015D
:102AB000299D900D1124A701B601D201A81BB90BC5
:102AC000CD010E94D0037C012796BFAD2797B1505E
:102AD0002796BFAF2797EFEF8E1A9E0ADECFD80159
:102AE00052968C915297882361F051968C91519710
:102AF000823009F467C0C0F4882379F1813009F489
:102B00005BC080EF91E00E94E2048BA99CA9EEA932
:102B1000FFA9019709F07AC0608171818281938158
:102B20000E947A059301E2CD843009F460C008F474
:102B300052C0853031F75396ED91FC918E010B5EBA
:102B40001F4F9E01205F3F4FAE01455F5F4FBE01AB
:102B50006A5F7F4FC101099504C05396ED91FC91C6
:102B60000995009771F2FC01208131813CAB2BABC0
:102B700022812DAB4EA95FA9A381B4812C91DA01EA
:102B80002C934EA95FA9A381B48111962C91FA01CF
:102B900021834EA95FA9FC01A381B48112962C91D7
:102BA000DA0112962C932EA93FA9A381B481139622
:102BB0008C91F9018383A5CF5396ED91FC91C101CE
:102BC0000995CFCF5396ED91FC91BE016A5F7F4F7F
:102BD000C1010995C6CF5396ED91FC91AE01455FB9
:102BE0005F4FBE016A5F7F4FC1010995BACF53960F
:102BF000ED91FC919E01205F3F4FAE01455F5F4F1D
:102C0000BE016A5F7F4FC1010995ABCF60817181C1
:102C1000828193810E942A0585CF2496AEACBFACF9
:102C20002497AE14BF0488F0A701B601CE01C39665
:102C30000E94D0037C01A816B90638F0AC01B60199
:102C4000CE018E960E94D0037C01E9A9FAA9608189
:102C50007181828193812EA53FA521303105B9F57F
:102C60000E947A058EE892E00E94E2048BA99CA95A
:102C7000EEA9FFA9019771F560817181828193812D
:102C80000E947A0582E992E00E94E2048BA99CA945
:102C90008EA89FA8019721F08EA59FA5019709F501
:102CA000CE018E960E945D022B013C01CE01C3969F
:102CB0000E945D029B01AC01C301B2010E948A1D0A
:102CC00021E030E03CAB2BABD4016C9312C10E94ED
:102CD0002A05C8CF60817181828193810E942A0573
:102CE000D1CFCE018E960E9471022B013C01CE0104
:102CF000C3960E947102460E571E681E791E1CAABA
:102D00001BAAF4014082EEA9FFA95182EEA9FFA9F6
:102D10006282EEA9FFA97382EEA9FFA96081718189
:102D2000828193812BA93CA92130310509F04BCE3A
:102D30000E947A059501F6CD2496AEACBFAC2497DF
:102D4000AE14BF0488F0A701B601CE01C3960E945D
:102D5000D0037C01A816B90638F0AC01B601CE014B
:102D60008E960E94D0037C01E9A9FAA96081718145
:102D7000828193812EA53FA52130310589F50E94DE
:102D80007A0586E992E00E94E2048BA99CA9EEA94B
:102D9000FFA9019741F560817181828193810E9431
:102DA0007A0582E992E00E94E2048BA99CA98EA890
:102DB0009FA8019721F08EA59FA50197D9F4CE0178
:102DC0008E960E945D022B013C01CE01C3960E94AB
:102DD0005D029B01AC01C301B2010E94891D70CF4D
:102DE0000E942A05CECF60817181828193810E94E9
:102DF0002A05D7CFCE018E960E9471022B013C018D
:102E0000CE01C3960E947102461A570A680A790ACF
:102E100076CF2496AEACBFAC2497AE14BF0488F036
:102E2000A701B601CE01C3960E94D0037C01A8166B
:102E3000B90638F0AC01B601CE018E960E94D003DF
:102E40007C01E9A9FAA960817181828193812EA513
:102E50003FA52130310589F50E947A058AE992E083
:102E60000E94E2048BA99CA9EEA9FFA9019741F554
:102E700060817181828193810E947A0582E992E06A
:102E80000E94E2048BA99CA98EA89FA8019721F01B
:102E90008EA59FA50197D9F4CE018E960E945D0262
:102EA0002B013C01CE01C3960E945D029B01AC0147
:102EB000C301B2010E942F1C03CF0E942A05CECF6E
:102EC00060817181828193810E942A05D7CFCE01D2
:102ED0008E960E9471022B013C01CE01C3960E9486
:102EE0007102A30192010E94061D1CAA1BAAF401F3
:102EF0006083EEA9FFA97183EEA9FFA98283EEA9E1
:102F0000FFA9938309CF2496AEACBFAC2497AE142F
:102F1000BF0488F0A701B601CE01C3960E94D0037A
:102F20007C01A816B90638F0AC01B601CE018E9628
:102F30000E94D0037C01E9A9FAA960817181828194
:102F400093812EA53FA52130310589F50E947A0590
:102F50008EE992E00E94E2048BA99CA9EEA9FFA948
:102F6000019741F560817181828193810E947A0588
:102F700082E992E00E94E2048BA99CA98EA89FA8F6
:102F8000019721F08EA59FA50197D9F4CE018E96C9
:102F90000E945D022B013C01CE01C3960E945D029E
:102FA0009B01AC01C301B2010E94F61D89CE0E94B3
:102FB0002A05CECF60817181828193810E942A058A
:102FC000D7CFCE018E960E9471022B013C01CE011B
:102FD000C3960E9471029B01AC01C301B2010E9421
:102FE0002D201CAA1BAAF4012083EEA9FFA931837E
:102FF000EEA9FFA94283EEA9FFA953838DCE0E94BB
:103000002A05A7CB80E090E0892B09F48BC80E94A9
:103010001203882309F486C80E94000083C81F3762
:1030200009F0ACC850CA0F931F93CF93DF9382303F
:10303000910510F482E090E0E091F903F091FA0339
:1030400030E020E0B0E0A0E0309799F421153105A0
:1030500009F44AC0281B390B24303105D8F58A8180
:103060009B816115710589F1FB0193838283FE01C8
:1030700011C0408151810281138148175907E0F046
:103080004817590799F4109761F012960C9312970C
:1030900013961C933296CF01DF91CF911F910F9120
:1030A00008950093F9031093FA03F4CF2115310525
:1030B00051F04217530738F0A901DB019A01BD0115
:1030C000DF01F801C1CFEF01F9CF9093FA038093AC
:1030D000F903CDCFFE01E20FF31F819391932250AC
:1030E000310939832883D7CF2091F7033091F80332
:1030F000232B41F420910201309103013093F80316
:103100002093F70320910001309101012115310531
:1031100041F42DB73EB74091040150910501241BA5
:10312000350BE091F703F091F803E217F307A0F4F1
:103130002E1B3F0B2817390778F0AC014E5F5F4F0D
:103140002417350748F04E0F5F1F5093F803409344
:10315000F703819391939FCFF0E0E0E09CCFCF9372
:10316000DF930097E9F0FC01329713821282A0915D
:10317000F903B091FA03ED0130E020E01097A1F4DB
:1031800020813181820F931F2091F7033091F80342
:103190002817390709F061C0F093F803E093F703AB
:1031A000DF91CF910895EA01CE17DF07E8F54A8154
:1031B0005B819E0141155105B1F7E901FB83EA836B
:1031C00049915991C40FD51FEC17FD0761F4808117
:1031D00091810296840F951FE901998388838281EA
:1031E00093819B838A83F0E0E0E012968D919C911D
:1031F00013970097B9F52D913C911197CD01029647
:10320000820F931F2091F7033091F8032817390795
:1032100039F6309751F51092FA031092F903B093F2
:10322000F803A093F703BCCFD383C28340815181BD
:10323000840F951FC817D90761F44E5F5F4F8881CF
:103240009981480F591F518340838A819B819383C1
:1032500082832115310509F0B0CFF093FA03E09392
:10326000F9039ECFFD01DC01C0CF13821282D7CFBC
:10327000B0E0A0E0EEE3F9E10C94491D5C017B01B4
:103280006115710519F0DB018D939C9385010F5F2A
:103290001F4FF501D0818D2F90E00E949F1B6C0184
:1032A000892BB9F5DD32B9F50F5F1F4FD5011196A6
:1032B000DC91C1E05801F1E0AF1AB10843E050E001
:1032C00062EF70E0C5010E94B11B892B69F56801AE
:1032D00082E0C80ED11C45E050E06DEE70E0C60102
:1032E0000E94B11B892B21F4680197E0C90ED11C03
:1032F000E114F10419F0D701CD92DC9260E070E0A6
:1033000080E89FEFC111FFC060E070E080E89FE7B8
:10331000FAC05801BBCFDB3229F485010E5F1F4F85
:10332000F501D181C0E0C6CF43E050E06AEE70E025
:10333000C5010E94B11B892BE9F0F80110E000E003
:1033400020E030E0A9015F01B0ED8B2E8D0E89E009
:103350008815C8F19C2E689491F88C2F8870C2FF54
:1033600016C0811102C00F5F1F4F3196D501DC914D
:10337000C92DE9CFE114F10429F00E5F1F4FF701C9
:103380001183008360E070E080EC9FE7BCC088237D
:1033900011F001501109A5E0B0E00E94381D9B0119
:1033A000AC01220F331F441F551F280D311D411D35
:1033B000511D283999E93907490799E15907A8F2B8
:1033C000C6609C2ED2CFAEEF8A1206C0C3FD3CC0B1
:1033D0009C2E689493F8C9CFDF7DD534A9F5808100
:1033E0008D3239F4C061DF011296818162E070E0B4
:1033F00006C0DF018B32C1F3119661E070E08053AB
:103400005D01A61AB70A8A30F8F4E0E8CE16ECE0BF
:10341000DE065CF4B601660F771F660F771FC60ED7
:10342000D71ECC0CDD1CC80ED11C5D01FFEFAF1AFE
:10343000BF0A8C9180538A30A8F1C4FF03C0D19495
:10344000C194D1080C0D1D1DC1FF09C0E114F10488
:1034500031F081E0A81AB108D701AD92BC92CA013F
:10346000B9010E94CE1BC370C33009F490584B01C0
:103470005C0120E030E0A9010E94C91B882309F407
:1034800040C0C1E2D1E017FF05C0119501951109B7
:10349000C9E0D1E06E01B8E1CB1AD10880E2E82E94
:1034A000F12C0FC0D501B1CFFE0125913591459189
:1034B00054910E191F09C501B4010E942F1C4B0124
:1034C0005C01D501C4010E151F0574F72497F5940E
:1034D000E794CC16DD06A9F78A2F880F8B2F881F5B
:1034E0008F3F49F020E030E0A901C501B4010E94FE
:1034F000C91B811106C082E290E09093FC03809387
:10350000FB03C501B401CDB7DEB7ECE00C94651D3B
:10351000B0E0A0E0EEE8FAE10C94441D5C016B0120
:103520007A016115710519F0FB0191838083E11423
:10353000F10451F0C7010297839730F040E030E08A
:1035400020E090E072C05E01E5012196F501108156
:10355000812F90E00E949F1B892BA9F71D3201F556
:103560002196F501118101E0E114F10409F4DAC0BA
:10357000F0E1EF16F10409F082C0103359F48881AC
:103580008F7D883509F076C0198122960260F0E1BE
:10359000EF2EF12C812C912CA12C88E0B82E8CC020
:1035A0001B3221F4E5012296F501118100E0DCCF08
:1035B000EAE0EE16F10409F4BBC0F0E1EF16F10405
:1035C00009F06DC0E7CF78E0E72EF12C812C912C2B
:1035D000A12C60E1B62E70C03FE9310F3A3128F4DA
:1035E00039EA332E80C021E09AC0302F3170C114E7
:1035F000D10431F0222309F12197F601D183C08350
:1036000027FF21C060E070E080E090E8311104C045
:103610006FEF7FEF8FEF9FE722E230E03093FC0304
:103620002093FB03462F372F282F642F732F822FD1
:10363000CDB7DEB7E1E10C94601D01FF04C0229715
:10364000F601D183C083332341F090958095709526
:1036500061957F4F8F4F9F4FE5CF97FFE3CF82E27A
:1036600090E09093FC038093FB036FEF7FEF8FEF6D
:103670009FE7D8CF10E3E114F10409F4A4CF28E0C8
:10368000E216F10409F4A2CF0CF092CF812C912C18
:10369000A12CE0E4BE2E82E0E816F10469F060E0BF
:1036A00070E080E090E897010F2C000C440B550B64
:1036B0000E94161D49015A0120E060E070E0CB0134
:1036C00027010F2C000C66087708FE0150ED352EFF
:1036D000310E39E0331540F43FEB310F3A3108F049
:1036E0007BCF49EC342E310E3E141F040CF07DCFFD
:1036F00027FD15C086169706A806B90678F0A3011F
:1037000092010E94061D630D711D811D911D613086
:103710007105810520E8920708F465CF2FEF219607
:103720001081D3CF103309F42ACF2AE0E22EF12CF6
:103730009CEC892E982CA82C9CE0B92EBDCF911121
:103740000C949C1C803219F089508550C8F708955C
:10375000FC0105900020E9F7809590958E0F9F1F42
:103760000895FB01DC014150504088F08D91813477
:103770001CF08B350CF4805E659161341CF06B3568
:103780000CF4605E861B611171F3990B0895881B20
:10379000FCCF0E940B1C08F481E00895E89409C056
:1037A00097FB3EF490958095709561957F4F8F4F74
:1037B0009F4F9923A9F0F92F96E9BB279395F6958A
:1037C000879577956795B795F111F8CFFAF4BB0F08
:1037D00011F460FF1BC06F5F7F4F8F4F9F4F16C06C
:1037E000882311F096E911C0772321F09EE8872FF6
:1037F000762F05C0662371F096E8862F70E060E0B2
:103800002AF09A95660F771F881FDAF7880F96952A
:10381000879597F90895990F0008550FAA0BE0E8CE
:10382000FEEF16161706E807F907C0F01216130682
:10383000E407F50798F0621B730B840B950B39F4C2
:103840000A2661F0232B242B252B21F408950A2628
:1038500009F4A140A6958FEF811D811D08950E9456
:10386000421C0C94B61C0E94A81C38F00E94AF1C8D
:1038700020F0952311F00C949F1C0C94A51C11248E
:103880000C94EA1C0E94C71C70F3959FC1F3950F1E
:1038900050E0551F629FF001729FBB27F00DB11DD4
:1038A000639FAA27F00DB11DAA1F649F6627B00D64
:1038B000A11D661F829F2227B00DA11D621F739F4D
:1038C000B00DA11D621F839FA00D611D221F749F5B
:1038D0003327A00D611D231F849F600D211D822FA2
:1038E000762F6A2F11249F5750409AF0F1F08823C9
:1038F0004AF0EE0FFF1FBB1F661F771F881F9150F6
:103900005040A9F79E3F510580F00C949F1C0C94E9
:10391000EA1C5F3FE4F3983ED4F38695779567956C
:10392000B795F795E7959F5FC1F7FE2B880F911D1F
:103930009695879597F9089599278827089597F977
:103940009F6780E870E060E008959FEF80EC089545
:1039500000240A941616170618060906089500246E
:103960000A9412161306140605060895092E0394E8
:10397000000C11F4882352F0BB0F40F4BF2B11F45C
:1039800060FF04C06F5F7F4F8F4F9F4F089557FDBB
:103990009058440F551F59F05F3F71F04795880FBD
:1039A00097FB991F61F09F3F79F087950895121654
:1039B00013061406551FF2CF4695F1DF08C0161600
:1039C00017061806991FF1CF8695710561050894B1
:1039D0000895E894BB2766277727CB0197F90895C8
:1039E000F999FECF92BD81BDF89A992780B50895C7
:1039F000262FF999FECF1FBA92BD81BD20BD0FB60B
:103A0000F894FA9AF99A0FBE01960895DB018F9304
:103A10009F930E94381DBF91AF91A29F800D911D71
:103A2000A39F900DB29F900D11240895A1E21A2E2C
:103A3000AA1BBB1BFD010DC0AA1FBB1FEE1FFF1F52
:103A4000A217B307E407F50720F0A21BB30BE40BA2
:103A5000F50B661F771F881F991F1A9469F76095E9
:103A60007095809590959B01AC01BD01CF010895A3
:103A70000E947A1DA59F900DB49F900DA49F800D6C
:103A8000911D112408952F923F924F925F926F9251
:103A90007F928F929F92AF92BF92CF92DF92EF92DE
:103AA000FF920F931F93CF93DF93CDB7DEB7CA1B5F
:103AB000DB0B0FB6F894DEBF0FBECDBF09942A888A
:103AC000398848885F846E847D848C849B84AA8432
:103AD000B984C884DF80EE80FD800C811B81AA81BF
:103AE000B981CE0FD11D0FB6F894DEBF0FBECDBF8A
:103AF000ED010895A29FB001B39FC001A39F700D77
:103B0000811D1124911DB29F700D811D1124911DE5
:103B100008955058BB27AA270E94A11D0C94B61CDB
:103B20000E94A81C38F00E94AF1C20F039F49F3F7F
:103B300019F426F40C94A51C0EF4E095E7FB0C9404
:103B40009F1CE92F0E94C71C58F3BA17620773071E
:103B50008407950720F079F4A6F50C94E91C0EF47F
:103B6000E0950B2EBA2FA02D0B01B90190010C018D
:103B7000CA01A0011124FF27591B99F0593F50F4A5
:103B8000503E68F11A16F040A22F232F342F4427FD
:103B9000585FF3CF469537952795A795F0405395F5
:103BA000C9F77EF41F16BA0B620B730B840BBAF0C5
:103BB0009150A1F0FF0FBB1F661F771F881FC2F730
:103BC0000EC0BA0F621F731F841F48F48795779544
:103BD0006795B795F7959E3F08F0B0CF9395880FFE
:103BE00008F09927EE0F9795879508950E940A1E71
:103BF0000C94B61C0E94AF1C58F00E94A81C40F008
:103C000029F45F3F29F00C949F1C51110C94EA1C7D
:103C10000C94A51C0E94C71C68F39923B1F355238B
:103C200091F3951B550BBB27AA27621773078407CF
:103C300038F09F5F5F4F220F331F441FAA1FA9F365
:103C400035D00E2E3AF0E0E832D091505040E69553
:103C5000001CCAF72BD0FE2F29D0660F771F881FB4
:103C6000BB1F261737074807AB07B0E809F0BB0BA7
:103C7000802DBF01FF2793585F4F3AF09E3F5105BB
:103C800078F00C949F1C0C94EA1C5F3FE4F3983E80
:103C9000D4F3869577956795B795F7959F5FC9F7A4
:103CA000880F911D9695879597F90895E1E0660F25
:103CB000771F881FBB1F621773078407BA0720F09E
:103CC000621B730B840BBA0BEE1F88F7E095089507
:103CD0000E946F1E6894B1110C94EA1C08950E9412
:103CE000CF1C88F09F5798F0B92F9927B751B0F0A3
:103CF000E1F0660F771F881F991F1AF0BA95C9F770
:103D000014C0B13091F00E94E91CB1E008950C9408
:103D1000E91C672F782F8827B85F39F0B93FCCF3BB
:103D2000869577956795B395D9F73EF490958095EC
:103D3000709561957F4F8F4F9F4F08950E940B1C88
:103D400008F48FEF0895FA01EE0FFF1F309621055A
:103D50003105A1F16115710561F48038BFE39B075E
:103D600049F168949038810561F08038BFEF9B0776
:103D700041F099234AF5FF3FE1053105210519F18D
:103D8000E8940894E795D901AA2329F4AB2FBE2F14
:103D9000F85FD0F310C0FF5F70F4A695E0F7F73935
:103DA00050F019F0FF3A38F49F779F930DD00F90A1
:103DB00007FC9058089546F00C94A51C60E070E054
:103DC00080E89FE308954FE79F775F934F933F937A
:103DD0002F930E94A31F2F913F914F915F910E94BB
:103DE0002F1C0C94001F0E940B1C880B990B08952C
:103DF00029F416F00C949F1C0C94E91C0C94A51C3F
:103E00000E94CF1CA8F39638A0F707F80F92E89409
:103E10002BE33AEA48EB5FE70E94451C0F920F92B2
:103E20000F924DB75EB70F920E94EB1FE8E6F0E0ED
:103E30000E94321F4F915F91EF91FF91E595EE1F28
:103E4000FF1F49F0FE57E0684427EE0F441FFA9524
:103E5000E1F74195550B0E94651F0F9007FE0C94EA
:103E6000591F0895DF93CF931F930F93FF92EF9203
:103E7000DF927B018C01689406C0DA2EEF010E946C
:103E8000421CFE01E894A5912591359145915591EB
:103E9000A6F3EF010E94A11DFE019701A801DA948B
:103EA00069F7DF90EF90FF900F911F91CF91DF9115
:103EB00008959B01AC0160E070E080E89FE30C9402
:103EC000F61D0C949F1C0C941F200E94CF1CD8F34D
:103ED0009923C9F3940F511DA3F39150504094F0CE
:103EE00059F0882332F0660F771F881F9150504099
:103EF000C1F79E3F51052CF7880F911D9695879528
:103F000097F908955F3FACF0983E9CF0BB278695EB
:103F100077956795B79508F4B1609395C1F7BB0F96
:103F200058F711F460FFE8CF6F5F7F4F8F4F9F4FBF
:103F3000E3CF0C94EA1C16F00C941F200C94A51CE3
:103F400068940C949F1C0E94CF1CA8F39923C1F382
:103F5000AEF3DF93CF931F930F93FF92C92FDD270B
:103F600088232AF02197660F771F881FDAF720E051
:103F700030E040E85FEB9FE3883920F0803E38F086
:103F800021968F770E948A1DE0E9F0E004C00E942C
:103F90008A1DEDEBF0E00E94321F8B01BE01EC01A7
:103FA000FB2E6F5771097595771F880B990B0E942F
:103FB000D01B28E132E741E35FE30E94421CAF2DB2
:103FC0009801AE01FF900F911F91CF91DF910E9458
:103FD000A11D0C94B61CFA01DC01AA0FBB1F9B01AA
:103FE000AC01BF5728F4222733274427507820C03C
:103FF000B75190F4AB2F0024469537952795011CB7
:10400000A395D2F3002071F0220F331F441FB39504
:10401000DAF30ED00C94891D61307105A0E88A078F
:10402000B94630F49B01AC01662777278827907842
:10403000309621F0208331834283538308959F3F3C
:1040400031F0915020F4879577956795B795880F53
:10405000911D9695879597F90895052E97FB1EF467
:1040600000940E94442057FD07D00E94161D07FCB3
:1040700003D04EF40C9444205095409530952195F2
:104080003F4F4F4F5F4F0895909580957095619584
:104090007F4F8F4F9F4F0895EE0FFF1F0590F491B4
:1040A000E02D09940F931F93CF93DF93869F800198
:1040B000879F100D969F100D1124C8010E941318A0
:1040C000EC01009729F0A80170E060E00E946E20EA
:1040D000CE01DF91CF911F910F910895DC0101C0B6
:1040E0006D9341505040E0F70895FB01DC018D9144
:1040F000019080190110D9F3990B0895FB01DC019F
:1041000001900D920020E1F70895DC015D915523A7
:1041100031F0FB01019005160110E1F7B9F7809528
:1041200090958A0F9B1F0895FB01DC014150504080
:1041300048F001900D920020C9F701C01D92415036
:104140005040E0F70895AEE0B0E0E9EAF0E20C9408
:10415000511D0D891E8986E08C831A8309838FEF98
:104160009FE79E838D83AE01475E5F4F6F89788D99
:10417000CE0101960E94C6202F813885020F131FA1
:10418000F80110822E96E4E00C946D1DABE0B0E0D7
:10419000ECECF0E20C94431D7C013B018A01FC0134
:1041A00017821682838181FFC8C1CE0101965C010E
:1041B000F7019381F30193FD859193FF81913F0175
:1041C000882309F453C1853239F493FD859193FF17
:1041D00081913F01853229F4B70190E00E94B62217
:1041E000E7CF912C212C312CFFE1F31538F08B32E5
:1041F00011F190F4803209F1833229F137FC3CC08F
:1042000020ED280F2A3050F536FE20C08AE0989E17
:10421000200D1124922E06C08D3291F0803371F75B
:10422000689430F8F30193FD859193FF81913F01EC
:104230008111DACF21C0689431F8689432F8F2CF56
:10424000689433F8EFCF689434F8ECCFEAE02E9E10
:10425000200D1124222E689435F8E4CF8E3229F4F3
:1042600036FC04C1689436F8DDCF8C3619F46894B6
:1042700037F8D8CF8836B1F2982F9F7D9554933078
:10428000E0F08336A1F18337C1F1833509F063C0D3
:104290002801F2E04F0E511CF801C080D180692D39
:1042A00070E036FC02C06FEF7FEFC6010E94A022D3
:1042B0004C01689437F882010AC00C5F1F4FFFE37E
:1042C000F98388248394912C6501E89437F833FEB0
:1042D0002DC0522C8114910471F5552009F468CF3A
:1042E000B70180E290E00E94B6225A94F6CFF8011E
:1042F000808189830E5F1F4FE4CF2801F2E04F0ECB
:10430000511CF801C080D180692D70E036FC02C0DC
:104310006FEF7FEFC6010E94AB224C018201D5CF27
:10432000B70180E290E00E94B6222A942814190472
:1043300009F0B0F7CECFF60137FC859137FE8191B9
:104340006F01B70190E00E94B62251105A94F1E03B
:104350008F1A9108BFCF843619F0893609F077C0DB
:10436000F80137FE6BC060817181828193810C5F9F
:104370001F4FF32DFF763F2E97FF09C09095809534
:10438000709561957F4F8F4F9F4F689437F82AE063
:1043900030E0A5010E94E622C82ECA188C2C432CBE
:1043A00036FE0CC0E89440F8C91440F434FE05C051
:1043B00032FC03C0F32DFE7E4F2E892C44FE95C0A7
:1043C000FE01EC0DF11D8081803309F087C0242DA2
:1043D000297E422E842D8870582E43FC95C040FEC5
:1043E0008FC09C2C821418F42C0C922C981844FE2C
:1043F00091C0B70180E390E00E94B62242FE09C05E
:1044000088E790E041FE02C088E590E0B7010E9495
:10441000B622C91408F48AC0CA94D12C9FEFC91AD5
:10442000D90ACA0CDB1CF60182916F01B70190E03A
:104430000E94B622AC14BD04B1F74FCF60817181E8
:10444000072E000C880B990B0E5F1F4F92CFD32CB9
:10445000E894D4F82AE030E0853739F1232D297F1C
:10446000D22E8F3601F148F48835A9F0F701868104
:1044700097812B96E2E10C945F1D803749F08837D5
:10448000A9F7D4FE02C06894D2F820E130E00DC054
:104490006894D4F8F6CF34FE03C0822F8660D82EFD
:1044A00020E132E002C028E030E0F801D7FE0FC082
:1044B00060817181828193810C5F1F4FA5010E94F1
:1044C000E622C82ECA183D2CE89437F867CF6081E1
:1044D000718190E080E00E5F1F4FF0CF42FC02C080
:1044E000839478CF8394839475CF842D867809F450
:1044F00071CFF6CFB70180E290E00E94B62283949C
:104500008214C0F3512C73CF522C5818821408F423
:104510006ECFF8CF842D867809F47BCF8BE241FEF5
:1045200080E247FC8DE2B70190E071CFB70180E3F4
:1045300090E00E94B6229A946CCF8FEF9FEF99CFB4
:10454000FC010590615070400110D8F7809590955E
:104550008E0F9F1F0895FC01615070400190011063
:10456000D8F7809590958E0F9F1F08950F931F93F6
:10457000CF93DF93182F092FEB018B8181FD09C0A9
:104580001FEF0FEF812F902FDF91CF911F910F9190
:10459000089582FF14C02E813F818C819D81281750
:1045A00039073CF4E881F981CF010196998388832A
:1045B00010838E819F8101969F838E83E3CFE88550
:1045C000F985812F0995892BA1F3DACFFA01AA2762
:1045D000283051F1203181F1E8946F936E7F6E5F46
:1045E0007F4F8F4F9F4FAF4FB1E03ED0B4E03CD0F4
:1045F000670F781F891F9A1FA11D680F791F8A1FD7
:10460000911DA11D6A0F711D811D911DA11D20D03D
:1046100009F468943F912AE0269F11243019305DF7
:104620003193DEF6CF010895462F4770405D4193E8
:10463000B3E00FD0C9F7F6CF462F4F70405D4A3335
:1046400018F0495D31FD4052419302D0A9F7EACFFD
:10465000B4E0A6959795879577956795BA95C9F72C
:1046600000976105710508959B01AC010A2E06941F
:104670005795479537952795BA95C9F7620F731FD8
:0C468000841F951FA01D0895F894FFCF23
:10468C000000FD0380009F019F019F019F019F017E
:10469C009D019B01990197019501930191018B015A
:1046AC00870182017D017A01750170016A01660141
:1046BC00630160015B015801560152014E014B012F
:1046CC00470142013E0139013601330131012E010E
:1046DC002C01290127012501000000004803A80234
:1046EC00D502B0030603E402F8020D0A003E3E3E7A
:1046FC003E20436F6D6D6974003C3C3C3C20526F16
:10470C006C6C6261636B00293E3E3E20006E616EF4
:10471C0000696E66006F76660025252E25645800AC
:10472C0053503A0020442000204C2000454F4600B6
:10473C002028002920636F6C3A0020706F733A00B8
:10474C004E45575641523A204000204465663A2067
:10475C000020526F6F743A20400020503A002E0017
:10476C0050555348284C292000505553482844296B
:10477C0020004E4F54004E454741544500504F5772
:10478C00004D554C5449504C5900444956494445E8
:10479C000041444400535542545241435400706FFD
:1047AC00770053544F52450020636F6C756D6E3A11
:1047BC002000206E6561723A20270027203A002CD9
:1047CC000073697A653A2000206279746573002061
:1047DC00416464723A2000204F50436F64653A2064
:1047EC0000204D61726B65723A20003B00505553AE
:1047FC004820005055534856200053544F524520E2
:10480C00400020563A00474F535542204000202B81
:10481C002000203D2000202D200020782000202F7B
:02482C0020006A
:00000001FF
